:100000006F108073000000008C0800009008000052
:1000100000000000000000000000000000000000E0
:1000200000000000000000000000000000000000D0
:100030000617000000000000081700000000000084
:100040000A1700000C1700000E1700001017000020
:10005000D80F000014170000161700001817000032
:100060001A1700001C1700001E17000020170000C0
:100070002217000092140000261700002817000025
:10008000CC1400002C1700002E17000030170000C1
:10009000321700003417000036170000000000007F
:1000A000511126C022C206C4828282441244A24058
:1000B000310182802A86014593F6150091C232955E
:1000C00085810606F5F9828000000000634E050276
:1000D00063C305042E86AA857D5515C285466378BF
:1000E000B6006356C00006068606E36CB6FE014500
:1000F00063E4C500918D558D85820582F5FA828075
:100100008682C93F2E8582823305A04063D70500D1
:10011000B305B040C1B7B305B0408682653F330533
:10012000A0408282868263C70500634905005D376F
:100130002E858282B305B040E35B05FE3305A04007
:10014000513F3305B040828200003D432A876373EC
:10015000C3029377F700BDEFADE5937606FF3D8AC6
:10016000BA960CC34CC30CC74CC74107E36BD7FE10
:1001700011E28280B306C3408A0697020000969679
:100180006780A6002307B700A306B7002306B700C1
:10019000A305B7002305B700A304B7002304B700E5
:1001A000A303B7002303B700A302B7002302B700DD
:1001B000A301B7002301B700A300B7002300B700D5
:1001C000828093F5F50F93968500D58D9396050162
:1001D000D58D61B793962700970200009696868288
:1001E000E78086FA9680C1171D8F3E96E374C3F8A8
:1001F000A5B7EFF2FFEA711102C0CC8009468A85EB
:10020000EF002069110155B5EFF29FE90111694630
:10021000814548001D3FB717B0C8938707023EC00D
:10022000C147DC82E177938707147C83B7A7A6A830
:100230009387F71F3EC4E9779387F7437C8693073C
:1002400030FD5C87B7F7D9229387570D3EC8B717A3
:10025000DB209387A72D3ECA85679387D748FC8408
:100260009307F0FA230DF1000144B30781008C23BA
:100270001305C0030504B53FF147E318F4FE05611B
:100280002DB5EFF2FFE1930505FB93F5F50F13058F
:10029000C003853719BDEFF2BFE02A849375F500DE
:1002A0001305C003B93793554400C1051305C003B6
:1002B0008937E5BBEFF2DFDE21119307000402C6A8
:1002C00032C236C05C862EC402C8231A0100553FD4
:1002D000A2452E85C937124682467800931736000C
:1002E0003386C740896793878731B2970145BA85BE
:1002F00085070507130615006319D50042064182DC
:100300001305C003792361014DB303C5F7F108A3B9
:100310001375F60FF1BFEFF2BFD861112A87AE84D3
:10032000B287368419E0210149B303860700A68508
:100330003A8599463EC23AC0B53F924799047D142A
:1003400093F4F40F85071374F40F0247E1BFEFF243
:100350003FD5130141F72EC22A84B284814513068A
:100360002008280036C0D533924782465C848147F6
:1003700063ECD7008506139606012C004182228586
:10038000092B1301C10815B33386F400102278013C
:100390003E978507A30EC7F693F7F70FD1BFEFF28D
:1003A0003FD019712A841306000881450A85713BE4
:1003B000814713070008B306F10080A28507E39C7C
:1003C000E7FE1304000BA2851305C0031D3581450C
:1003D0001305C003393DC1451305C003193D9306FC
:1003E00000080A86930500041305C0038D37050431
:1003F0001374F40F9307800BE317F4FC096175B1D4
:10040000EFF21FCA1305F00F593F13054006EF1016
:10041000F06B3D4569371305A00FEF10306B1305E6
:10042000000FB53F1305A00FEF10506A0145853F3F
:10043000ADB9EFF2FFC6AA841304000BA285130521
:10044000C003453B81451305C0036533C145130512
:10045000C003453326869306000893050004130560
:10046000C003F53505041374F40F9307800B9384D0
:100470000408E315F4FC15B9EFF29FC2611193076C
:10048000A0FB4C0002C20946130580035C8202C037
:10049000092113054006EF1070638A850546130590
:1004A0008003C12103050100210101B1EFF25FBF0B
:1004B000611185679387E78B4C000D461305800318
:1004C0007C8202C023130100E92613054006EF10C9
:1004D000F05F8A85054613058003612108802101AC
:1004E000E9B6EFF2FFBB61118D679387C73A4C0005
:1004F0000D46130580037C8202C023130100512E98
:1005000013054006EF10905C8A85054613058003AD
:1005100089290880210151BEEFF29FB851112A8428
:10052000AE8405468A851305800302C002C22314E7
:10053000010005291C80A18B99E33D3F853F55377C
:10054000058911E51D468A851305800319291C813B
:100550009880A207D98F13978700A183D98F98819C
:10056000C207C183920793564700DD8E93975600CA
:10057000958F8A07B6978E07D1839CC01C823D8BCE
:1005800022075D8F9C8222075D8F93175700998FFA
:100590008A07BA979207D1839387C7E01CC03101BD
:1005A00029B6EFF2FFAF11651301C1FD85451305B3
:1005B000050202C402C602C802CA02CC02CE02D0A0
:1005C00002C002C2EF103006930700027C84371489
:1005D00001408D473EC62C00E147130504403EC84C
:1005E000EF10C043930700047C842C00914713054F
:1005F00004403EC8EF108042F167374401409387C2
:1006000007203ECA4C08B7070C00130504803ECEF5
:1006100002CC23100102EF103031054693055052F1
:1006200013050480EF10903E930700127C808547ED
:100630005C810A8585473EC2EF10806985451305B8
:100640000480EF10503B1301410285B4EFF25FA527
:100650007111AA84EF10304B93170501C1833EC07E
:1006600001448247131704014183637BF702374734
:10067000014093060780368593050008EF10703D12
:10068000B747014093860780374701406DD5B38651
:1006900084008C22130507800504EF10903AD1B72F
:1006A000110121B4EFF2DF9F85472E84631AF50014
:1006B000372500001305055C513F2285413FF5B207
:1006C0008D476317F500372500001305855CEDB7EE
:1006D0008947E314F5FE372500001305455DE9BFA2
:1006E000EFF21F9C2A84B304B50063069402B74757
:1006F0000140138707803A8593050008EF10703595
:10070000B7470140138707807DD50C203A85050443
:10071000EF103033D9BF6FF05F99EFF27F9871110E
:100720009307F0F92A8402C0A145371501405C8087
:10073000EF10603C1146A2850A85EF00505EA1458E
:1007400037150140EF10E03A11016FF01F96EFF2FC
:100750003F952A84A14537150140EF10C0398945DE
:1007600037350140EF1000777DD9A285373501403C
:10077000EF10C075854537350140EF10A0757DD964
:1007800037350140EF10C074A14537150140EF1017
:1007900040366FF09F91EFF2BF9071119307000206
:1007A0005C8093570501DC809317850042054181E9
:1007B00021815D8D68811945593FA145371501405B
:1007C000EF1060330A859145EF00505AA145371567
:1007D0000140EF10003211459D3F13052003EF103B
:1007E000F02E11016FF07F8CEFF29F8B61118D471E
:1007F0005C8293570501DC82931785004205418195
:1008000021815D8D2E846883A1453715014032C05A
:10081000EF10602E48009145EF00505502462285AA
:10082000B285EF007057A14537150140EF10602CDD
:1008300021016FF09F87EFF2BF86611189475C82CB
:1008400093570501DC829317850042054181218180
:100850005D8D688319452E8432C0D53DA14537157D
:100860000140EF10402948009145EF00305002460A
:100870002285B285EF00904FA14537150140EF105A
:1008800040271145E93521016FF03F827300203088
:1008900001A0EFF2FF807111B75700402A84AE84A7
:1008A00032C0138707403A85B7050200EF10C03EFB
:1008B000B7570040138707407DF585453A85EF100F
:1008C0008035B7070300850737570040BE851305FD
:1008D0000740EF10003BB70703003757004085077C
:1008E00065D593151400014693F5E50F13050740F0
:1008F00037040700EF10C0371304240837550040B1
:10090000A28513050540EF10C0376DD90144824719
:10091000636CF40037550040854513050540EF1022
:10092000203111016FF06FF8B38784008C233755A5
:10093000004013050540EF10E032B707070093872A
:10094000470837550040BE8513050540EF1060335A
:10095000B7070700938747086DD505041374F40F94
:100960007DB7EFF2EFF371112AC037550040AE8426
:100970001305054085453284EF10E029B7070300D1
:10098000850737570040BE8513050740EF10602FDD
:10099000B707030037570040850765D582470546EE
:1009A000130507409395170093F5E50FEF10402CC2
:1009B000B7070300890737570040BE851305074076
:1009C000EF10202CB707030037570040890765D583
:1009D000854513050740EF10402719E837550040BB
:1009E000854513050540EF10A02411016FF0EFEBD2
:1009F00085476319F40037550040814513050540CC
:100A0000EF10A024B7570040B7050010138507402A
:100A100093850504EF104028B75700405DDD13852E
:100A200007407D14EF104024420488A041808504D3
:100A30006DB7EFF2EFE6056501118545410502C08E
:100A400002C202C402C602C802CA02CC231E0100AE
:100A5000EF10603DA1470D447C808A85C147371562
:100A600001403EC422C2EF00707B93070002E144C4
:100A70008A85371501407C8026C422C2EF00107A97
:100A8000930700087C808A859147371501403EC452
:100A9000EF00D078930700048A85371501407C80E9
:100AA00026C422C2EF009077B70704013EC6B707FD
:100AB000000285073ECA930780033ECC6C009D4729
:100AC00037350140FC8602C8EF10803B854537353D
:100AD0000140EF10003E05616FF02FDDEFF24FDCBB
:100AE000AA840565130141FD2E8413050583854500
:100AF00032C002C802CA02CC02CE02D002D202D454
:100B000002C202C423160100EF10E03185450545FD
:100B1000EF104033B147FC8037150140E1473ECC30
:100B20000C088D47130505403ECAEF00306FC147E2
:100B30000C0837150140FC80EF00506E608237349E
:100B400001404C00130504C06484231501002313E5
:100B50000100EF10C0384C0037050040EF1020387E
:100B60000246C167938707076C08130504C03ECE91
:100B70002311C10223120102EF10403B6C08130540
:100B800004C0EF10A04A6C0837050040EF10A040E9
:100B9000130504C08545EF10C051130504C08145FD
:100BA000EF102054130504C08145EF10C055130504
:100BB00004C08545EF104051130504C08545EF1072
:100BC000C04D854537050040EF10A04E81453705E3
:100BD0000040EF10E051854537050040EF10C04E52
:100BE000854537050040EF10404B1301C1026FF0FF
:100BF000CFCBEFF2EFCA9377F50F2A841395570006
:100C00001D8D0A053E959305F00F0E05EFF08FCC74
:100C100093150501C18137050040EF106050135551
:100C200084009377F50F139557001D8D0A053E95A7
:100C30009305F00F0E05EFF0EFC9B734014093159F
:100C40000501C181138504C041801374F40FEF10B6
:100C5000604D13155400018D0A0522959305F00F80
:100C60000E05EFF02FC793150501C181138504C050
:100C7000EF10C04A6FF06FC3EFF28FC2371401401C
:100C8000854513050440EF00D06613052003EF10DF
:100C9000E063854513050440EF00F065130520036C
:100CA000EF10C062854513050440EF009064130502
:100CB0002003EF10A061854513050440EF00B063E9
:100CC00013052003EF108060854513050440EF00F5
:100CD00050621305401FEF10605F6FF00FBDEFF221
:100CE0002FBC130141FD614681454808EFF0EFC577
:100CF00085451305000202C402C602C802C002C232
:100D0000EF106012854513050020EF10C01131650A
:100D1000EF10600637150140C1472C001305054050
:100D2000372401407C8402C8EF00504F1305044073
:100D3000EF00D0289D673ED04C088547130504403E
:100D40002304F10202CA02CC02CE02D2EF007029C3
:100D5000854513050440EF00B03C9D4605469D4582
:100D600013050440EF003034814513050440EF00C3
:100D7000D0309307D0217C800A8585473EC223016D
:100D80000100EF00F074B705000213050440EF0006
:100D9000903E05469305004813050440EF00502A95
:100DA000854513050440EF00B02813050440EF000B
:100DB000902A930404402685EF00902A6DFD1305C8
:100DC000044037240140EF00302A130404402285F8
:100DD000EF00302A6DFD1301C1026FF00FADEFF28D
:100DE0002FAC41118545114502C202C402C6EF1065
:100DF000800385454145EF1000038545130500023A
:100E0000EF106002B717014041448D440547138538
:100E100007404C0078823AC022C626C4EF0010403A
:100E200002474C0037150140788222C626C4EF00E5
:100E3000F03EB71701401147138507404C007882F8
:100E400022C626C4EF00903D4C0037150140608259
:100E500022C626C4EF00903CB717014021474C0042
:100E600013850740788222C626C4EF00303B41013B
:100E70006FF0AFA3EFF2CFA21301C1FD8545154579
:100E8000B714014002C402C602C802CA02CC02CE94
:100E900002D002C002C2EF001079114489472C0031
:100EA000138504807C8422C8EF0050372C00138502
:100EB0000480608422C8EF00703685450145EF004C
:100EC000D043894785443ECA4808B1473ECE26D024
:100ED00002CCEF00902B89450145EF001042B1474D
:100EE000480822CA3ECE26D002CCEF00102AD147B5
:100EF0000A857C8026C223010100EF00705D13018A
:100F000041026FF08F9AEFF2AF991301C1FD2AC22F
:100F10002EC04545854502C402C602C802CA02CC9D
:100F200002CE02D0EF003070854537052000EF007B
:100F300070719146F1440D442C00371501407484C2
:100F400026C822C6EF00902D89462C003715014097
:100F5000748426C822C6EF00702C8247124737548B
:100F60000040FC86930700403ACAFC873707FFBF62
:100F700091674C08130504403ACC2310F102EF00AE
:100F8000F039130504408545EF007047854513058A
:100F90000440EF00904B130141026FF00F91EFF20C
:100FA0002F907111AA84AE873384C50063958700A2
:100FB00011016FF08F8FA94526853EC0EFF04F9449
:100FC00013050503A30FA4FEA9452685EFF08F9016
:100FD000AA847D148247D9BF0945EF00B02119C505
:100FE000054709452383E190EF00B0221145EF004A
:100FF000702019C505471145A383E190EF007021CA
:1010000073002030EFF2CF890945EF00104CEF005C
:101010008068EF106028E133EFF0BFA1A1453715DC
:101020000140EF00102DB935EFF0AFD7372506009E
:1010300093054004130505A8F935EFF0EF9C453101
:1010400009651305055EEFF0CFBE1305C05DEF1017
:10105000E027B73500009385059E0145EFF08FE44A
:10106000B73500009385859E0545EFF0AFE3B735B2
:101070000000938505A00545EFF0CFE2B7350000ED
:10108000938505A20545EFF0EFE1B73500009385A4
:1010900045A30545EFF00FE11305401FEF100023B6
:1010A000EFF00FB6B7350000938545A40545EFF086
:1010B0006FDF2945EF108021372501408545130555
:1010C0000540EF00C07CB7350000938585A5054538
:1010D000EFF04FDD01469305F0021305703EEFF08F
:1010E000FF9F370400011305F4FFEFF09FB0B73501
:1010F00000009385C5A60545EFF0CFDAB7350000AF
:10110000938545A80545EFF0EFD937360000C9466D
:10111000130606AA81450945EFF0EF9F3736000018
:10112000C146130646AB81450D45EFF0CF9E3736DD
:101130000000C546130686AC81451145EFF0AF9D12
:1011400037360000C1461306C6AD81451545EFF0A0
:101150008F9C1305007DEF106017B7350000938555
:1011600005AF0545EFF00FD441657D15EFF07FA881
:101170001305401FEF1080153705FF001305F50F0D
:10118000EFF03FA71305401FEF104014130504F0C4
:10119000EFF03FA61305401FEF1040131305F4FFB7
:1011A000EFF03FA50145EFF08F9F138481A11385D8
:1011B00081A1EFF08FD618309307F00E6319F70076
:1011C000B7350000938585B00545EFF0AFCD2946D2
:1011D000938581910145EFF02FE1B73500009385AC
:1011E00005B20545EFF00FCCA94513858191EFF0CD
:1011F0002FCF3735000089451305C59FEFF04FCE3F
:10120000B7350000938505B30545EFF0AFC9B73793
:101210000000C146138687B481450145EFF0AF8FCA
:10122000B73500009385C5B50545EFF0AFC7B705E5
:1012300000209385850313858190EFF0EFADB7070C
:1012400000201387870308430D4693854191813B16
:10125000373600009305C6B60545EFF0AFC48945A3
:1012600013854191EFF0CFC7B7370000938587B75B
:10127000014593844191EFF0EFC2890426858545AD
:10128000EFF00FC6B73500009385C5B70145EFF005
:101290006FC137360000A9461306C6B68145094519
:1012A000EFF06F878946138641919305C003094586
:1012B000EFF06F86B7370000138687B78546930532
:1012C00080040945EFF02F85268685469305E004C6
:1012D0000945EFF04F84373600009D46130646B8A7
:1012E000930540050945EFF00F839387819088436C
:1012F0000D46938541916531373600009305C6B898
:101300000545EFF02FBA894513854191EFF04FBDA8
:10131000B7370000938587B70145EFF0AFB8268552
:101320008545EFF0EFBBB73500009385C5B90145A2
:10133000EFF04FB737360000B5461306C6B8814503
:101340001145EFE05FFD8946138641919305E00466
:101350001145EFE05FFCB7370000138687B785467D
:101360009305A0051145EFE01FFB268685469305F2
:1013700000061145EFE03FFA3736000085461306B8
:1013800086BA930560061145EFE0FFF89387C19098
:101390009423054793840191639DE602B72601409B
:1013A00013850640D1457923131725003A95131765
:1013B0006500930540063A95EFE0DFD1B72601407E
:1013C00088C09387C1908545138506402380070018
:1013D0007D298840938541911146EFF05FBCB73479
:1013E0000000B5461386C4BA81451945EFE0BFF247
:1013F0001386419191469305E0041945EFE0BFF152
:101400003736000089461306C6BB930560061945AA
:10141000EFE07FF09385C4BA0545EFF0AFA81385E0
:1014200041919145EFF0CFABB7350000938505BCF6
:101430000145EFF02FA713054006EF003069B735DF
:101440000000938585BC0545EFF0CFA5138451902E
:10145000EFF09F821C20E38C07DAB73500009385FC
:1014600045BD0545EFF00FA4B73500009385C5BE17
:101470000545EFF02FA30145EFF0EFB1B7050020D0
:1014800029469385C5030145EFF0EFBA2300040018
:10149000BDBB711122C037240140930500481305DC
:1014A00004407D218547631FF5002386A190D14527
:1014B00013050440412123A8A1909305004813057A
:1014C00004406D210244110173002030711122C0CB
:1014D000374401409305505213050480EF00105823
:1014E0001DC913050480EF00505693874190902347
:1014F000370700201307C70393061600329793F6A9
:10150000F60F08A394A325476377D700238007002D
:101510000547A382E1900244110173002030EFE2FD
:101520003FB87111B387C5002E84AA843EC082479C
:101530006315F40011016FE05FB78945373501404D
:10154000EF0050197DD98C2037350140EF0010187D
:10155000854537350140EF00F0177DD9373501401B
:10156000EF00101708A085040504D1B7EFE25FB3C0
:101570002A84B304B500631494006FE01FB3894557
:1015800037350140EF0010157DD90C20373501406B
:101590000504EF00B013C5B7EFE29FB02A84B3048F
:1015A000B500631494006FE05FB0894537350140A2
:1015B000EF0050127DD9814537350140EF00101101
:1015C000854537350140EF00F0107DD937350140B2
:1015D000EF00101008A00504E9B7B71702409843C0
:1015E000B706FFFC1367170098C3D843758FD8C39D
:1015F0009843B706F7FEFD16758F98C39843B70654
:10160000FCFFFD16758F98C3D843C176FD16758F04
:10161000D8C337079F0098C7984F1367070298CF22
:101620003717014003260740930507401376F6F06D
:101630002320C74003260740136606082320C7401F
:10164000094798C9372702401043719A10C31043C5
:101650001366160010C3D843D8C3D843F98ED4C339
:10166000D843B7060001D8C39843558F98C3984311
:1016700093166700E3DD06FED843B7160240719B60
:10168000D8C3D84313672700D8C32147DC42B18BA6
:10169000E39EE7FE8280EFE2BFA0371702405C4383
:1016A000370400209146B18B130404016385D700F1
:1016B000A1466382D704B7376E01938707601CC0C9
:1016C000B7160240DC420840918313F7F700B707D2
:1016D000002093870700BA978C23DC4293F5F50F1F
:1016E00093F707083357B50081E7EFE0BF9E2A87DD
:1016F00018C06FE09F9B5C43B777DC02938707C0FD
:101700007DBF01A001A001A001A001A001A001A036
:1017100001A001A001A001A001A001A001A001A0C1
:1017200001A001A001A001A001A001A001A001A0B1
:1017300001A001A001A001A097F1FF1F938101105A
:10174000138181FC171500001305054C97F5FF1F49
:101750009385458B17F6FF1F1306468E63FAC50067
:101760008322050023A0550011059105E3EAC5FE7B
:1017700017F5FF1F1305858C938541A26377B5008C
:10178000232005001105E36DB5FE93020008739058
:1017900002308D427390428097F2FFFF93828286DF
:1017A00093E2320073905230EFF03FE39702000073
:1017B000938282857390123473002030B7270140E2
:1017C00093870740631EF500EFE29F8D8545130563
:1017D0000020412D81451305002061256FE0FF8C1D
:1017E00082805C413707F1FF1307F7EF7D8FDC4103
:1017F0009441A207D58FD98F5CC11C4537F7F1FF03
:101800001307D77FD4457D8F9C49D58F9445860695
:10181000D58FD98F1CC55C55370710FF7D177D8F7D
:10182000DC29FD1793F7F70FD207D98F5CD582809B
:101830001C4589C593E717001CC58280F99BEDBF45
:101840005C4193F5F50F01C6DD8D4CC1828093C5D7
:10185000F5FFFD8DDDBF1C4593E787001CC5828029
:1018600008450D81058982801C4593E747001CC50A
:10187000828008450981058982801C4589C52167C8
:10188000D98F1CC5828061777D17F98FDDBF1C451C
:1018900091C537872000D98F1CC582803787DFFF2D
:1018A0007D17F98FD5BFA54763FBB704138765FF85
:1018B000931717008322C500BA971D433313F30013
:1018C0001343F3FF33735300B397F600B3E7670096
:1018D0005CC5185D0906935747018D8B1D8E1376E5
:1018E000F60F931726003E96FD47B397C70093C7A0
:1018F000F7FFF98FB395C500DD8D0CDD82809397DE
:10190000150003230501AE971D473317F700134752
:10191000F7FF33776700B397F6005D8F18C955BF9F
:101920001C5D3707D0FF7D17FD15F98FD205DD8DC2
:101930000CDD8280711102C02AC082479387870222
:10194000BE952EC0824788431101420541818280A5
:101950005841144193D78500F58F99C713F5F50FBA
:10196000798D3335A000828001458280A18193C5A5
:10197000F5FF0CC182805C41370700FA7D17F98FB3
:101980005CC15C41DD8D4CC1828058410323050060
:101990004C4537060140930706403E979346F3FFB8
:1019A000B1C583250640F58D2320B640D043F18E86
:1019B000D4C31443B3E6660014C31841904793465A
:1019C000F7FF758E90C7D047F18ED4C714454146B6
:1019D0006399C6009447D98E94C7D447558FD8C70A
:1019E0008280B6979443558F98C382801C43F58FAD
:1019F0001CC38280B70701401387074083A70740B5
:101A0000584B698F09C77D8D3335A0008280014511
:101A10008280B707014023AAA74082809C456111BC
:101A200022C226C013F7070113F3F70001C7D841FC
:101A30003363E30092211377F60F29C78323050050
:101A4000014713048002930480048546B395E600A1
:101A5000B376B6006392D50293122700BD46B396C3
:101A6000560093C6F6FFB3F37600B3125300B3E308
:101A70007200639787064CC90507A146E317D7FC98
:101A8000232075001307F00F6378C70483234500F4
:101A9000A14613048002930480040547B312D700C3
:101AA000337756006394E202139726000117BD4571
:101AB000B395E50093C5F5FFB3F375003317E30065
:101AC000B363770063928702232A55008506414756
:101AD000E395E6FC232275001244824421018280B2
:101AE000E39C97F80CC949BFE39297FE2328550061
:101AF000F1BF0CC982804CC982803707014014476E
:101B000086058D47B397B70093C7F7FFF58F1CC7BE
:101B10001C47B315B500DD8D0CC78280EFE24FD8AE
:101B2000111146212A8428002EC08524C246C204F1
:101B3000C18093F404FCB7450F00938505243685D6
:101B4000C20436C2C180EFE0EFD8458D4205418125
:101B50004AA01E209246C207C183F99BC207C183D7
:101B60001EA082479043E1679387076A931516008A
:101B700063E6C7043685EFE0EFD5AA8742054181C9
:101B800091466373D50091471395070141814AAC93
:101B90001E20024793E717001EA01E20562332275F
:101BA000C207C183D18E93F757BFD58F1EA01627CA
:101BB0005E27D58F1EA471016FE02FCF8247EA23E5
:101BC000B167FD176310F502B2953685EFE08FD04F
:101BD000420541819317450199E313651500A167FB
:101BE0005D8D75B7B387C5008E07B385C700368591
:101BF000EFE04FCE4205418191675D8DE1BF1E212F
:101C000089C593E717001EA18280C207C183F99B93
:101C1000C207C183CDBF1E2189C593E707101EA14E
:101C20008280C207C18393F7F7EFC207C183C5BFA4
:101C30001E2189C593E707201EA18280C207C183A8
:101C400093F7F7DFC207C183C5BF1E2189C593E79C
:101C500007401EA18280C207C18393F7F7BFC20766
:101C6000C183C5BF0EA982800A291375F50F828032
:101C700093F7E50F19C293E71500C207C1831EA9A8
:101C800082805E290A2D42055D8D6D8D22052181A0
:101C90000D8D133515008280611102C002C293D7E9
:101CA000C5012AC23EC08247A205A18199CB9247B5
:101CB000D1073EC29247884321016D8D3335A00084
:101CC00082809247C181E107EDB723AEA1A0828057
:101CD0009387C1A19443182181E63C21920721A852
:101CE00094430546639FC6023C211031920763145A
:101CF000D60093E707F8B7E600E093F7F70FBA9638
:101D00002380F6408546935757003397E6005441A9
:101D1000A5C2938707048A07B7E600E0B69798C381
:101D200082808C4389466391D50214313C216365DE
:101D3000D6008A06B6975DB79386E6038A06B697FD
:101D400093F7F70F920775B790438D46631CD60043
:101D500014313C216364D6008606E9BF9386C6072A
:101D60008606F1BF94439147E39EF6F81C31BDB758
:101D7000938707064DB7B7160240DC424177130739
:101D8000F77FF98F5D8DC8C28280EFE26FB13717A0
:101D900002405C4391462A84B18B6385D700A146FB
:101DA000638DD706B7376E01938707601CC0B716DF
:101DB0000240DC42918313F7F700B70700209387B6
:101DC0008702BA978C23DC42184093F5F50F93F7FE
:101DD00007083355B70081E73A85EFE0AFAF48C059
:101DE00008C448C4B7170240DC43AD83FD8B13D74A
:101DF00037008A07F18BD98F93F637010D4763734C
:101E0000D700D1173707002013074701BA978C2353
:101E1000EFE04FAC08C86FE04FA95C43B777DC0236
:101E2000938707C061B799C5371702401C4F5D8D76
:101E300008CF8280B7170240984F1345F5FF798D80
:101E400088CF828099C5371702405C4F5D8D48CF9F
:101E50008280B7170240D84F1345F5FF798DC8CF60
:101E6000828099C5371702405C475D8D48C78280E4
:101E7000B7170240D8471345F5FF798DC8C7828050
:101E80001A218D6793870704B6217D8F9E21D58FF8
:101E9000D621D58FF621D58F9625D58FB625D58F0E
:101EA000D625D58FF625D58FD98F1EA19E291EA99F
:101EB00082801E2189C593E707041EA18280C20784
:101EC000C18393F7F7FBC207C183C5BF4EA58280CC
:101ED0004A2582800A256D8D3335A00082801E211F
:101EE00037370140130707C0C207C1836306E50007
:101EF000370700406316E500BA2193F7F7F8D98F4A
:101F0000FA2193F7F7CFC207C183D98F1EA1DE2133
:101F10005EB59E211EB5B7370140938707C0631495
:101F2000F5009C251EB985475EA982801E3192214D
:101F300003D32500C207C183F99BC207C1831EB129
:101F40001E3156211A2DC207C183420741831377E0
:101F5000C7F8518F9225F59BC20633666600D18F74
:101F600037360140130606C0C1826310C502B22590
:101F7000DD9B03D3E500D18FD221ED9B93F6F6CF05
:101F8000D18FD22533666600D18E56A11AADFA21C3
:101F900058D91EB182801E3165771307F7CFC2076B
:101FA000C183BD9BC207C1831EB11E31562103D31D
:101FB0008500C20713960601162DC18393F7F7FD1E
:101FC000758F96214182A206558FB6214207418323
:101FD000B3E666009206D58FB7360140C2079386F6
:101FE00006C0C183631ED502B62593F7F7F703D366
:101FF000C5009206D58FD621C207C183920693F7FA
:10200000F7FBD58FFD769386F63FF18EF225C2075A
:10201000C183336666000A06D18E1396060141829B
:1020200052A11AADFA2118DD1EB182801A31FD7756
:10203000FD17F98F1EB1035305025A215E2DE57677
:102040009386F6CFFD8E9E2113160701BA21A207B3
:10205000DD8EF977FD17B3F7670003D38500C2065D
:102060004182336767003207D98F37370140C20793
:10207000130707C0C182C183631BE50071777D1719
:10208000718FD2251A06518F131607014182FA214A
:1020900052A156AD38C11EB182801E2189C593E779
:1020A00017001EA18280C207C183F99BC207C183AA
:1020B000CDBF8357450491C52167D98F2312F504FD
:1020C0008280C607C583DDBF1E2189C593E7070847
:1020D0001EA18280C207C18393F7F7F7C207C183AD
:1020E000C5BF1E2DC207C183DD9BDD8D0EAD828075
:1020F0001A2DFD779387F77FF98FA205CD8FC20741
:10210000C1831EAD82805A2DFD779387F77FF98FAB
:10211000A205CD8FC207C1835EAD82804CD982807B
:102120000CDD82802CC18280EFD29FF71629F577D3
:10213000FD17F58FF621DA252111D58F1EA9562519
:10214000FD779387379FF58FD6212A842EC0D58FB0
:102150009625D58FB625D58F5EA55E29C207C1838A
:1021600093F7F7CF5D8F5AA94800EFF01FC2B7472A
:1021700001409387078082456312F406C2475A24C0
:10218000139517003E9542070E0541873E958C41F9
:10219000635807048605EFD0FFF3930540062AC075
:1021A000EFD05FF3824793144500930540063E85C8
:1021B000EFD01FF55E24C207C18763D507020E0565
:1021C0009305400613052503EFD0DFF01D89C98C68
:1021D000C204C18006A461016FD03FEDB24745B78C
:1021E0008A0555BF12059305400613052503EFD058
:1021F0007FEE3D89E9BF91C55E250967D98F5EA550
:1022000082805A25F977FD17F98FD5BF13F7F50F9F
:1022100085471583B395B7006319F7009307C50089
:10222000984301CED98D8CC382808946930745019E
:10223000E318D7FE93070501E5B793C5F5FFF98DC0
:10224000DDB793F5F51F4EA182804A211375F51F66
:1022500082800A216D8D3335A000828013F7F50F3F
:1022600085461583B397B6006311D7025A25F98FB7
:102270001A2101454207418381CB0545A181B31550
:10228000B5006D8F3335E000828089466314D70036
:102290001A29F1BF5A29E1BFEFD29FE0B70700200A
:1022A00003A50701B7157A0093850520EFD09FE2BB
:1022B0001375F50F2381A1A293175500898F8A0703
:1022C0003E950E052390A1A26FD03FDEEFD25FDDD9
:1022D00037F400E05C40AA85F99B5CC003D501A2FD
:1022E000EFD05FDD08C8232404001C4093E71700EB
:1022F0001CC0B7F700E0D843058B75DF9843799B86
:1023000098C36FD09FDAAA87850703C7F7FF6DFFD1
:102310003385A7407D158280000000000000FF1C6F
:102320003E3E3E1414FF081C1C3E7F7FFF60007081
:10233000007C00FF242A7F2A1200FF231308646216
:1023400000FF08141422417FFF000503000000FF76
:10235000001C22410000FF0041221C0000FF140865
:102360003E081400FF5C6202625C00FF5030000017
:102370000000FF080808080800FF00606000000077
:10238000FF201008040200FF3E5149453E00FF4077
:10239000427F404000FF426151494600FF214145D4
:1023A0004B3100FF1814127F1000FF2745454539B7
:1023B00000FF3C4A49493000FF017109050300FF55
:1023C000364949493600FF064949291E00FF0036B3
:1023D00036000000FF7E7949797E00FF0814224113
:1023E0000000FF141414141400FF0041221408000C
:1023F000FF787949797E00FF3E415D551E00FF7EE2
:102400001111117E00FF7F4949493600FF3E4141CD
:10241000412200FF7F4141221C00FF7F4949494181
:1024200000FF7F0909090100FF3E4149497A00FF89
:102430007F0808087F00FF00417F410000FF204027
:10244000413F0100FF7F0814224100FF7F404040D0
:102450004000FF7F020C027F00FF7F0408107F0016
:10246000FF3E4141413E00FF7F0909090600FF3E52
:102470004151215E00FF7F0919294600FF26494985
:10248000493200FF01017F010100FF3F4040403F12
:1024900000FF1F2040201F00FF3F4038403F00FF4B
:1024A000631408146300FF070870080700FF6151F8
:1024B00049454300FF007F41410000FF020408102E
:1024C0002000FF0041417F0000FF040201020400E0
:1024D000FF404040404000FF000003050000FF2097
:1024E0005454547800FF7F4444443800FF38444437
:1024F000444400FF384444447F00FF385454541887
:1025000000FF04047E050500FF085454543C00FFFE
:102510007F0804047800FF00447D400000FF204055
:10252000443D0000FF7F1028440000FF417F400031
:102530000000FF7C047C047800FF7C080404780021
:10254000FF384444443800FF7C1414140800FF088A
:102550001414147C00FF7C0804040000FF48545449
:10256000542400FF04043F444400FF3C4040207CCE
:1025700000FF1C2040201C00FF3C4030403C00FF7E
:10258000442810284400FF0C5050503C00FF446485
:10259000544C4400FF083641410000FF0000770022
:1025A0000000FF004141360800FF08082A1C08000F
:1025B000FF081C2A080800FFFFFFFFFFFF00FF00C5
:1025C0005B494E464F5D3A005B4552524F525D3A71
:1025D000000000005B414C4552545D3A0000000091
:1025E00000000000000000000000000000000000EB
:1025F00000000000000000000000000000000000DB
:1026000000000000000000000000000000000000CA
:1026100000000000000000000000000000000000BA
:1026200000000000000000000000000000000000AA
:10263000000000000000000000000000000000009A
:10264000000000000000000000000000000000008A
:10265000000000000000000000000000000000007A
:10266000000000000000000000000000000000006A
:10267000000000000000000000000000000000005A
:10268000000000000000000000000000000000004A
:10269000000000000000000000000000000000003A
:1026A000000000000000000000000000000000002A
:1026B000000000000000000000000000000000001A
:1026C000000000000000000000000000000000000A
:1026D00000000000000000000000000000000000FA
:1026E000000000000000000060E0F0F8F8F8FCFCDA
:1026F000FCFCFCFCF8F8F8F0F0E0C080E0E0F0F85A
:10270000F8F8FCFC7C7CFCFCFCF8F8F0F0E0C08005
:102710000000000000000000000080C0E0E07070D9
:102720007060E0400000000000C0E0E0E0C0000099
:10273000000000E0E0E060606060E0E0800000E059
:10274000E0000000000000E0E0E00000E0E0E06009
:102750006060606060000000000000000000000099
:102760000000000000000000000001030301000061
:10277000000000000101030FFFFFFFFFFFFFEFE775
:10278000E1E1E0E0E0E0E0E0E0E1E3E7FFFFFFFFC0
:10279000FFFCE00000000000000E3F7FE1C0C0C071
:1027A000C0C0E0C00080E0FC7F7F6361677FFEF80F
:1027B000C00000FFFFFF1C1C1C1C0F0F0700003F88
:1027C000FFE0C0C0C0C0E0FF7F1F0000FFFFFF0CA4
:1027D0000C0C0C0C0C0000000000000000000000BD
:1027E0000000000000000080C0E0F0E0C0C0808079
:1027F000808080C0C0E0E0F0FFFFFFFFFFFFFBE351
:10280000C3C3838383838383D3F3F3F3F3F3F3F3B8
:1028100073130100000000000000F0D090909111AF
:1028200001C1C04060C1C16160C00000F84060618A
:10283000C18000C1C16160C00000C0406040F0F0D4
:102840000080C16141C1F80000C06060C1C1018069
:10285000C0606040F80000000000000000000000C0
:1028600000000000000000010307070F0F0F1F1FEB
:102870001F1F1F0F0F0F07070301000103030707A7
:102880000F0F0F0F0F0F0F0F0F0F07070F0F030083
:10289000000000000000000000000705040404041C
:1028A00000070700000700000007000007040C0CE9
:1028B00007030007070D0D05010007040C040707B7
:1028C0000003060C040607000107050D05050003BB
:1028D000070C0C04070000000000000000000000CE
:1028E00000000000000000000000000000000000E8
:1028F00000000000000000000000000000000000D8
:1029000000000000000000000000000000000000C7
:1029100000000000000000000000000000000000B7
:1029200000000000000000000000000000000000A7
:102930000000000000000000000000000000000097
:102940000000000000000000000000000000000087
:102950000000000000000000000000000000000077
:102960000000000000000000000000000000000067
:102970000000000000000000000000000000000057
:102980000000000000000000000000000000000047
:102990000000000000000000000000000000000037
:1029A0000000000000000000000000000000000027
:1029B0000000000000000000000000000000000017
:1029C0000000000000000000000000000000000007
:1029D00000000000000000000000000000000000F7
:1029E0000D0A0D0A000000004348333256303033E0
:1029F00020444556204B495420312E300D0A00000A
:102A0000444556454C4F5045442042593A20434195
:102A100050554620454D4245444445440D0A00006A
:102A2000554152543A203131353230302D312D6EEE
:102A30000D0A0000504F5745522055502042454541
:102A4000500D0A004F4C454420434F4E4649472005
:102A5000444F4E450D0A000041444320434F4E462B
:102A6000494720444F4E450D0A000000524742207E
:102A70004C454420434F4E46494720444F4E450D58
:102A80000A00000053595354454D20434F4E4649C8
:102A90004720434F4D504C4554450D0A000000005F
:102AA0002020434833325630303320444556204BA3
:102AB0004954000020202020444556454C4F5045A5
:102AC0004420425900000000202020434150554638
:102AD00020454D424544444544000000202020202C
:102AE0005757572E43415055462E494E000000007F
:102AF000524742204C4544205445535420434F4CA8
:102B00004F520D0A00000000464C415348204944F2
:102B1000205245414420535543434553530D0A0029
:102B2000535049204441544120524541443E000005
:102B3000454E544552494E472053555045524C4FEF
:102B40004F500D0A000000004348333256303033F6
:102B500020444556204B4954000000004D45415348
:102B6000555245205426480D0A00000048554D494D
:102B7000444954593A2000002E00000020255248B4
:102B80000D0A0000202552482020200054454D50B9
:102B9000455241545552453A200000002044656793
:102BA00020430D0A0000000043000000504F542055
:102BB000564F4C544147453A200000006D560000E6
:102BC0006D560D0A000000004C454420424C494E11
:102BD0004B0D0A0055415254204441544120524566
:102BE000434549564544203A290D0A00464C415375
:102BF00048204441544120575249544520444F4EA7
:042C0000450D0A0074
:102C04000102030405060708010203040506070878
:102C1400006CDC020204060804080C1008101820DA
:102C2400102030402040608001020304050607089C
:082C3400010203040506070874
:00000001FF
