:100000006F10407100000000580900005C090000FA
:1000100000000000000000000000000000000000E0
:1000200000000000000000000000000000000000D0
:10003000E216000000000000E416000000000000CE
:10004000E6160000E8160000EA160000EC160000B4
:100050001C110000F0160000F2160000F41600005B
:10006000F6160000F8160000FA160000FC16000054
:10007000FE1600007C1500000217000004170000A7
:1000800024150000081700000A1700000C170000D4
:100090000E170000101700001217000000000000EB
:1000A000511126C022C206C4828282441244A24058
:1000B000310182802A86014593F6150091C232955E
:1000C00085810606F5F9828000000000634E050276
:1000D00063C305042E86AA857D5515C285466378BF
:1000E000B6006356C00006068606E36CB6FE014500
:1000F00063E4C500918D558D85820582F5FA828075
:100100008682C93F2E8582823305A04063D70500D1
:10011000B305B040C1B7B305B0408682653F330533
:10012000A0408282868263C70500634905005D376F
:100130002E858282B305B040E35B05FE3305A04007
:10014000513F3305B040828200003D432A876373EC
:10015000C3029377F700BDEFADE5937606FF3D8AC6
:10016000BA960CC34CC30CC74CC74107E36BD7FE10
:1001700011E28280B306C3408A0697020000969679
:100180006780A6002307B700A306B7002306B700C1
:10019000A305B7002305B700A304B7002304B700E5
:1001A000A303B7002303B700A302B7002302B700DD
:1001B000A301B7002301B700A300B7002300B700D5
:1001C000828093F5F50F93968500D58D9396050162
:1001D000D58D61B793962700970200009696868288
:1001E000E78086FA9680C1171D8F3E96E374C3F8A8
:1001F000A5B7EFF2FFEAB75700402A84AE84138711
:1002000007403A85B7050200EF10D026B7570040E7
:10021000138707407DF585453A85EF10901DB70798
:100220000300850737570040BE8513050740EF10D0
:100230001023B707030037570040850765D593158E
:100240001400014693F5E50F130507403704070036
:10025000EF10D01F13042408B75700401385074040
:10026000A285EF10D01FB75700407DD5814513857B
:10027000074037040700EF10B01C13044408B757B9
:10028000004013850740A285EF10701DB75700404E
:100290007DD5A6851385074037040700EF10501A57
:1002A00013044408B7540040A28513850440EF109E
:1002B000101B6DD9854513850440EF103015F5B33B
:1002C000EFF21FDE0111694681454800BD3DB717B9
:1002D000B0C8938707023EC0C147DC82E1779387AD
:1002E00007147C83B7A7A6A89387F71F3EC4E977B6
:1002F0009387F7437C86930730FD5C87B7F7D92255
:100300009387570D3EC8B717DB209387A72D3ECAAA
:1003100085679387D748FC849307F0FA230DF10093
:100320000144B30781008C231305C0030504D135B4
:10033000F147E318F4FE05618DBBEFF27FD693051C
:1003400005FB93F5F50F1305C0036535B9BBEFF257
:100350003FD52A849375F5001305C003593D935585
:100360004400C1051305C003693581B3EFF25FD3C3
:1003700071112EC03284B684C93782452E85C13FA3
:10038000B7570040138707403A85B7050200EF10C2
:10039000700EB7570040138707407DF585453A85B5
:1003A000EF103005B7070300850737570040BE85BB
:1003B00013050740EF10B00AB70703003757004096
:1003C000850765D501469305800713050740EF10A3
:1003D000F007B70707009387270837570040BE8507
:1003E00013050740EF10B007B70707003757004065
:1003F000938727087DD19305000413050740EF106C
:100400003004B70707009387470837550040BE857B
:1004100013050540EF10B004B7070700938747089E
:100420006DD513163400018E896793878729B2949E
:100430003384C700BE94631B940037550040854544
:1004400013050540EF10807C110185B1834504F24E
:100450003755004013050540EF10807EB7070700B1
:100460009387470837550040BE8513050540EF10B8
:10047000007FB7070700938747086DD5050465BF60
:10048000EFF21FC261112A87AE84B287368419E069
:10049000210121B903860700A6853A8599463EC207
:1004A0003AC0E935924799047D1493F4F40F850717
:1004B0001374F40F0247E1BFEFF29FBE6111B7570B
:1004C00000402A84AE8432C036C2138707403A8582
:1004D000B7050200EF10007AB757004013870740B6
:1004E0007DF585453A85EF10C070B7070300850795
:1004F00037570040BE8513050740EF104076B70719
:10050000030037570040850765D593151400014651
:1005100093F5E50F1305074037040700EF1000734C
:1005200013042408B757004013850740A285EF1035
:100530000073B75700407DD5A68513850740370463
:100540000700EF10E06F1304440837550040A28500
:1005500013050540EF10A0706DD901449247636BFD
:10056000F40037550040854513050540EF10006A3B
:10057000210125BE82473755004013050540A2974B
:100580008C23B704070093844408EF10606B375541
:100590000040A68513050540EF10606C6DD9050479
:1005A0001374F40F65BFEFF2BFAF19712A841306FD
:1005B000000881450A85513E814713070008B306AC
:1005C000F10080A28507E39CE7FE1304000BA285DF
:1005D0001305C003393981451305C0031939C145D5
:1005E0001305C0033931930600080A8693050004F9
:1005F0001305C003D13505041374F40F9307800B62
:10060000E317F4FC096155B4EFF29FA91305F00F4D
:10061000593F13054006EF1050433D456937130518
:10062000A00FEF1090421305000FB53F1305A00F68
:10063000EF10B0410145853F8DBCEFF27FA67111EF
:100640003754004002C093040440B70502002685D9
:10065000EF1040627DF9130504408545370403001F
:10066000EF1020590504B7540040A28513850440BB
:10067000EF10E05E6DD90146930500071385044035
:1006800037040700EF10805C13042408B7540040BF
:10069000A28513850440EF10805C6DD99305A00BF3
:1006A0001385044037040700EF10805913044408F1
:1006B000B7540040A28513850440EF10405A6DD90D
:1006C000854513850440EF10605413054006EF1074
:1006D000D0378A85054613058003EF009013030584
:1006E00001001101D9B2EFF2BF9B711137540040E4
:1006F00002C093040440B70502002685EF1080571E
:100700007DF913050440854537040300EF10604E62
:100710000504B7540040A28513850440EF1020540F
:100720006DD901469305000713850440370407007F
:10073000EF10C05113042408B7540040A28513855C
:100740000440EF10C0516DD99305E00B13850440B0
:1007500037040700EF10C04E13044408B75400409C
:10076000A28513850440EF10804F6DD9A1451385F4
:10077000044037040700EF10A04C13044408B7549A
:100780000040A28513850440EF10604D6DD981456E
:100790001385044037040700EF10804A130444080F
:1007A000B7540040A28513850440EF10404B6DD92B
:1007B000854513850440EF10604513054006EF1092
:1007C000D0288A85054613058003EF009004088031
:1007D00011016FF09F8DEFF2BF8C71113754004003
:1007E00002C093040440B70502002685EF1080483C
:1007F0007DF913050440854537040300EF10603F81
:100800000504B7540040A28513850440EF1020452D
:100810006DD901469305000713850440370407008E
:10082000EF10C04213042408B7540040A28513857A
:100830000440EF10C0426DD99305C00A13850440EF
:1008400037040700EF10C03F13044408B7540040BA
:10085000A28513850440EF1080406DD993053003C5
:100860001385044037040700EF10803D130444084B
:10087000B7540040A28513850440EF10403E6DD967
:1008800081451385044037040700EF10603B1304D3
:100890004408B7540040A28513850440EF10203C63
:1008A0006DD9854513850440EF1040361305400689
:1008B000EF10B0198A85054613058003EF006075B7
:1008C000088011016FF06FFEEFF28FFD51112A8445
:1008D000AE8405468A851305800302C002C2231434
:1008E0000100EF0000731C80A18B99E3B933E53B55
:1008F000DD35058919E51D468A8513058003EF005E
:1009000040711C819880A207D98F13978700A1831B
:10091000D98F9881C207C183920793564700DD8E15
:1009200093975600958F8A07B6978E07D1839CC000
:100930001C823D8B22075D8F9C8222075D8F93175F
:100940005700998F8A07BA979207D1839387C7E098
:100950001CC031016FF06FF57300203001A0EFF281
:100960002FF4AA840565130141FD2E841305058328
:10097000854532C002C802CA02CC02CE02D002D2E1
:1009800002D402C202C423160100EF10804785453D
:100990000545EF10E048B147FC8037150140E147BD
:1009A0003ECC0C088D47130505403ECAEF10C0042D
:1009B000C1470C0837150140FC80EF10E00360824E
:1009C000373401404C00130504C064842315010032
:1009D00023130100EF1080484C0037050040EF1052
:1009E000E0470246C167938707076C08130504C0F8
:1009F0003ECE2311C10223120102EF10004B6C08FE
:100A0000130504C0EF10605A6C0837050040EF1062
:100A10006050130504C08545EF108061130504C0C4
:100A20008145EF10E063130504C08145EF10806538
:100A3000130504C08545EF100061130504C085450A
:100A4000EF10805D854537050040EF10605E814501
:100A500037050040EF10A061854537050040EF10D5
:100A6000805E854537050040EF10005B1301C10231
:100A70006FF0AFE3EFF2CFE29377F50F2A8413958F
:100A800057001D8D0A053E959305F00F0E05EFF0FA
:100A90006FE493150501C18137050040EF10206018
:100AA000135584009377F50F139557001D8D0A0594
:100AB0003E959305F00F0E05EFF0CFE1B7340140FE
:100AC00093150501C181138504C041801374F40F8F
:100AD000EF10205D13155400018D0A052295930532
:100AE000F00F0E05EFF00FDF93150501C18113859F
:100AF00004C0EF10805A6FF04FDBEFF26FDA37145B
:100B00000140854513050440EF00707C1305200368
:100B1000EF10A073854513050440EF00907B13058B
:100B20002003EF108072854513050440EF00307AF2
:100B300013052003EF106071854513050440EF0095
:100B4000507913052003EF104070854513050440CC
:100B5000EF00F0771305401FEF10206F6FF0EFD418
:100B6000EFF20FD4854537150140EF00507613059D
:100B7000A00FEF10806D854537150140EF007075AF
:100B80001305A00FEF10606C854537150140EF008D
:100B9000107413052003EF10406B85453715014095
:100BA000EF00307313052003EF10206A85453715D9
:100BB0000140EF00D07113052003EF100069854557
:100BC00037150140EF00F07013052003EF10E067C8
:100BD0006FF0AFCDEFF2CFCC130141FD61468145FF
:100BE0004808EFF08FD685451305000202C402C6FF
:100BF00002C802C002C2EF10C020854513050020C4
:100C0000EF1020203165EF10C01437150140C147A7
:100C10002C0013050540372401407C8402C8EF00F6
:100C2000B05D13050440EF0030379D673ED04C089F
:100C30008547130504402304F10202CA02CC02CE08
:100C400002D2EF00D037854513050440EF00104B6A
:100C50009D4605469D4513050440EF0090428145A1
:100C600013050440EF00303F9307D0217C800A85B4
:100C700085473EC223010100EF104003B705000283
:100C800013050440EF00F04C05469305004813059A
:100C90000440EF00B038854513050440EF001037DD
:100CA00013050440EF00F038930404402685EF005C
:100CB000F0386DFD1305044037240140EF009038F3
:100CC000130404402285EF0090386DFD1301C1022A
:100CD0006FF0AFBDEFF2CFBC41118545114502C2A7
:100CE00002C402C6EF10E01185454145EF106011C6
:100CF000854513050002EF10C010B71701404144AD
:100D00008D440547138507404C0078823AC022C6BF
:100D100026C4EF00704E02474C0037150140788220
:100D200022C626C4EF00504DB71701401147138566
:100D300007404C00788222C626C4EF00F04B4C00DE
:100D400037150140608222C626C4EF00F04AB7176B
:100D5000014021474C0013850740788222C626C4F3
:100D6000EF00904941016FF04FB4EFF26FB3130100
:100D7000C1FD85451545B714014002C402C602C82D
:100D800002CA02CC02CE02D002C002C2EF1060073B
:100D9000114489472C00138504807C8422C8EF000D
:100DA000B0452C0013850480608422C8EF00D04435
:100DB00085450145EF003052894785443ECA4808C1
:100DC000B1473ECE26D002CCEF00F039894501452F
:100DD000EF007050B147480822CA3ECE26D002CC60
:100DE000EF007038D1470A857C8026C223010100BC
:100DF000EF00D06B130141026FF02FABEFF24FAA5F
:100E000011651301C1FD85451305050202C402C623
:100E100002C802CA02CC02CE02D002C002C2EF0057
:100E2000507E930700027C84371401408D473EC6F4
:100E30002C00E147130504403EC8EF00F03B930748
:100E400000047C842C009147130504403EC8EF0049
:100E5000B03AF16737440140938707203ECA4C08F7
:100E6000B7070C00130504803ECE02CC231001020C
:100E7000EF10602305469305505213050480EF10D0
:100E8000C030930700127C8085475C810A858547C6
:100E90003EC2EF00B061854513050480EF10802D40
:100EA000130141026FF06FA0EFF28F9F7111AA84BE
:100EB000EF10403D93170501C1833EC001448247B6
:100EC000131704014183637BF70237470140930600
:100ED0000780368593050008EF10802FB747014043
:100EE00093860780374701406DD5B38684008C22F6
:100EF000130507800504EF10A02CD1B711016FF086
:100F0000CF9AEFF2EF9985472E84631BF5003725C2
:100F1000000013050554493F228579376FF0EF989B
:100F20008D476317F5003725000013058554E5B795
:100F30008947E313F5FE3725000013054555E1BF4A
:100F4000EFF20F962A84B304B50063069402B74704
:100F50000140138707803A8593050008EF1040276A
:100F6000B7470140138707807DD50C203A850504DB
:100F7000EF100025D9BF6FF04F93EFF26F9213017E
:100F8000C1FD2AC22EC04545854502C402C602C81D
:100F900002CA02CC02CE02D0EF00B066854537050A
:100FA0002000EF00F0679146F1440D442C00371506
:100FB0000140748426C822C6EF00102489462C0004
:100FC00037150140748426C822C6EF00F0228247FC
:100FD000124737540040FC86930700403ACAFC870A
:100FE0003707FFBF91674C08130504403ACC231024
:100FF000F102EF007030130504408545EF00F03D2D
:10100000854513050440EF001042130141026FF0C3
:10101000CF89EFF2EF8871112AC037550040AE84B6
:101020001305054085453284EF00B03CB707030047
:10103000850737570040BE8513050740EF00304253
:10104000B707030037570040850765D58247054637
:10105000130507409395170093F5E50FEF00103F38
:10106000B7070300890737570040BE8513050740BF
:10107000EF00F03EB707030037570040890765D5FA
:10108000854513050740EF00103A19E83755004031
:10109000854513050540EF00703711016FF0EF80B3
:1010A00085476319F4003755004081451305054015
:1010B000EF007037B7570040B705001013850740A1
:1010C00093850504EF00103BB75700405DDD1385A5
:1010D00007407D14EF001037420488A0418085044A
:1010E0006DB7EFE2FFFB7111AA84AE873384C500B0
:1010F0006395870011016FE05FFBA94526853EC01F
:10110000EFF00F8013050503A30FA4FEA945268564
:10111000EFE05FFCAA847D148247D9BF0945EF0048
:10112000300B19C505470945A388E182EF00300C53
:101130001145EF00F00919C5054711452389E182E2
:10114000EF00F00A73002030EFE29FF50945EF0051
:1011500090350523EF10200CEFF0DFB7EFF0FFC064
:1011600071396165930540041305056A3935EFF05F
:101170002F95EFF03FA6EFF0BF9E37250000130537
:1011800005561D33B7250000938585560545953BCB
:10119000B7250000938585570545A533B725000081
:1011A000938505590545B13BB72500009385055B3F
:1011B0000545813B1305401FEF102009EFF0CFC418
:1011C000B72500009385455C0545253B2945EF1073
:1011D000C00737250140854513050540EF00E0684D
:1011E000B72500009385855D0545213B01469305A4
:1011F000F0021305703EEFF08FF63704000113057F
:10120000F4FFEFF03F87B72500009385C55E0545E5
:10121000CD39B7250000938545600545DD3137267A
:101220000000C9461306066281450945EFF04FA547
:1012300037260000C1461306466381450D45EFF091
:101240002FA437260000C546130686648145114544
:10125000EFF00FA337260000C1461306C66581458F
:101260001545EFF0EFA11305007DEF00107EB725C7
:101270000000938505670545693141657D15EFF0EF
:101280006FFF1305401FEF00507C3705FF0013056B
:10129000F50FEFF02FFE1305401FEF00107B130535
:1012A00004F0EFF02FFD1305401FEF00107A130537
:1012B000F4FFEFF02FFC0145EFF0EFAEB725000093
:1012C000938585680545EFF0DFC3B7270000C14669
:1012D0001386076A81450145EFF08F9AB725000014
:1012E0009385456B0545EFF0DFC1B7050020938579
:1012F000850313854183EFF02FDDB70700201387A7
:10130000870308430D4693850184E13B372600009F
:101310009305466C0545EFF0DFBE894513850184D2
:10132000EFF01FC2B72700001385076D9384018477
:10133000EFF09FB7890485452685EFF07FC03725FC
:1013400000001305456DEFF03FB637260000A946B3
:101350001306466C81450945EFF08F928946138646
:1013600001849305C0030945EFF08F91B727000072
:101370001386076D8546930580040945EFF04F906D
:10138000268685469305E0040945EFF06F8F3726E2
:1013900000009D461306C66D930540050945EFF014
:1013A0002F8E9387418388430D4693850184153B97
:1013B000372600009305466E0545EFF09FB489453A
:1013C00013850184EFF0DFB7B72700001385076DA1
:1013D000EFF09FAD85452685EFF09FB637250000DD
:1013E0001305456FEFF05FAC37260000B5461306D6
:1013F000466E81451145EFF0AF888946138601841A
:101400009305E0041145EFF0AF87B727000013867E
:10141000076D85469305A0051145EFF06F8626867A
:101420008546930500061145EFF08F8537260000AD
:10143000854613060670930560061145EFF04F844C
:1014400093878183942305479384C183639DE60238
:10145000B726014013850640D1455D2913172500A5
:101460003A9513176500930540063A95EFE09FC63D
:10147000B726014088C09387818385451385064040
:1014800023800700DD268840938501841146EFF014
:101490005FC5B7240000B5461386447081451945E1
:1014A000EFE01FFE1386018491469305E004194581
:1014B000EFE01FFD372600008946130646719305AD
:1014C00060061945EFE0DFFB938544700545EFF0BA
:1014D0005FA3914513850184EFF09FA63725000097
:1014E00013058571EFF05F9C13054006EF00F05582
:1014F000B7250000938505720545EFF09FA0138482
:101500000183EFF08FDF1C2093F7F70FE38F07DAEB
:10151000B72500009385C5720545EFF09F9E230017
:10152000040065B3711122C0374401409305505245
:1015300013050480EF00704A15CD13050480EF00F9
:10154000B0489387F18298239376F70F138716009C
:101550001377F70F98A3370700201307C7033697B1
:1015600008A39823914663F7E60023800700054708
:101570002388E1820244110173002030711122C0DE
:10158000372401409305004813050440452685474C
:10159000631FF500238CA182D145130504408D2ED5
:1015A00023AEA1829305004813050440712E024426
:1015B000110173002030B71702409843B706FFFCB3
:1015C0001367170098C3D843758FD8C39843B706DD
:1015D000F7FEFD16758F98C39843B706FCFFFD16FE
:1015E000758F98C3D843C176FD16758FD8C337075A
:1015F0009F0098C7984F1367070298CF371701408D
:1016000003260740930507401376F6F02320C740D2
:1016100003260740136606082320C740094798C9D8
:10162000372702401043719A10C310431366160007
:1016300010C3D843D8C3D843F98ED4C3D843B70610
:101640000001D8C39843558F98C3984393166700F9
:10165000E3DD06FED843B7160240719BD8C3D843DA
:1016600013672700D8C32147DC42B18BE39EE7FE16
:101670008280EFE2FFA2371702405C43370400206C
:101680009146B18B130404016385D700A1466382A0
:10169000D704B7376E01938707601CC0B7160240A6
:1016A000DC420840918313F7F700B70700209387C7
:1016B0000700BA978C23DC4293F5F50F93F70708E0
:1016C0003357B50081E7EFE0FFA02A8718C06FE02D
:1016D000DF9D5C43B777DC02938707C07DBF01A025
:1016E00001A001A001A001A001A001A001A001A0F2
:1016F00001A001A001A001A001A001A001A001A0E2
:1017000001A001A001A001A001A001A001A001A0D1
:1017100001A001A097F1FF1F93814112138181FC69
:10172000171500001305450297F5FF1F9385858D5A
:1017300017F6FF1F1306869063FAC5008322050083
:1017400023A0550011059105E3EAC5FE17F5FF1F1B
:101750001305C58E9385C1846377B50023200500EA
:101760001105E36DB5FE93020008739002308D42BF
:101770007390428097F2FFFF9382C28893E2320017
:1017800073905230EFF03FE3970200009382029C87
:101790007390123473002030B727014093870740BD
:1017A000631EF500EFE2DF8F854513050020412D14
:1017B00081451305002061256FE03F8F82805C41E9
:1017C0003707F1FF1307F7EF7D8FDC419441A20744
:1017D000D58FD98F5CC11C4537F7F1FF1307D77F31
:1017E000D4457D8F9C49D58F94458606D58FD98F5A
:1017F0001CC55C55370710FF7D177D8FDC29FD1751
:1018000093F7F70FD207D98F5CD582801C4589C525
:1018100093E717001CC58280F99BEDBF5C4193F5EF
:10182000F50F01C6DD8D4CC1828093C5F5FFFD8D9E
:10183000DDBF1C4593E787001CC5828008450D81EC
:10184000058982801C4593E747001CC582800845B6
:101850000981058982801C4589C52167D98F1CC5EE
:10186000828061777D17F98FDDBF1C4591C5378771
:101870002000D98F1CC582803787DFFF7D17F98F45
:10188000D5BFA54763FBB704138765FF9317170000
:101890008322C500BA971D433313F3001343F3FFAC
:1018A00033735300B397F600B3E767005CC5185D68
:1018B0000906935747018D8B1D8E1376F60F9317EC
:1018C00026003E96FD47B397C70093C7F7FFF98FF1
:1018D000B395C500DD8D0CDD828093971500032341
:1018E0000501AE971D473317F7001347F7FF33770E
:1018F0006700B397F6005D8F18C955BF1C5D3707A9
:10190000D0FF7D17FD15F98FD205DD8D0CDD8280AE
:10191000711102C02AC0824793878702BE952EC0EC
:101920008247884311014205418182805841144118
:1019300093D78500F58F99C713F5F50F798D33355A
:10194000A000828001458280A18193C5F5FF0CC172
:1019500082805C41370700FA7D17F98F5CC15C41DA
:10196000DD8D4CC182805841032305004C4537066C
:101970000140930706403E979346F3FFB1C5832588
:101980000640F58D2320B640D043F18ED4C31443D6
:10199000B3E6660014C3184190479346F7FF758E6F
:1019A00090C7D047F18ED4C7144541466399C6000D
:1019B0009447D98E94C7D447558FD8C78280B6979D
:1019C0009443558F98C382801C43F58F1CC382803B
:1019D000B70701401387074083A70740584B698F1B
:1019E00009C77D8D3335A000828001458280B7070D
:1019F000014023AAA74082809C45611122C226C0D3
:101A000013F7070113F3F70001C7D8413363E3006D
:101A100092211377F60F29C783230500014713048A
:101A20008002930480048546B395E600B376B60041
:101A30006392D50293122700BD46B396560093C613
:101A4000F6FFB3F37600B3125300B3E3720063976B
:101A500087064CC90507A146E317D7FC232075006C
:101A60001307F00F6378C70483234500A1461304CE
:101A70008002930480040547B312D70033775600E1
:101A80006394E202139726000117BD45B395E50064
:101A900093C5F5FFB3F375003317E300B363770025
:101AA00063928702232A550085064147E395E6FCA9
:101AB000232275001244824421018280E39C97F81E
:101AC0000CC949BFE39297FE23285500F1BF0CC90A
:101AD00082804CC9828037070140144786058D47B4
:101AE000B397B70093C7F7FFF58F1CC71C47B31513
:101AF000B500DD8D0CC78280EFE28FDA111146212F
:101B00002A8428002EC08524C246C204C18093F4D2
:101B100004FCB7450F00938505243685C20436C200
:101B2000C180EFE02FDB458D420541814AA01E2098
:101B30009246C207C183F99BC207C1831EA0824798
:101B40009043E1679387076A9315160063E6C7041D
:101B50003685EFE02FD8AA8742054181914663730D
:101B6000D50091471395070141814AAC1E200247D9
:101B700093E717001EA01E2056233227C207C183F9
:101B8000D18E93F757BFD58F1EA016275E27D58F0E
:101B90001EA471016FE06FD18247EA23B167FD1780
:101BA0006310F502B2953685EFE0CFD24205418150
:101BB0009317450199E313651500A1675D8D75B70E
:101BC000B387C5008E07B385C7003685EFE08FD099
:101BD0004205418191675D8DE1BF1E2189C593E773
:101BE00017001EA18280C207C183F99BC207C1836F
:101BF000CDBF1E2189C593E707101EA18280C207B1
:101C0000C18393F7F7EFC207C183C5BF1E2189C502
:101C100093E707201EA18280C207C18393F7F7DFF5
:101C2000C207C183C5BF1E2189C593E707401EA116
:101C30008280C207C18393F7F7BFC207C183C5BFC4
:101C40000EA982800A291375F50F828093F7E50F9C
:101C500019C293E71500C207C1831EA982805E29BD
:101C60000A2D42055D8D6D8D220521810D8D133567
:101C700015008280611102C002C293D7C5012AC239
:101C80003EC08247A205A18199CB9247D1073EC2AF
:101C90009247884321016D8D3335A00082809247A1
:101CA000C181E107EDB723A2A1848280938741849B
:101CB0009443182181E63C21920721A894430546CC
:101CC000639FC6023C21103192076314D60093E74C
:101CD00007F8B7E600E093F7F70FBA962380F640CF
:101CE0008546935757003397E6005441A5C2938722
:101CF00007048A07B7E600E0B69798C382808C4352
:101D000089466391D50214313C216365D6008A0669
:101D1000B6975DB79386E6038A06B69793F7F70FF3
:101D2000920775B790438D46631CD60014313C2151
:101D30006364D6008606E9BF9386C6078606F1BFB0
:101D400094439147E39EF6F81C31BDB7938707068D
:101D50004DB7B7160240DC4241771307F77FF98F82
:101D60005D8DC8C28280EFE2AFB3371702405C439B
:101D700091462A84B18B6385D700A146638DD7062F
:101D8000B7376E01938707601CC0B7160240DC426C
:101D9000918313F7F700B707002093878702BA975C
:101DA0008C23DC42184093F5F50F93F70708335561
:101DB000B70081E73A85EFE0EFB148C008C448C4F6
:101DC000B7170240DC43AD83FD8B13D737008A077A
:101DD000F18BD98F93F637010D476373D700D11775
:101DE0003707002013074701BA978C23EFE08FAE27
:101DF00008C86FE08FAB5C43B777DC02938707C0FE
:101E000061B799C5371702401C4F5D8D08CF82809E
:101E1000B7170240984F1345F5FF798D88CF828020
:101E200099C5371702405C4F5D8D48CF8280B71748
:101E30000240D84F1345F5FF798DC8CF828099C5F0
:101E4000371702405C475D8D48C78280B717024054
:101E5000D8471345F5FF798DC8C782801E213737D3
:101E60000140130707C0C207C1836306E5003707B7
:101E700000406316E500BA2193F7F7F8D98FFA21ED
:101E800093F7F7CFC207C183D98F1EA1DE215EB5BC
:101E90009E211EB5B7370140938707C06314F50034
:101EA0009C251EB985475EA982801E31922103D3ED
:101EB0002500C207C183F99BC207C1831EB11E3131
:101EC00056211A2DC207C183420741831377C7F8F1
:101ED000518F9225F59BC20633666600D18F373647
:101EE0000140130606C0C1826310C502B225DD9B06
:101EF00003D3E500D18FD221ED9B93F6F6CFD18F9E
:101F0000D22533666600D18E56A11AADFA2158D972
:101F10001EB182801E3165771307F7CFC207C183D8
:101F2000BD9BC207C1831EB11E31562103D385005C
:101F3000C20713960601162DC18393F7F7FD758F1F
:101F400096214182A206558FB62142074183B3E60E
:101F500066009206D58FB7360140C207938606C049
:101F6000C183631ED502B62593F7F7F703D3C500E7
:101F70009206D58FD621C207C183920693F7F7FB4D
:101F8000D58FFD769386F63FF18EF225C207C18389
:101F9000336666000A06D18E13960601418252A16D
:101FA0001AADFA2118DD1EB182801A31FD77FD17B6
:101FB000F98F1EB1035305025A215E2DE5769386F3
:101FC000F6CFFD8E9E2113160701BA21A207DD8EE2
:101FD000F977FD17B3F7670003D38500C206418286
:101FE000336767003207D98F37370140C2071307BD
:101FF00007C0C182C183631BE50071777D17718FB4
:10200000D2251A06518F131607014182FA2152A1D7
:1020100056AD38C11EB182801E2189C593E71700D5
:102020001EA18280C207C183F99BC207C183CDBFB5
:102030008357450491C52167D98F2312F504828007
:10204000C607C583DDBF1E2189C593E707081EA10A
:102050008280C207C18393F7F7F7C207C183C5BF68
:102060001E2DC207C183DD9BDD8D0EAD82801A2D32
:10207000FD779387F77FF98FA205CD8FC207C183C4
:102080001EAD82805A2DFD779387F77FF98FA205C9
:10209000CD8FC207C1835EAD82804CD982800CDDBA
:1020A00082802CC18280EFD2BFFF1629F577FD1701
:1020B000F58FF621DA252111D58F1EA95625FD773A
:1020C0009387379FF58FD6212A842EC0D58F9625EA
:1020D000D58FB625D58F5EA55E29C207C18393F73C
:1020E000F7CF5D8F5AA94800EFF0FFC7B74701400F
:1020F0009387078082456312F406C2475A241395DA
:1021000017003E9542070E0541873E958C41635866
:1021100007048605EFD01FFC930540062AC0EFD0C8
:102120007FFB824793144500930540063E85EFD020
:102130003FFD5E24C207C18763D507020E059305E4
:10214000400613052503EFD0FFF81D89C98CC20492
:10215000C18006A461016FD05FF5B24745B78A051B
:1021600055BF12059305400613052503EFD09FF6D2
:102170003D89E9BF91C55E250967D98F5EA582803B
:102180005A25F977FD17F98FD5BF13F7F50F854756
:102190001583B395B7006319F7009307C5009843FB
:1021A00001CED98D8CC38280894693074501E318FF
:1021B000D7FE93070501E5B793C5F5FFF98DDDB7A8
:1021C00093F5F51F4EA182804A211375F51F828079
:1021D0000A216D8D3335A000828013F7F50F8546F7
:1021E0001583B397B6006311D7025A25F98F1A21C8
:1021F00001454207418381CB0545A181B315B50057
:102200006D8F3335E000828089466314D7001A2928
:10221000F1BF5A29E1BFEFD2BFE8B707002003A5FD
:102220000701B7157A0093850520EFD0BFEA137533
:10223000F50F2385A18493175500898F8A073E9552
:102240000E052394A1846FD05FE6EFD27FE537F4CB
:1022500000E05C40AA85F99B5CC003D58184EFD087
:102260007FE508C8232404001C4093E717001CC026
:10227000B7F700E0D843058B75DF9843799B98C387
:102280006FD0BFE2AA87850703C7F7FF6DFF3385CD
:10229000A7407D1582800000000000000000FF1CA8
:1022A0003E3E3E1414FF081C1C3E7F7FFF60007002
:1022B000007C00FF242A7F2A1200FF231308646297
:1022C00000FF08141422417FFF000503000000FFF7
:1022D000001C22410000FF0041221C0000FF1408E6
:1022E0003E081400FF5C6202625C00FF5030000098
:1022F0000000FF080808080800FF006060000000F8
:10230000FF201008040200FF3E5149453E00FF40F7
:10231000427F404000FF426151494600FF21414554
:102320004B3100FF1814127F1000FF274545453937
:1023300000FF3C4A49493000FF017109050300FFD5
:10234000364949493600FF064949291E00FF003633
:1023500036000000FF7E7949797E00FF0814224193
:102360000000FF141414141400FF0041221408008C
:10237000FF787949797E00FF3E415D551E00FF7E62
:102380001111117E00FF7F4949493600FF3E41414E
:10239000412200FF7F4141221C00FF7F4949494102
:1023A00000FF7F0909090100FF3E4149497A00FF0A
:1023B0007F0808087F00FF00417F410000FF2040A8
:1023C000413F0100FF7F0814224100FF7F40404051
:1023D0004000FF7F020C027F00FF7F0408107F0097
:1023E000FF3E4141413E00FF7F0909090600FF3ED3
:1023F0004151215E00FF7F0919294600FF26494906
:10240000493200FF01017F010100FF3F4040403F92
:1024100000FF1F2040201F00FF3F4038403F00FFCB
:10242000631408146300FF070870080700FF615178
:1024300049454300FF007F41410000FF02040810AE
:102440002000FF0041417F0000FF04020102040060
:10245000FF404040404000FF000003050000FF2017
:102460005454547800FF7F4444443800FF384444B7
:10247000444400FF384444447F00FF385454541807
:1024800000FF04047E050500FF085454543C00FF7F
:102490007F0804047800FF00447D400000FF2040D6
:1024A000443D0000FF7F1028440000FF417F4000B2
:1024B0000000FF7C047C047800FF7C0804047800A2
:1024C000FF384444443800FF7C1414140800FF080B
:1024D0001414147C00FF7C0804040000FF485454CA
:1024E000542400FF04043F444400FF3C4040207C4F
:1024F00000FF1C2040201C00FF3C4030403C00FFFF
:10250000442810284400FF0C5050503C00FF446405
:10251000544C4400FF083641410000FF00007700A2
:102520000000FF004141360800FF08082A1C08008F
:10253000FF081C2A080800FFFFFFFFFFFF00FF0045
:102540005B494E464F5D3A005B4552524F525D3AF1
:10255000000000005B414C4552545D3A0000000011
:102560000D0A0D0A00000000504F574552205550EB
:1025700020424545500D0A0043483332563030332F
:1025800020444556204B495420312E300D0A00007E
:10259000444556454C4F5045442042593A2043410A
:1025A00050554620454D4245444445440D0A0000DF
:1025B000554152543A203131353230302D312D6E63
:1025C0000D0A00004F4C454420434F4E46494720DA
:1025D000444F4E450D0A000041444320434F4E46B0
:1025E000494720444F4E450D0A0000005247422003
:1025F0004C454420434F4E46494720444F4E450DDD
:102600000A00000053595354454D20434F4E46494C
:102610004720434F4D504C4554450D0A00000000E3
:102620002020434833325630303320444556204B27
:102630004954000020202020444556454C4F504529
:1026400044204259000000002020204341505546BC
:1026500020454D42454444454400000020202020B0
:102660005757572E43415055462E494E0000000003
:10267000524742204C4544205445535420434F4C2C
:102680004F520D0A00000000454E544552494E4736
:102690002053555045524C4F4F500D0A000000003A
:1026A000434833325630303320444556204B49544A
:1026B000000000004D454153555245205426480D19
:1026C0000A00000048554D49444954593A20000039
:1026D0002E000000202552480D0A000020255248F7
:1026E0002020200054454D50455241545552453A02
:1026F000200000002044656720430D0A0000000010
:1027000043000000504F5420564F4C544147453A27
:10271000200000006D5600006D560D0A00000000FC
:102720004C454420424C494E4B0D0A0055415254F1
:102730002044415441205245434549564544203A9E
:04274000290D0A0055
:10274400010203040506070801020304050607083D
:10275400006CDC020204060804080C10081018209F
:102764001020304020406080010203040506070861
:08277400010203040506070839
:00000001FF
