:100000006F10007F000000009A0800009E080000AA
:1000100000000000000000000000000000000000E0
:1000200000000000000000000000000000000000D0
:10003000BE17000000000000C01700000000000014
:10004000C2170000C4170000C6170000C817000040
:100050005A100000CC170000CE170000D017000087
:10006000D2170000D4170000D6170000D8170000E0
:10007000DA17000036150000DE170000E017000058
:1000800070150000E4170000E6170000E8170000F4
:10009000EA170000EC170000EE1700000000000057
:1000A000511126C022C206C4828282441244A24058
:1000B000310182802A86014593F6150091C232955E
:1000C00085810606F5F9828000000000634E050276
:1000D00063C305042E86AA857D5515C285466378BF
:1000E000B6006356C00006068606E36CB6FE014500
:1000F00063E4C500918D558D85820582F5FA828075
:100100008682C93F2E8582823305A04063D70500D1
:10011000B305B040C1B7B305B0408682653F330533
:10012000A0408282868263C70500634905005D376F
:100130002E858282B305B040E35B05FE3305A04007
:10014000513F3305B040828200003D432A876373EC
:10015000C3029377F700BDEFADE5937606FF3D8AC6
:10016000BA960CC34CC30CC74CC74107E36BD7FE10
:1001700011E28280B306C3408A0697020000969679
:100180006780A6002307B700A306B7002306B700C1
:10019000A305B7002305B700A304B7002304B700E5
:1001A000A303B7002303B700A302B7002302B700DD
:1001B000A301B7002301B700A300B7002300B700D5
:1001C000828093F5F50F93968500D58D9396050162
:1001D000D58D61B793962700970200009696868288
:1001E000E78086FA9680C1171D8F3E96E374C3F8A8
:1001F000A5B7EFF2FFEA711102C0CC8009468A85EB
:10020000EF00006A110155B5EFF29FE9011169464F
:10021000814548001D3FB717B0C8938707023EC00D
:10022000C147DC82E177938707147C83B7A7A6A830
:100230009387F71F3EC4E9779387F7437C8693073C
:1002400030FD5C87B7F7D9229387570D3EC8B717A3
:10025000DB209387A72D3ECA85679387D748FC8408
:100260009307F0FA230DF1000144B30781008C23BA
:100270001305C0030504B53FF147E318F4FE05611B
:100280002DB5EFF2FFE1930505FB93F5F50F13058F
:10029000C003853719BDEFF2BFE02A849375F500DE
:1002A0001305C003B93793554400C1051305C003B6
:1002B0008937E5BBEFF2DFDE21119307000402C6A8
:1002C00032C236C05C862EC402C8231A0100553FD4
:1002D000A2452E85C937124682467800931736000C
:1002E0003386C74089679387C740B2970145BA856F
:1002F00085070507130615006319D50042064182DC
:100300001305C003712B61014DB303C5F7F108A3B9
:100310001375F60FF1BFEFF2BFD861112A87AE84D3
:10032000B287368419E0210149B303860700A68508
:100330003A8599463EC23AC0B53F924799047D142A
:1003400093F4F40F85071374F40F0247E1BFEFF243
:100350003FD5130141F72EC22A84B284814513068A
:100360002008280036C0D533924782465C848147F6
:1003700063ECD7008506139606012C004182228586
:1003800005231301C10815B33386F4001022780148
:100390003E978507A30EC7F693F7F70FD1BFEFF28D
:1003A0003FD019712A841306000881450A85713BE4
:1003B000814713070008B306F10080A28507E39C7C
:1003C000E7FE1304000BA2851305C0031D3581450C
:1003D0001305C003393DC1451305C003193D9306FC
:1003E00000080A86930500041305C0038D37050431
:1003F0001374F40F9307800BE317F4FC096175B1D4
:10040000EFF21FCA1305F00F593F13054006EF1016
:10041000107B3D4569371305A00FEF10507A130587
:10042000000FB53F1305A00FEF1070790145853F10
:10043000ADB9EFF2FFC6AA841304000BA285130521
:10044000C003453B81451305C0036533C145130512
:10045000C003453326869306000893050004130560
:10046000C003F53505041374F40F9307800B9384D0
:100470000408E315F4FC15B9EFF29FC2611193076C
:10048000A0FB4C0002C20946130580035C8202C037
:10049000012913054006EF1090728A850546130561
:1004A0008003F92103050100210101B1EFF25FBFD3
:1004B000611185679387E78B4C000D461305800318
:1004C0007C8202C023130100E12E13054006EF10C9
:1004D000106F8A850546130580035929088021017C
:1004E000E9B6EFF2FFBB61118D679387C73A4C0005
:1004F0000D46130580037C8202C0231301004D26A4
:1005000013054006EF10B06B8A850546130580037E
:1005100085210880210151BEEFF29FB851112A8434
:10052000AE8405468A851305800302C002C22314E7
:1005300001003D291C80A18B99E33D3F853F553744
:10054000058911E51D468A851305800315211C8147
:100550009880A207D98F13978700A183D98F98819C
:10056000C207C183920793564700DD8E93975600CA
:10057000958F8A07B6978E07D1839CC01C823D8BCE
:1005800022075D8F9C8222075D8F93175700998FFA
:100590008A07BA979207D1839387C7E01CC03101BD
:1005A00029B6EFF2FFAF11651301C1FD85451305B3
:1005B000050202C402C602C802CA02CC02CE02D0A0
:1005C00002C002C2EF10B011930700027C843714FE
:1005D00001408D473EC62C00E147130504403EC84C
:1005E000EF10404F930700047C842C0091471305C3
:1005F00004403EC8EF10004EF16737440140938736
:1006000007203ECA4C08B7070C00130504803ECEF5
:1006100002CC23100102EF10B03C05469305505266
:1006200013050480EF10104A930700127C80854761
:100630005C810A8585473EC2EF100075854513052C
:100640000480EF10D0461301410285B4EFF25FA59C
:100650007111AA84EF10505A93170501C1833EC04F
:1006600001448247131704014183637BF702374734
:10067000014093060780368593050008EF10F04887
:10068000B747014093860780374701406DD5B38651
:1006900084008C22130507800504EF101046D1B7A3
:1006A000110121B4EFF2DF9F85472E84631AF50014
:1006B000372500001305456B513F2285413FF5B2B8
:1006C0008D476317F500372500001305C56BEDB79F
:1006D0008947E314F5FE372500001305856CE9BF53
:1006E000EFF21F9C2A84B304B50063069402B74757
:1006F0000140138707803A8593050008EF10F0400A
:10070000B7470140138707807DD50C203A85050443
:10071000EF10B03ED9BF6FF05F99EFF27F98711183
:100720009307F0F92A8402C0A145371501405C8087
:10073000EF10E0471146A2850A85EF009068A145B9
:1007400037150140EF10604611016FF01F96EFF270
:100750003F952A84A14537150140EF104045894552
:1007600037350140EF1090027DD937350140A28521
:10077000EF10500113054006EF10D0408545373586
:100780000140EF10B0007DD937350140EF10C07F38
:10079000A14537150140EF1040416FF01F91EFF276
:1007A0003F907111930700025C8093570501DC8034
:1007B000931785004205418121815D8D688119452E
:1007C0007937A14537150140EF10603E0A85914504
:1007D000EF001064A14537150140EF10003D1145B1
:1007E000BD3713052003EF10903D11016FF0FF8B13
:1007F000EFF21F8B61118D475C8293570501DC82FC
:10080000931785004205418121815D8D2E84688387
:10081000A1453715014032C0EF10603948009145BD
:10082000EF00105F02462285B285EF007062A1459D
:1008300037150140EF10603721016FF01F87EFF28D
:100840003F86611189475C8293570501DC829317CB
:1008500085004205418121815D8D688319452E8483
:1008600032C0F535A14537150140EF10403448003E
:100870009145EF00F05902462285B285EF005059AC
:10088000A14537150140EF1040321145C9352945C2
:10089000EF10F03221016FF05F817300203001A072
:1008A000EFF21F807111B75700402A84AE8432C026
:1008B000138707403A85B7050200EF106049B75724
:1008C0000040138707407DF585453A85EF102040AD
:1008D000B7070300850737570040BE85130507405B
:1008E000EF10A045B707030037570040850765D5CF
:1008F00093151400014693F5E50F130507403704DF
:100900000700EF1060421304240837550040A28509
:1009100013050540EF1060426DD901448247636CB6
:10092000F40037550040854513050540EF10C03BE6
:1009300011016FF08FF7B38784008C233755004087
:1009400013050540EF10803DB70707009387470860
:1009500037550040BE8513050540EF10003EB70730
:100960000700938747086DD505041374F40F7DB70E
:10097000EFF20FF371112AC037550040AE84130512
:10098000054085453284EF108034B70703008507A2
:1009900037570040BE8513050740EF10003AB707F0
:1009A000030037570040850765D582470546130584
:1009B00007409395170093F5E50FEF10E036B70762
:1009C0000300890737570040BE8513050740EF1025
:1009D000C036B707030037570040890765D58545FE
:1009E00013050740EF10E03119E837550040854501
:1009F00013050540EF10402F11016FF00FEB8547F5
:100A00006319F40037550040814513050540EF1088
:100A1000402FB7570040B705001013850740938556
:100A20000504EF10E032B75700405DDD1385074045
:100A30007D14EF10E02E420488A0418085046DB73C
:100A4000EFF20FE6056501118545410502C002C2BE
:100A500002C402C602C802CA02CC231E0100EF1063
:100A60000048A1470D447C808A85C1473715014065
:100A70003EC422C2EF10000693070002E1448A85BB
:100A8000371501407C8026C422C2EF10A0049307D2
:100A900000087C808A859147371501403EC4EF10DD
:100AA0006003930700048A85371501407C8026C4C3
:100AB00022C2EF102002B70704013EC6B7070002AA
:100AC00085073ECA930780033ECC6C009D473735AF
:100AD0000140FC8602C8EF102046854537350140AD
:100AE000EF10A04805616FF04FDCEFF26FDBAA84D6
:100AF0000565130141FD2E8413050583854532C02C
:100B000002C802CA02CC02CE02D002D202D402C271
:100B100002C423160100EF10803C85450545EF1007
:100B2000E03DB147FC8037150140E1473ECC0C0861
:100B30008D47130505403ECAEF00D079C1470C0828
:100B400037150140FC80EF00F078608237340140B7
:100B50004C00130504C06484231501002313010015
:100B6000EF1060434C0037050040EF10C0420246D2
:100B7000C167938707076C08130504C03ECE231195
:100B8000C10223120102EF10E0456C08130504C0F6
:100B9000EF1040556C0837050040EF10404B13052F
:100BA00004C08545EF10605C130504C08145EF105B
:100BB000C05E130504C08145EF106060130504C0DA
:100BC0008545EF10E05B130504C08545EF106058C4
:100BD000854537050040EF104059814537050040F5
:100BE000EF10805C854537050040EF106059854562
:100BF00037050040EF10E0551301C1026FF0EFCA56
:100C0000EFF20FCA9377F50F2A84139557001D8DC5
:100C10000A053E959305F00F0E05EFF0AFCB931547
:100C20000501C18137050040EF10005B13558400BA
:100C30009377F50F139557001D8D0A053E95930583
:100C4000F00F0E05EFF00FC9B73401409315050101
:100C5000C181138504C041801374F40FEF10005854
:100C600013155400018D0A0522959305F00F0E050A
:100C7000EFF04FC693150501C181138504C0EF1035
:100C800060556FF08FC2EFF2AFC137140140854558
:100C900013050440EF00707113052003EF1020725C
:100CA000854513050440EF00907013052003EF10F5
:100CB0000071854513050440EF00306F13052003D4
:100CC000EF10E06F854513050440EF00506E1305EB
:100CD0002003EF10C06E854513050440EF00F06C53
:100CE0001305401FEF10A06D6FF02FBCEFF24FBB4C
:100CF000854537150140EF00506B1305A00FEF102D
:100D0000006C854537150140EF00706A1305A00F90
:100D1000EF10E06A854537150140EF0010691305B3
:100D20002003EF10C069854537150140EF0030689A
:100D300013052003EF10A068854537150140EF002B
:100D4000D06613052003EF108067854537150140F5
:100D5000EF00F06513052003EF1060666FF0EFB44D
:100D6000EFF20FB4130141FD614681454808EFF0F1
:100D7000CFBD85451305000202C402C602C802C0E9
:100D800002C2EF10C015854513050020EF10201595
:100D90003165EF10C00937150140C1472C0013051C
:100DA0000540372401407C8402C8EF00B05213058F
:100DB0000440EF00302C9D673ED04C08854713055A
:100DC00004402304F10202CA02CC02CE02D2EF0098
:100DD000D02C854513050440EF0010409D46054684
:100DE0009D4513050440EF009037814513050440ED
:100DF000EF0030349307D0217C800A8585473EC2BE
:100E000023010100EF005078B705000213050440EC
:100E1000EF00F04105469305004813050440EF003C
:100E2000B02D854513050440EF00102C1305044038
:100E3000EF00F02D930404402685EF00F02D6DFDAA
:100E40001305044037240140EF00902D13040440A3
:100E50002285EF00902D6DFD1301C1026FF0EFA40C
:100E6000EFF20FA441118545114502C202C402C62A
:100E7000EF10E00685454145EF10600685451305F6
:100E80000002EF10C005B717014041448D440547EB
:100E9000138507404C0078823AC022C626C4EF0072
:100EA000704302474C0037150140788222C626C4A1
:100EB000EF005042B71701401147138507404C001F
:100EC000788222C626C4EF00F0404C00371501405E
:100ED000608222C626C4EF00F03FB71701402147C9
:100EE0004C0013850740788222C626C4EF00903E4E
:100EF00041016FF08F9BEFF2AF9A1301C1FD854561
:100F00001545B714014002C402C602C802CA02CC89
:100F100002CE02D002C002C2EF00707C11448947A9
:100F20002C00138504807C8422C8EF00B03A2C008A
:100F300013850480608422C8EF00D03985450145BF
:100F4000EF003047894785443ECA4808B1473ECE46
:100F500026D002CCEF00F02E89450145EF00704508
:100F6000B147480822CA3ECE26D002CCEF00702DF1
:100F7000D1470A857C8026C223010100EF00D060A2
:100F8000130141026FF06F92EFF28F911301C1FDD7
:100F90002AC22EC04545854502C402C602C802CAFF
:100FA00002CC02CE02D0EF009073854537052000B9
:100FB000EF00D0749146F1440D442C0037150140E8
:100FC000748426C822C6EF00F03089462C003715FD
:100FD0000140748426C822C6EF00D02F82471247F2
:100FE00037540040FC86930700403ACAFC87370715
:100FF000FFBF91674C08130504403ACC2310F1025F
:10100000EF00503D130504408545EF00D04A85456B
:1010100013050440EF00F04E130141026FF0EF881A
:10102000EFF20F887111AA84AE873384C5006395EF
:10103000870011016FF06F87A94526853EC0EFF04C
:101040002F8C13050503A30FA4FEA9452685EFF0F9
:101050006F88AA847D148247D9BF0945EF00102507
:1010600019C5054709452383E190EF001026114576
:10107000EF00D02319C505471145A383E190EF0088
:10108000D02473002030EFF2AF8171110945EF00D9
:10109000504FEF00C06BEF10A02BD933EFF05F9AE9
:1010A000A14537150140EF005030B135EFF06FCF5B
:1010B0003725060093054004130505A8F135EFF028
:1010C000AF94EFF0FFC9EFF07FC209651305456DDE
:1010D000EFF02FB61305C05DEF10602EB73400009F
:1010E000938544AD0145EFF0EFDBB7350000938504
:1010F000C5AD0545EFF00FDBB7350000938545AF73
:101100000545EFF02FDAB7350000938545B1054569
:10111000EFF04FD9B7350000938585B20545EFF064
:101120006FD81305401FEF108029EFF06FADB73572
:101130000000938585B30545EFF0CFD62945EF1024
:10114000002837250140854513050540EF00A07FA5
:10115000B73500009385C5B40545EFF0AFD401461F
:101160009305F0021305703EEFF03F98370400013D
:101170001305F4FFEFF0DFA8B7350000938505B63F
:101180000545EFF02FD2B7350000938585B70545AB
:10119000EFF04FD137360000C946130646B98145F6
:1011A0000945EFF04F9737360000C146130686BA5F
:1011B00081450D45EFF02F9637360000C5461306E2
:1011C000C6BB81451145EFF00F9537360000C1468B
:1011D000130606BD81451545EFF0EF931305007D1D
:1011E000EF10E01DB7350000938545BE0545EFF0D3
:1011F0006FCB41657D15EFF0BFA01305401FEF10C9
:10120000001C3705FF001305F50FEFF07F9F130556
:10121000401FEF10C01A130504F0EFF07F9E130576
:10122000401FEF10C0191305F4FFEFF07F9D01453B
:10123000EFF0EF961384819113858191EFF0EFCD5C
:1012400018309307F00E26C06312F72EB735000052
:101250009385C5BF0545EFF0EFC4B7350000938512
:10126000C5C20545EFF00FC4B7370000C14613866D
:1012700047C481450145EFF00F8AB73500009385DB
:1012800085C50545EFF00FC2B7050020938585039E
:1012900013858190EFF04FA8B707002013878703CD
:1012A00008430D4693854191A53B373600009305D1
:1012B00086C60545EFF00FBF894513854191EFF0D4
:1012C0002FC2B7370000938547C7014593844191EA
:1012D000EFF04FBD890426858545EFF06FC0B73527
:1012E0000000938585C70145EFF0CFBB373600007E
:1012F000A946130686C681450945EFF0CF81894688
:10130000138641919305C0030945EFF0CF80B737AD
:101310000000138647C78546930580040945EFE022
:101320009FFF268685469305E0040945EFE0BFFE52
:10133000373600009D46130606C89305400509454B
:10134000EFE07FFD9387819088430D46938541911F
:10135000C13937360000930586C80545EFF08FB4D4
:10136000894513854191EFF0AFB7B73700009385FA
:1013700047C70145EFF00FB326858545EFF04FB61F
:10138000B7350000938585C90145EFF0AFB1373619
:101390000000B546130686C881451145EFE0BFF74A
:1013A0008946138641919305E0041145EFE0BFF6AD
:1013B000B7370000138647C785469305A00511453A
:1013C000EFE07FF526868546930500061145EFE0A0
:1013D0009FF4373600008546130646CA930560061B
:1013E0001145EFE05FF39387C19094230547938401
:1013F0000191639EE602B726014013850640D14560
:10140000EF00C05E131725003A951317650093058A
:1014100040063A95EFE01FCCB726014088C093877D
:10142000C19085451385064023800700292B8840FD
:10143000938541911146EFF0BFBEB7340000B54629
:10144000138684CA81451945EFE0FFEC138641916C
:1014500091469305E0041945EFE0FFEB37360000B5
:101460008946130686CB930560061945EFE0BFEA6F
:10147000938584CA0545EFF0EFA21385419191450C
:10148000EFF00FA6B73500009385C5CB0145EFF00F
:101490006FA113054006EF009072B73500009385E9
:1014A00045CC0545EFF00FA013845190EFF0AFFD50
:1014B0001C2085CFB7350000938505CD0545EFF09D
:1014C0006F9EB7350000938585CE0545EFF08F9D63
:1014D0000145EFF0CFACB705002029469385C50341
:1014E0000145EFF0CFB5230004009387C19123A0FD
:1014F000070023A207002394070029469385C19182
:101500000145EFF0EFAEB7350000938505D00545F6
:10151000EFF04F991385C191A945EFF06F9C824779
:101520009145138547ADEFF0AF9B3DBBB73500004C
:10153000938545C105B3711122C03724014093053D
:10154000004813050440C9218547631FF500238621
:10155000A190D14513050440512923A8A1909305DA
:101560000048130504407D29024411017300203016
:10157000711122C037440140930550521305048075
:10158000EF0050591DC913050480EF009057938751
:1015900041909023370700201307C70393061600D6
:1015A000329793F6F60F08A394A325476377D700E5
:1015B000238007000547A382E190024411017300D4
:1015C0002030EFE2FFAD7111B387C5002E84AA84ED
:1015D0003EC082476315F40011016FE01FAD8945DD
:1015E00037350140EF00901A7DD98C203735014006
:1015F000EF005019854537350140EF0030197DD98E
:1016000037350140EF00501808A085040504D1B714
:10161000EFE21FA92A84B304B500631494006FE0BD
:10162000DFA8894537350140EF0050167DD90C20E1
:1016300037350140EF001015854537350140EF0083
:10164000F0147DD937350140EF0010140504F1B7CF
:10165000EFE21FA52A84B304B500631494006FE081
:10166000DFA4894537350140EF0050127DD981450F
:1016700037350140EF001011854537350140EF0047
:10168000F0107DD937350140EF00101008A0050497
:10169000E9B7B71702409843B706FFFC1367170076
:1016A00098C3D843758FD8C39843B706F7FEFD1685
:1016B000758F98C39843B706FCFFFD16758F98C3C6
:1016C000D843C176FD16758FD8C337079F0098C7DA
:1016D000984F1367070298CF37170140032607403A
:1016E000930507401376F6F02320C74003260740F2
:1016F000136606082320C740094798C937270240C8
:101700001043719A10C310431366160010C3D843D8
:10171000D8C3D843F98ED4C3D843B7060001D8C381
:101720009843558F98C3984393166700E3DD06FEF0
:10173000D843B7160240719BD8C3D843136727001C
:10174000D8C32147DC42B18BE39EE7FE8280EFE203
:101750003F95371702405C43370400209146B18B18
:10176000130404016385D700A1466382D704B73709
:101770006E01938707601CC0B7160240DC42084028
:10178000918313F7F700B707002093870700BA97F4
:101790008C23DC4293F5F50F93F707083357B50018
:1017A00081E7EFE03F932A8718C06FE01F905C430A
:1017B000B777DC02938707C07DBF01A001A001A01D
:1017C00001A001A001A001A001A001A001A001A011
:1017D00001A001A001A001A001A001A001A001A001
:1017E00001A001A001A001A001A001A001A001A0F1
:1017F00097F1FF1F93818104138181FC171500006D
:101800001305455197E5FF1F9385C57F17F6FF1F09
:101810001306C68263FAC5008322050023A0550083
:1018200011059105E3EAC5FE17F5FF1F13050581B4
:10183000938541A26377B500232005001105E36D70
:10184000B5FE93020008739002308D42739042807F
:1018500097E2FFFF9382027B93E232007390523053
:10186000EFF03FE3970200009382228273901234DC
:1018700073002030B727014093870740631EF500AF
:10188000EFE21F82854513050020412D8145130598
:10189000002061256FE07F8182805C413707F1FF86
:1018A0001307F7EF7D8FDC419441A207D58FD98FC5
:1018B0005CC11C4537F7F1FF1307D77FD4457D8FF7
:1018C0009C49D58F94458606D58FD98F1CC55C550C
:1018D000370710FF7D177D8FDC29FD1793F7F70F72
:1018E000D207D98F5CD582801C4589C593E7170044
:1018F0001CC58280F99BEDBF5C4193F5F50F01C6D5
:10190000DD8D4CC1828093C5F5FFFD8DDDBF1C458B
:1019100093E787001CC5828008450D810589828078
:101920001C4593E747001CC582800845098105894D
:1019300082801C4589C52167D98F1CC5828061774B
:101940007D17F98FDDBF1C4591C537872000D98FE2
:101950001CC582803787DFFF7D17F98FD5BFA5476C
:1019600063FBB704138765FF931717008322C50035
:10197000BA971D433313F3001343F3FF337353003C
:10198000B397F600B3E767005CC5185D0906935787
:1019900047018D8B1D8E1376F60F931726003E960A
:1019A000FD47B397C70093C7F7FFF98FB395C500FD
:1019B000DD8D0CDD82809397150003230501AE9722
:1019C0001D473317F7001347F7FF33776700B397C7
:1019D000F6005D8F18C955BF1C5D3707D0FF7D1716
:1019E000FD15F98FD205DD8D0CDD8280711102C0ED
:1019F0002AC0824793878702BE952EC082478843BC
:101A000011014205418182805841144193D78500DC
:101A1000F58F99C713F5F50F798D3335A0008280C6
:101A200001458280A18193C5F5FF0CC182805C4194
:101A3000370700FA7D17F98F5CC15C41DD8D4CC121
:101A400082805841032305004C4537060140930727
:101A500006403E979346F3FFB1C583250640F58DBA
:101A60002320B640D043F18ED4C31443B3E66600BE
:101A700014C3184190479346F7FF758E90C7D0471F
:101A8000F18ED4C7144541466399C6009447D98E58
:101A900094C7D447558FD8C78280B6979443558F43
:101AA00098C382801C43F58F1CC38280B707014016
:101AB0001387074083A70740584B698F09C77D8D5F
:101AC0003335A000828001458280B707014023AAF8
:101AD000A74082809C45611122C226C013F70701EE
:101AE00013F3F70001C7D8413363E3009221137762
:101AF000F60F29C7832305000147130480029304CE
:101B000080048546B395E600B376B6006392D502AD
:101B100093122700BD46B396560093C6F6FFB3F363
:101B20007600B3125300B3E37200639787064CC983
:101B30000507A146E317D7FC232075001307F00F14
:101B40006378C70483234500A146130480029304ED
:101B500080040547B312D700337756006394E2023E
:101B6000139726000117BD45B395E50093C5F5FF12
:101B7000B3F375003317E300B36377006392870212
:101B8000232A550085064147E395E6FC232275008C
:101B90001244824421018280E39C97F80CC949BF1A
:101BA000E39297FE23285500F1BF0CC982804CC9EF
:101BB000828037070140144786058D47B397B700E9
:101BC00093C7F7FFF58F1CC71C47B315B500DD8D14
:101BD0000CC78280EFE2CFCC111146212A84280065
:101BE0002EC08524C246C204C18093F404FCB745CC
:101BF0000F00938505243685C20436C2C180EFE00C
:101C00006FCD458D420541814AA01E209246C207F4
:101C1000C183F99BC207C1831EA082479043E1673D
:101C20009387076A9315160063E6C7043685EFE0CD
:101C30006FCAAA874205418191466373D5009147D7
:101C40001395070141814AAC1E20024793E7170014
:101C50001EA01E2056233227C207C183D18E93F7C0
:101C600057BFD58F1EA016275E27D58F1EA47101E2
:101C70006FE0AFC38247EA23B167FD176310F50237
:101C8000B2953685EFE00FC54205418193174501B6
:101C900099E313651500A1675D8D75B7B387C5001E
:101CA0008E07B385C7003685EFE0CFC2420541817C
:101CB00091675D8DE1BF1E2189C593E717001EA1C5
:101CC0008280C207C183F99BC207C183CDBF1E2199
:101CD00089C593E707101EA18280C207C18393F7CD
:101CE000F7EFC207C183C5BF1E2189C593E707204F
:101CF0001EA18280C207C18393F7F7DFC207C183A9
:101D0000C5BF1E2189C593E707401EA18280C20777
:101D1000C18393F7F7BFC207C183C5BF0EA98280F5
:101D20000A291375F50F828093F7E50F19C293E71F
:101D30001500C207C1831EA982805E290A2D4205B3
:101D40005D8D6D8D220521810D8D133515008280ED
:101D5000611102C002C293D7C5012AC23EC08247A8
:101D6000A205A18199CB9247D1073EC292478843F1
:101D700021016D8D3335A00082809247C181E1073A
:101D8000EDB723AEA1A082809387C1A1944318210F
:101D900081E63C21920721A894430546639FC60231
:101DA0003C21103192076314D60093E707F8B7E699
:101DB00000E093F7F70FBA962380F64085469357D5
:101DC00057003397E6005441A5C2938707048A075A
:101DD000B7E600E0B69798C382808C43894663914A
:101DE000D50214313C216365D6008A06B6975DB7EB
:101DF0009386E6038A06B69793F7F70F920775B7AF
:101E000090438D46631CD60014313C216364D60098
:101E10008606E9BF9386C6078606F1BF94439147BD
:101E2000E39EF6F81C31BDB7938707064DB7B7168A
:101E30000240DC4241771307F77FF98F5D8DC8C2FE
:101E40008280EFE2EFA5371702405C4391462A8477
:101E5000B18B6385D700A146638DD706B7376E0176
:101E6000938707601CC0B7160240DC42918313F7CA
:101E7000F700B707002093878702BA978C23DC42CC
:101E8000184093F5F50F93F707083355B70081E72E
:101E90003A85EFE02FA448C008C448C4B7170240F1
:101EA000DC43AD83FD8B13D737008A07F18BD98FC5
:101EB00093F637010D476373D700D117370700201A
:101EC00013074701BA978C23EFE0CFA008C86FE053
:101ED000CF9D5C43B777DC02938707C061B799C594
:101EE000371702401C4F5D8D08CF8280B717024024
:101EF000984F1345F5FF798D88CF828099C53717A4
:101F000002405C4F5D8D48CF8280B7170240D84FAA
:101F10001345F5FF798DC8CF828099C537170240E8
:101F20005C475D8D48C78280B7170240D84713458C
:101F3000F5FF798DC8C782801A218D6793870704C2
:101F4000B6217D8F9E21D58FD621D58FF621D58FB5
:101F50009625D58FB625D58FD625D58FF625D58F45
:101F6000D98F1EA19E291EA982801E2189C593E7B3
:101F700007041EA18280C207C18393F7F7FBC20743
:101F8000C183C5BF4EA582804A2582800A256D8DFA
:101F90003335A00082801E2137370140130707C068
:101FA000C207C1836306E500370700406316E500FA
:101FB000BA2193F7F7F8D98FFA2193F7F7CFC20731
:101FC000C183D98F1EA1DE215EB59E211EB5B73714
:101FD0000140938707C06314F5009C251EB985470F
:101FE0005EA982801E31922103D32500C207C183DE
:101FF000F99BC207C1831EB11E3156211A2DC2079B
:10200000C183420741831377C7F8518F9225F59B0F
:10201000C20633666600D18F37360140130606C00C
:10202000C1826310C502B225DD9B03D3E500D18FC9
:10203000D221ED9B93F6F6CFD18FD2253366660081
:10204000D18E56A11AADFA2158D91EB182801E3107
:1020500065771307F7CFC207C183BD9BC207C18352
:102060001EB11E31562103D38500C2071396060107
:10207000162DC18393F7F7FD758F96214182A20635
:10208000558FB62142074183B3E666009206D58F8D
:10209000B7360140C207938606C0C183631ED502CE
:1020A000B62593F7F7F703D3C5009206D58FD6214F
:1020B000C207C183920693F7F7FBD58FFD7693860F
:1020C000F63FF18EF225C207C183336666000A0629
:1020D000D18E13960601418252A11AADFA2118DD64
:1020E0001EB182801A31FD77FD17F98F1EB103539F
:1020F00005025A215E2DE5769386F6CFFD8E9E2150
:1021000013160701BA21A207DD8EF977FD17B3F781
:10211000670003D38500C206418233676700320738
:10212000D98F37370140C207130707C0C182C18367
:10213000631BE50071777D17718FD2251A06518FC9
:10214000131607014182FA2152A156AD38C11EB1C2
:1021500082801E2189C593E717001EA18280C207D5
:10216000C183F99BC207C183CDBF8357450491C585
:102170002167D98F2312F5048280C607C583DDBF8E
:102180001E2189C593E707081EA18280C207C1836B
:1021900093F7F7F7C207C183C5BF1E2DC207C183DE
:1021A000DD9BDD8D0EAD82801A2DFD779387F77F45
:1021B000F98FA205CD8FC207C1831EAD82805A2D33
:1021C000FD779387F77FF98FA205CD8FC207C18373
:1021D0005EAD82804CD982800CDD82802CC18280F1
:1021E000EFD21FEC1629F577FD17F58FF621DA25CA
:1021F0002111D58F1EA95625FD779387379FF58F1F
:10220000D6212A842EC0D58F9625D58FB625D58F79
:102210005EA55E29C207C18393F7F7CF5D8F5AA9E8
:102220004800EFF01FC2B7470140938707808245FF
:102230006312F406C2475A24139517003E954207CD
:102240000E0541873E958C41635807048605EFD003
:102250007FE8930540062AC0EFD0DFE7824793145A
:102260004500930540063E85EFD09FE95E24C207F6
:10227000C18763D507020E059305400613052503A4
:10228000EFD05FE51D89C98CC204C18006A461013D
:102290006FD0BFE1B24745B78A0555BF1205930518
:1022A000400613052503EFD0FFE23D89E9BF91C544
:1022B0005E250967D98F5EA582805A25F977FD17BB
:1022C000F98FD5BF13F7F50F85471583B395B70081
:1022D0006319F7009307C500984301CED98D8CC3CD
:1022E0008280894693074501E318D7FE93070501CD
:1022F000E5B793C5F5FFF98DDDB793F5F51F4EA151
:1023000082804A211375F51F82800A216D8D333535
:10231000A000828013F7F50F85461583B397B600AA
:102320006311D7025A25F98F1A21014542074183CB
:1023300081CB0545A181B315B5006D8F3335E00024
:10234000828089466314D7001A29F1BF5A29E1BF58
:10235000EFD21FD5B707002003A50701B7157A00F4
:1023600093850520EFD01FD71375F50F2381A1A208
:1023700093175500898F8A073E950E052390A1A2D9
:102380006FD0BFD2EFD2DFD137F400E05C40AA8536
:10239000F99B5CC003C521A2EFD0DFD108C823247C
:1023A00004001C4093E717001CC0B7F700E0D843B7
:1023B000058B75DF9843799B98C36FD01FCFEFD201
:1023C0003FCE37F400E05C40AA85F99B5CC003D5A2
:1023D00001A2EFD03FCE08C8232404001C4093E79D
:1023E00017001CC0B7F700E0D843058B75DF984392
:1023F000799B98C36FD07FCBAA87850703C7F7FF68
:102400006DFF3385A7407D1582800000000000002D
:102410000000FF1C3E3E3E1414FF081C1C3E7F7F44
:10242000FF600070007C00FF242A7F2A1200FF2337
:102430001308646200FF08141422417FFF000503A3
:10244000000000FF001C22410000FF0041221C0090
:1024500000FF14083E081400FF5C6202625C00FF8B
:10246000503000000000FF080808080800FF006066
:1024700060000000FF201008040200FF3E514945A3
:102480003E00FF40427F404000FF4261514946000C
:10249000FF2141454B3100FF1814127F1000FF2728
:1024A0004545453900FF3C4A49493000FF01710963
:1024B000050300FF364949493600FF064949291EF0
:1024C00000FF003636000000FF7E7949797E00FF6C
:1024D000081422410000FF141414141400FF0041DA
:1024E00022140800FF787949797E00FF3E415D554E
:1024F0001E00FF7E1111117E00FF7F494949360001
:10250000FF3E4141412200FF7F4141221C00FF7FED
:102510004949494100FF7F0909090100FF3E41493E
:10252000497A00FF7F0808087F00FF00417F4100D3
:1025300000FF2040413F0100FF7F0814224100FFBF
:102540007F4040404000FF7F020C027F00FF7F047D
:1025500008107F00FF3E4141413E00FF7F0909090D
:102560000600FF3E4151215E00FF7F091929460008
:10257000FF264949493200FF01017F010100FF3F69
:102580004040403F00FF1F2040201F00FF3F4038D9
:10259000403F00FF631408146300FF07087008073A
:1025A00000FF615149454300FF007F41410000FFAA
:1025B000020408102000FF0041417F0000FF0402D8
:1025C00001020400FF404040404000FF00000305BE
:1025D0000000FF205454547800FF7F4444443800E6
:1025E000FF384444444400FF384444447F00FF38EB
:1025F0005454541800FF04047E050500FF08545489
:10260000543C00FF7F0804047800FF00447D400034
:1026100000FF2040443D0000FF7F1028440000FFE1
:10262000417F40000000FF7C047C047800FF7C08B0
:1026300004047800FF384444443800FF7C14141428
:102640000800FF081414147C00FF7C080404000038
:10265000FF485454542400FF04043F444400FF3C0A
:102660004040207C00FF1C2040201C00FF3C4030EC
:10267000403C00FF442810284400FF0C5050503CC0
:1026800000FF4464544C4400FF083641410000FF01
:10269000000077000000FF004141360800FF0808F5
:1026A0002A1C0800FF081C2A080800FFFFFFFFFF84
:1026B000FF00FF005B494E464F5D3A005B455252BA
:1026C0004F525D3A000000005B414C4552545D3A68
:1026D00000000000000000000000000000000000FA
:1026E00000000000000000000000000000000000EA
:1026F00000000000000000000000000000000000DA
:1027000000000000000000000000000000000000C9
:1027100000000000000000000000000000000000B9
:1027200000000000000000000000000000000000A9
:102730000000000000000000000000000000000099
:102740000000000000000000000000000000000089
:102750000000000000000000000000000000000079
:102760000000000000000000000000000000000069
:102770000000000000000000000000000000000059
:102780000000000000000000000000000000000049
:102790000000000000000000000000000000000039
:1027A0000000000000000000000000000000000029
:1027B0000000000000000000000000000000000019
:1027C0000000000000000000000000000000000009
:1027D00000000000000000000000000060E0F0F8D1
:1027E000F8F8FCFCFCFCFCFCF8F8F8F0F0E0C08029
:1027F000E0E0F0F8F8F8FCFC7C7CFCFCFCF8F8F07D
:10280000F0E0C0800000000000000000000080C078
:10281000E0E070707060E0400000000000C0E0E0A8
:10282000E0C00000000000E0E0E060606060E0E028
:10283000800000E0E0000000000000E0E0E00000B8
:10284000E0E0E060606060606000000000000000A8
:102850000000000000000000000000000000010374
:1028600003010000000000000101030FFFFFFFFF54
:10287000FFFFEFE7E1E1E0E0E0E0E0E0E0E1E3E7F7
:10288000FFFFFFFFFFFCE00000000000000E3F7FA5
:10289000E1C0C0C0C0C0E0C00080E0FC7F7F6361D9
:1028A000677FFEF8C00000FFFFFF1C1C1C1C0F0F01
:1028B0000700003FFFE0C0C0C0C0E0FF7F1F000076
:1028C000FFFFFF0C0C0C0C0C0C00000000000000C3
:1028D000000000000000000000000080C0E0F0E008
:1028E000C0C08080808080C0C0E0E0F0FFFFFFFFBC
:1028F000FFFFFBE3C3C3838383838383D3F3F3F3B8
:10290000F3F3F3F373130100000000000000F0D0B4
:102910009090911101C1C04060C1C16160C00000D0
:10292000F8406061C18000C1C16160C00000C0406A
:102930006040F0F00080C16141C1F80000C06060FB
:10294000C1C10180C0606040F800000000000000CC
:102950000000000000000000000000010307070F56
:102960000F0F1F1F1F1F1F0F0F0F0707030100016E
:10297000030307070F0F0F0F0F0F0F0F0F0F07079F
:102980000F0F03000000000000000000000007051A
:10299000040404040007070000070000000700000B
:1029A00007040C0C07030007070D0D0501000704C1
:1029B0000C0407070003060C040607000107050DB9
:1029C00005050003070C0C040700000000000000D0
:1029D00000000000000000000000000000000000F7
:1029E00000000000000000000000000000000000E7
:1029F00000000000000000000000000000000000D7
:102A000000000000000000000000000000000000C6
:102A100000000000000000000000000000000000B6
:102A200000000000000000000000000000000000A6
:102A30000000000000000000000000000000000096
:102A40000000000000000000000000000000000086
:102A50000000000000000000000000000000000076
:102A60000000000000000000000000000000000066
:102A70000000000000000000000000000000000056
:102A80000000000000000000000000000000000046
:102A90000000000000000000000000000000000036
:102AA0000000000000000000000000000000000026
:102AB0000000000000000000000000000000000016
:102AC0000000000000000000000000000000000006
:102AD000000000000D0A0D0A0000000043483332D8
:102AE0005630303320444556204B495420312E3047
:102AF0000D0A0000444556454C4F5045442042596C
:102B00003A20434150554620454D424544444544B2
:102B10000D0A0000554152543A20313135323030DF
:102B20002D312D6E0D0A0000504F57455220555043
:102B300020424545500D0A004F4C454420434F4E1E
:102B400046494720444F4E450D0A0000414443206A
:102B5000434F4E46494720444F4E450D0A00000062
:102B6000524742204C454420434F4E46494720445B
:102B70004F4E450D0A00000053595354454D204314
:102B80004F4E46494720434F4D504C4554450D0A42
:102B900000000000202043483332563030332044B8
:102BA0004556204B495400002020202044455645DE
:102BB0004C4F504544204259000000002020204343
:102BC0004150554620454D4245444445440000008F
:102BD000202020205757572E43415055462E494E0E
:102BE00000000000524742204C45442054455354B5
:102BF00020434F4C4F520D0A00000000464C4153F9
:102C000048204944205245414420535543434553AD
:102C1000530D0A00464C4153482049442052454137
:102C200044204641494C0D0A00000000454E5445E1
:102C300052494E472053555045524C4F4F500D0A64
:102C400000000000434833325630303320444556AC
:102C5000204B4954000000004D454153555245203A
:102C60005426480D0A00000048554D49444954591E
:102C70003A2000002E000000202552480D0A0000D6
:102C8000202552482020200054454D5045524154A3
:102C90005552453A200000002044656720430D0A44
:102CA0000000000043000000504F5420564F4C5489
:102CB0004147453A200000006D5600006D560D0A50
:102CC000000000004C454420424C494E4B0D0A0088
:102CD00055415254204441544120524543454956A0
:102CE0004544203A290D0A00464C415348204441AE
:102CF000544120575249544520444F4E450D0A0037
:102D0000535049204441544120524541443E000023
:102D1000010203040506070801020304050607086B
:102D2000006CDC020204060804080C1008101820CD
:102D3000102030402040608001020304050607088F
:082D4000010203040506070867
:00000001FF
