:100000006F10C078000000009A0900009E090000EF
:1000100000000000000000000000000000000000E0
:1000200000000000000000000000000000000000D0
:100030005A170000000000005C17000000000000DC
:100040005E170000601700006217000064170000D0
:10005000E6100000681700006A1700006C17000027
:100060006E17000070170000721700007417000070
:1000700076170000A21500007A1700007C17000018
:10008000DC150000801700008217000084170000B4
:1000900086170000881700008A1700000000000083
:1000A000511126C022C206C4828282441244A24058
:1000B000310182802A86014593F6150091C232955E
:1000C00085810606F5F9828000000000634E050276
:1000D00063C305042E86AA857D5515C285466378BF
:1000E000B6006356C00006068606E36CB6FE014500
:1000F00063E4C500918D558D85820582F5FA828075
:100100008682C93F2E8582823305A04063D70500D1
:10011000B305B040C1B7B305B0408682653F330533
:10012000A0408282868263C70500634905005D376F
:100130002E858282B305B040E35B05FE3305A04007
:10014000513F3305B040828200003D432A876373EC
:10015000C3029377F700BDEFADE5937606FF3D8AC6
:10016000BA960CC34CC30CC74CC74107E36BD7FE10
:1001700011E28280B306C3408A0697020000969679
:100180006780A6002307B700A306B7002306B700C1
:10019000A305B7002305B700A304B7002304B700E5
:1001A000A303B7002303B700A302B7002302B700DD
:1001B000A301B7002301B700A300B7002300B700D5
:1001C000828093F5F50F93968500D58D9396050162
:1001D000D58D61B793962700970200009696868288
:1001E000E78086FA9680C1171D8F3E96E374C3F8A8
:1001F000A5B7EFF2FFEA711102C0CC8009468A85EB
:10020000EF00007A110155B5EFF29FE9011169463F
:10021000814548001D3FB717B0C8938707023EC00D
:10022000C147DC82E177938707147C83B7A7A6A830
:100230009387F71F3EC4E9779387F7437C8693073C
:1002400030FD5C87B7F7D9229387570D3EC8B717A3
:10025000DB209387A72D3ECA85679387D748FC8408
:100260009307F0FA230DF1000144B30781008C23BA
:100270001305C0030504B53FF147E318F4FE05611B
:100280002DB5EFF2FFE1930505FB93F5F50F13058F
:10029000C003853719BDEFF2BFE02A849375F500DE
:1002A0001305C003B93793554400C1051305C003B6
:1002B0008937E5BBEFF2DFDE21119307000402C6A8
:1002C00032C236C05C862EC402C8231A0100553FD4
:1002D000A2452E85C937124682467800931736000C
:1002E0003386C74089679387C736B2970145BA8579
:1002F0008507050713061500631AD50042064182DB
:100300001305C003EF00C069610145B303C5F7F1F0
:1003100008A31375F60FE9BFEFF29FD861112A8782
:10032000AE84B287368419E0210141B30386070009
:10033000A6853A8599463EC23AC0AD3F9247990498
:100340007D1493F4F40F85071374F40F0247E1BF93
:10035000EFF21FD5130141F72EC22A84B2848145E2
:1003600013062008280036C0CD33924782465C84AD
:10037000814763EDD7008506139606012C00418264
:100380002285EF00E0611301C10805B33386F40054
:10039000102278013E978507A30EC7F693F7F70F53
:1003A000C9BFEFF2FFCF19712A84130600088145F7
:1003B0000A85613B814713070008B306F10080A25C
:1003C0008507E39CE7FE1304000BA2851305C00319
:1003D0000D3581451305C003293DC1451305C003F3
:1003E000093D930600080A86930500041305C0031F
:1003F000853705041374F40F9307800BE317F4FC9F
:10040000096165B1EFF2DFC91305F00F593F13051C
:100410004006EF10F0703D4569371305A00FEF104F
:1004200030701305000FB53F1305A00FEF10506F8C
:100430000145853F9DB9EFF2BFC6AA841304000BA6
:10044000A2851305C003753381451305C0035533D9
:10045000C1451305C003713B26869306000893052A
:1004600000041305C003ED3505041374F40F93075E
:10047000800B93840408E315F4FC05B9EFF25FC226
:1004800061119307A0FB4C0002C2094613058003CB
:100490005C8202C0312313054006EF1070688A8524
:1004A000054613058003E923030501002101F5BE7C
:1004B000EFF21FBF611185679387E78B4C000D46F4
:1004C000130580037C8202C023130100D129130588
:1004D0004006EF10F0648A85054613058003492B1A
:1004E00008802101D9B6EFF2BFBB61118D679387F8
:1004F000C73A4C000D46130580037C8202C02313CB
:100500000100792913054006EF1090618A850546A0
:1005100013058003B12B0880210141BEEFF25FB8C3
:1005200051112A84AE8405468A851305800302C0D2
:1005300002C2231401002D2B1C80A18B99E33D3FA7
:10054000853F5537058911E51D468A8513058003CA
:1005500005231C819880A207D98F13978700A18358
:10056000D98F9881C207C183920793564700DD8EC9
:1005700093975600958F8A07B6978E07D1839CC0B4
:100580001C823D8B22075D8F9C8222075D8F931713
:100590005700998F8A07BA979207D1839387C7E04C
:1005A0001CC0310119B6EFF2BFAF11651301C1FDD7
:1005B00085451305050202C402C602C802CA02CC60
:1005C00002CE02D002C002C2EF10300B930700022D
:1005D0007C84371401408D473EC62C00E14713054B
:1005E00004403EC8EF10C048930700047C842C00F0
:1005F0009147130504403EC8EF108047F167374428
:100600000140938707203ECA4C08B7070C0013052A
:1006100004803ECE02CC23100102EF103036054696
:100620009305505213050480EF1090439307001276
:100630007C8085475C810A8585473EC2EF10806ECD
:10064000854513050480EF10504013014102B1BCF1
:10065000EFF21FA57111AA84EF1030509317050116
:10066000C1833EC001448247131704014183637B69
:10067000F702374701409306078036859305000847
:10068000EF107042B747014093860780374701401B
:100690006DD5B38684008C22130507800504EF1006
:1006A000903FD1B7110111B4EFF29F9F85472E847F
:1006B000631AF5003725000013054561513F228577
:1006C000413FE5B28D476317F5003725000013055C
:1006D000C561EDB78947E314F5FE37250000130522
:1006E0008562E9BFEFF2DF9B2A84B304B50063069D
:1006F0009402B7470140138707803A8593050008A5
:10070000EF10703AB7470140138707807DD50C2062
:100710003A850504EF103038D9BF6FF01F99EFF21A
:100720003F98711102C09307F0F9AA84A1453715CB
:1007300001405C800144EF1040418945373501405C
:10074000EF10807E7DD9B30781008C2337350140BF
:10075000EF10007D854537350140EF10E07C7DD9F5
:1007600037350140EF10007CB387840088A305046F
:100770009147E314F4FCA14537150140EF10A03C6C
:1007800011016FF09F92EFF2BF912A84A1453715B6
:100790000140EF10803B894537350140EF10C078AC
:1007A0007DD9A28537350140EF10807785453735F3
:1007B0000140EF1060777DD937350140EF1080762A
:1007C000A14537150140EF1000386FF01F8EEFF292
:1007D0003F8D7111930700025C8093570501DC8007
:1007E000931785004205418121815D8D68811945FE
:1007F000593FA14537150140EF1020350144894587
:1008000037350140EF1040727DD9B30781008C234A
:1008100037350140EF10C070854537350140EF1086
:10082000A0707DD937350140EF10C06F05049147A6
:10083000E317F4FCA14537150140EF10C030114516
:10084000993713052003EF10B02D11016FF0FF85CC
:10085000EFF21F85611102C28D47AE84371501404A
:10086000A14532C05C820144EF10202E8945373506
:100870000140EF10606B7DD95C00A2978C23373567
:100880000140EF10E069854537350140EF10C06940
:100890007DD937350140EF10E06805049147E31733
:1008A000F4FC01448247636AF400A1453715014016
:1008B000EF10602921016FF04FFF89453735014066
:1008C000EF1080667DD9814537350140EF104065D6
:1008D000854537350140EF1020657DD9373501401A
:1008E000EF104064B3878400050488A31374F40FE9
:1008F00055BFEFF2EFFA6111894702C21945AE8484
:1009000032C05C824935A14537150140EF10E02324
:100910000144894537350140EF1000617DD95C0005
:10092000A2978C2337350140EF10805F854537351E
:100930000140EF10605F7DD937350140EF10805ED8
:1009400005049147E317F4FC01448247636CF4000B
:10095000A14537150140EF10001F11452D3521012C
:100960006FF0AFF4894537350140EF10E05B7DD97A
:10097000B38784008C2337350140EF10605A8545DA
:1009800037350140EF10405A7DD937350140050415
:10099000EF1040591374F40F4DBF7300203001A0C5
:1009A000EFF20FF07111B75700402A84AE8432C0C5
:1009B000138707403A85B7050200EF102033B75779
:1009C0000040138707407DF585453A85EF10E02903
:1009D000B7070300850737570040BE85130507405A
:1009E000EF10602FB707030037570040850765D524
:1009F00093151400014693F5E50F130507403704DE
:100A00000700EF10202C1304240837550040A2855E
:100A100013050540EF10202C6DD901448247636C0B
:100A2000F40037550040854513050540EF1080253B
:100A300011016FF08FE7B38784008C233755004096
:100A400013050540EF104027B707070093874708B5
:100A500037550040BE8513050540EF10C027B70786
:100A60000700938747086DD505041374F40F7DB70D
:100A7000EFF20FE371112AC037550040AE84130521
:100A8000054085453284EF10401EB70703008507F7
:100A900037570040BE8513050740EF10C023B70746
:100AA000030037570040850765D582470546130583
:100AB00007409395170093F5E50FEF10A020B707B7
:100AC0000300890737570040BE8513050740EF1024
:100AD0008020B707030037570040890765D5854553
:100AE00013050740EF10A01B19E837550040854556
:100AF00013050540EF10001911016FF00FDB85475A
:100B00006319F40037550040814513050540EF1087
:100B10000019B7570040B7050010138507409385AB
:100B20000504EF10A01CB75700405DDD138507409A
:100B30007D14EF10A018420488A0418085046DB791
:100B4000EFF20FD6056501118545410502C002C2CD
:100B500002C402C602C802CA02CC231E0100EF1062
:100B6000C031A1470D447C808A85C14737150140BB
:100B70003EC422C2EF00D06F93070002E1448A8591
:100B8000371501407C8026C422C2EF00706E9307A7
:100B900000087C808A859147371501403EC4EF00EC
:100BA000306D930700048A85371501407C8026C488
:100BB00022C2EF00F06BB70704013EC6B707000280
:100BC00085073ECA930780033ECC6C009D473735AE
:100BD0000140FC8602C8EF10E02F85453735014003
:100BE000EF10603205616FF04FCCEFF26FCBAA844B
:100BF0000565130141FD2E8413050583854532C02B
:100C000002C802CA02CC02CE02D002D202D402C270
:100C100002C423160100EF10402685450545EF105C
:100C2000A027B147FC8037150140E1473ECC0C08B6
:100C30008D47130505403ECAEF009063C1470C087D
:100C400037150140FC80EF00B0626082373401400C
:100C50004C00130504C06484231501002313010014
:100C6000EF10202D4C0037050040EF10802C02467D
:100C7000C167938707076C08130504C03ECE231194
:100C8000C10223120102EF10A02F6C08130504C04B
:100C9000EF10003F6C0837050040EF1000351305DA
:100CA00004C08545EF102046130504C08145EF10B0
:100CB0008048130504C08145EF10204A130504C085
:100CC0008545EF10A045130504C08545EF1020426F
:100CD000854537050040EF1000438145370500404A
:100CE000EF104046854537050040EF10204385450D
:100CF00037050040EF10A03F1301C1026FF0EFBABB
:100D0000EFF20FBA9377F50F2A84139557001D8DD4
:100D10000A053E959305F00F0E05EFF0AFBB931556
:100D20000501C18137050040EF10C0441355840010
:100D30009377F50F139557001D8D0A053E95930582
:100D4000F00F0E05EFF00FB9B73401409315050110
:100D5000C181138504C041801374F40FEF10C041AA
:100D600013155400018D0A0522959305F00F0E0509
:100D7000EFF04FB693150501C181138504C0EF1044
:100D8000203F6FF08FB2EFF2AFB1371401408545CD
:100D900013050440EF00305B13052003EF104058AB
:100DA000854513050440EF00505A13052003EF104A
:100DB0002057854513050440EF00F0581305200324
:100DC000EF100056854513050440EF001058130539
:100DD0002003EF10E054854513050440EF00B056A2
:100DE0001305401FEF10C0536FF02FACEFF24FAB65
:100DF000130141FD614681454808EFF00FB5854577
:100E00001305000202C402C602C802C002C2EF10EB
:100E1000C006854513050020EF1020063165EF0060
:100E2000D07A37150140C1472C00130505403724FF
:100E300001407C8402C8EF00B04313050440EF007A
:100E4000301D9D673ED04C088547130504402304A0
:100E5000F10202CA02CC02CE02D2EF00D01D8545BB
:100E600013050440EF0010319D4605469D451305CE
:100E70000440EF009028814513050440EF00302521
:100E80009307D0217C800A8585473EC2230101005B
:100E9000EF005069B705000213050440EF00F0327F
:100EA00005469305004813050440EF00B01E854534
:100EB00013050440EF00101D13050440EF00F01E61
:100EC000930404402685EF00F01E6DFD13050440D9
:100ED00037240140EF00901E130404402285EF00E8
:100EE000901E6DFD1301C1026FF02F9CEFF24F9B1E
:100EF00041118545114502C202C402C6EF00F077D8
:100F000085454145EF007077854513050002EF00E8
:100F1000D076B717014041448D44054713850740FB
:100F20004C0078823AC022C626C4EF0070340247D3
:100F30004C0037150140788222C626C4EF0050339A
:100F4000B71701401147138507404C00788222C62D
:100F500026C4EF00F0314C0037150140608222C6F4
:100F600026C4EF00F030B717014021474C0013852D
:100F70000740788222C626C4EF00902F41016FF00F
:100F8000CF92EFF2EF911301C1FD85451545B714DE
:100F9000014002C402C602C802CA02CC02CE02D07C
:100FA00002C002C2EF00706D114489472C00138506
:100FB00004807C8422C8EF00B02B2C0013850480B1
:100FC000608422C8EF00D02A85450145EF00303803
:100FD000894785443ECA4808B1473ECE26D002CC58
:100FE000EF00F01F89450145EF007036B147480812
:100FF00022CA3ECE26D002CCEF00701ED1470A8511
:101000007C8026C223010100EF00D0511301410270
:101010006FF0AF89EFF2CF881301C1FD2AC22EC055
:101020004545854502C402C602C802CA02CC02CEAA
:1010300002D0EF009064854537052000EF00D065B1
:101040009146F1440D442C0037150140748426C8A4
:1010500022C6EF00F02189462C0037150140748428
:1010600026C822C6EF00D0208247124737540040DE
:10107000FC86930700403ACAFC873707FFBF916799
:101080004C08130504403ACC2310F102EF00502E17
:10109000130504408545EF00D03B8545130504400A
:1010A000EF00F03F130141026FF02F80EFE25FFF8E
:1010B0007111AA84AE873384C5006395870011013E
:1010C0006FE0BFFEA94526853EC0EFF06F83130594
:1010D0000503A30FA4FEA9452685EFE0BFFFAA8460
:1010E0007D148247D9BF0945EF00101619C5054781
:1010F00009452383E190EF0010171145EF00D0144C
:1011000019C505471145A383E190EF00D015730081
:101110002030EFE2FFF80945EF007040F923EF10AF
:10112000E01CE933EFF0DFA1A14537150140EF00E6
:101130009021813DEFF02FC737250600930540042D
:10114000130505A8C13DEFF02F8CEFF03FCA0965EC
:1011500013054563EFF02FAE1305C05DEF10401C83
:10116000B7350000938545A30145EFF0EFD3B735C0
:1011700000009385C5A30545EFF00FD3B7350000F8
:10118000938545A50545EFF02FD2B735000093852F
:1011900045A70545EFF04FD1B7350000938585A8E9
:1011A0000545EFF06FD01305401FEF106017EFF00B
:1011B0006FA5B7350000938585A90545EFF0CFCE23
:1011C0002945EF10E01537250140854513050540F9
:1011D000EF002071B73500009385C5AA0545EFF0F3
:1011E000AFCC01469305F0021305703EEFF0FF9F70
:1011F000370400011305F4FFEFF09FB0B73500008E
:10120000938505AC0545EFF02FCAB73500009385EF
:1012100085AD0545EFF04FC937360000C9461306C6
:1012200046AF81450945EFF02F8F37360000C146A4
:10123000130686B081450D45EFF00F8E373600005E
:10124000C5461306C6B181451145EFF0EF8C373620
:101250000000C146130606B381451545EFF0CF8B5C
:101260001305007DEF10C00BB7350000938545B422
:101270000545EFF06FC341657D15EFF07FA81305BD
:10128000401FEF10E0093705FF001305F50FEFF0E1
:101290003FA71305401FEF10A008130504F0EFF05F
:1012A0003FA61305401FEF10A0071305F4FFEFF052
:1012B0003FA50145EFF0EF8E138481A1138581A135
:1012C000EFF0EFC518309307F00E6319F700B7354C
:1012D00000009385C5B50545EFF00FBD2946938500
:1012E00081910145EFF0CFD6B7350000938545B722
:1012F0000545EFF06FBBA94513858191EFF08FBED7
:10130000373500008945130505A5EFF0AFBDB735AA
:101310000000938545B80545EFF00FB9B7370000D9
:10132000C1461386C7B981450145EFE0FFFEB735D9
:101330000000938505BB0545EFF00FB7B70500200A
:101340009385850313858190EFF04F9DB7070020AB
:101350001387870308430D4693854191813B3736B8
:101360000000930506BC0545EFF00FB489451385D1
:101370004191EFF02FB7B73700009385C7BC014507
:1013800093844191EFF04FB2890426858545EFF0B3
:101390006FB5B7350000938505BD0145EFF0CFB0BF
:1013A00037360000A946130606BC81450945EFE023
:1013B000BFF68946138641919305C0030945EFE0C6
:1013C000BFF5B73700001386C7BC85469305800478
:1013D0000945EFE07FF4268685469305E00409453C
:1013E000EFE09FF3373600009D46130686BD930558
:1013F00040050945EFE05FF29387819088430D46F1
:1014000093854191EFF09FCA37360000930506BEE1
:101410000545EFF06FA9894513854191EFF08FAC39
:10142000B73700009385C7BC0145EFF0EFA72685CD
:101430008545EFF02FABB7350000938505BF01451B
:10144000EFF08FA637360000B546130606BE81457D
:101450001145EFE07FEC8946138641919305E00446
:101460001145EFE07FEBB73700001386C7BC854618
:101470009305A0051145EFE03FEA268685469305D2
:1014800000061145EFE05FE9373600008546130698
:10149000C6BF930560061145EFE01FE89387C19032
:1014A0009423054793840191639DE602B72601408A
:1014B00013850640D145C929131725003A951317FE
:1014C0006500930540063A95EFE0DFC0B72601407E
:1014D00088C09387C1908545138506402380070007
:1014E00009218840938541911146EFF03FBCB73404
:1014F0000000B546138604C081451945EFE0DFE1E1
:101500001386419191469305E0041945EFE0DFE031
:10151000373600008946130606C193056006194553
:10152000EFE09FDF938504C00545EFF0EF9713854B
:1015300041919145EFF00F9BB7350000938545C170
:101540000145EFF06F9613054006EF00705DB7356B
:1015500000009385C5C10545EFF00F9513845190A8
:10156000EFF07F821C20E38B07DAB735000093850C
:1015700085C20545EFF04F93B7350000938505C44C
:101580000545EFF06F920145EFF06FA4B70500201D
:1015900029469385C5030145EFF0AFB5230004004C
:1015A000B5BB711122C037240140930500481305D3
:1015B0000440CD2E8547631FF5002386A190D145B9
:1015C00013050440D12623A8A190930500481305D4
:1015D0000440FD260244110173002030711122C025
:1015E000374401409305505213050480EF00504CDE
:1015F0001DC913050480EF00904A93874190902302
:10160000370700201307C70393061600329793F697
:10161000F60F08A394A325476377D700238007001C
:101620000547A382E1900244110173002030B717EF
:1016300002409843B706FFFC1367170098C3D843CE
:10164000758FD8C39843B706F7FEFD16758F98C3FC
:101650009843B706FCFFFD16758F98C3D843C17633
:10166000FD16758FD8C337079F0098C7984F13672B
:10167000070298CF3717014003260740930507401C
:101680001376F6F02320C7400326074013660608AA
:101690002320C740094798C9372702401043719A51
:1016A00010C310431366160010C3D843D8C3D843E1
:1016B000F98ED4C3D843B7060001D8C39843558FD9
:1016C00098C3984393166700E3DD06FED843B71628
:1016D0000240719BD8C3D84313672700D8C3214762
:1016E000DC42B18BE39EE7FE8280EFE27F9B3717FF
:1016F00002405C43370400209146B18B130404017F
:101700006385D700A1466382D704B7376E019387FC
:1017100007601CC0B7160240DC420840918313F7F3
:10172000F700B707002093870700BA978C23DC42A5
:1017300093F5F50F93F707083357B50081E7EFE00E
:101740007F992A8718C06FE05F965C43B777DC0209
:10175000938707C07DBF01A001A001A001A001A047
:1017600001A001A001A001A001A001A001A001A071
:1017700001A001A001A001A001A001A001A001A061
:1017800001A001A001A001A001A001A097F1FF1FED
:101790009381C10A138181FC171500001305054CC4
:1017A00097F5FF1F9385058617F6FF1F1306068919
:1017B00063FAC5008322050023A055001105910599
:1017C000E3EAC5FE17F5FF1F13054587938541A280
:1017D0006377B500232005001105E36DB5FE930284
:1017E0000008739002308D427390428097F2FFFFA1
:1017F0009382428193E2320073905230EFF03FE3E4
:10180000970200009382229173901234730020306B
:10181000B727014093870740631EF500EFE25F881A
:10182000854513050020412D8145130500206125C4
:101830006FE0BF8782805C413707F1FF1307F7EF46
:101840007D8FDC419441A207D58FD98F5CC11C45A7
:1018500037F7F1FF1307D77FD4457D8F9C49D58F8C
:1018600094458606D58FD98F1CC55C55370710FF68
:101870007D177D8FDC29FD1793F7F70FD207D98FDE
:101880005CD582801C4589C593E717001CC5828002
:10189000F99BEDBF5C4193F5F50F01C6DD8D4CC1A1
:1018A000828093C5F5FFFD8DDDBF1C4593E7870062
:1018B0001CC5828008450D81058982801C4593E7FF
:1018C00047001CC5828008450981058982801C4526
:1018D00089C52167D98F1CC5828061777D17F98FF3
:1018E000DDBF1C4591C537872000D98F1CC582807C
:1018F0003787DFFF7D17F98FD5BFA54763FBB70497
:10190000138765FF931717008322C500BA971D43FD
:101910003313F3001343F3FF33735300B397F6000D
:10192000B3E767005CC5185D0906935747018D8BC7
:101930001D8E1376F60F931726003E96FD47B3973C
:10194000C70093C7F7FFF98FB395C500DD8D0CDD98
:1019500082809397150003230501AE971D47331727
:10196000F7001347F7FF33776700B397F6005D8FF3
:1019700018C955BF1C5D3707D0FF7D17FD15F98FBE
:10198000D205DD8D0CDD8280711102C02AC0824734
:1019900093878702BE952EC0824788431101420576
:1019A000418182805841144193D78500F58F99C7B2
:1019B00013F5F50F798D3335A000828001458280C3
:1019C000A18193C5F5FF0CC182805C41370700FA05
:1019D0007D17F98F5CC15C41DD8D4CC1828058411F
:1019E000032305004C4537060140930706403E9708
:1019F0009346F3FFB1C583250640F58D2320B640FD
:101A0000D043F18ED4C31443B3E6660014C3184127
:101A100090479346F7FF758E90C7D047F18ED4C795
:101A2000144541466399C6009447D98E94C7D4475C
:101A3000558FD8C78280B6979443558F98C38280BC
:101A40001C43F58F1CC38280B707014013870740F2
:101A500083A70740584B698F09C77D8D3335A00098
:101A6000828001458280B707014023AAA740828077
:101A70009C45611122C226C013F7070113F3F7003A
:101A800001C7D8413363E30092211377F60F29C7CA
:101A900083230500014713048002930480048546D4
:101AA000B395E600B376B6006392D5029312270091
:101AB000BD46B396560093C6F6FFB3F37600B31255
:101AC0005300B3E37200639787064CC90507A1462C
:101AD000E317D7FC232075001307F00F6378C704C2
:101AE00083234500A1461304800293048004054724
:101AF000B312D700337756006394E202139726009F
:101B00000117BD45B395E50093C5F5FFB3F3750027
:101B10003317E300B363770063928702232A5500EB
:101B200085064147E395E6FC232275001244824472
:101B300021018280E39C97F80CC949BFE39297FE8C
:101B400023285500F1BF0CC982804CC98280370719
:101B50000140144786058D47B397B70093C7F7FF39
:101B6000F58F1CC71C47B315B500DD8D0CC78280EF
:101B7000EFE20FD3111146212A8428002EC08524BC
:101B8000C246C204C18093F404FCB7450F0093859C
:101B900005243685C20436C2C180EFE0AFD3458D3F
:101BA000420541814AA01E209246C207C183F99B8B
:101BB000C207C1831EA082479043E1679387076AEB
:101BC0009315160063E6C7043685EFE0AFD0AA8709
:101BD0004205418191466373D500914713950701F2
:101BE00041814AAC1E20024793E717001EA01E2029
:101BF00056233227C207C183D18E93F757BFD58FA3
:101C00001EA016275E27D58F1EA471016FE0EFC9B5
:101C10008247EA23B167FD176310F502B295368556
:101C2000EFE04FCB420541819317450199E31365DE
:101C30001500A1675D8D75B7B387C5008E07B385A5
:101C4000C7003685EFE00FC94205418191675D8D80
:101C5000E1BF1E2189C593E717001EA18280C2073C
:101C6000C183F99BC207C183CDBF1E2189C593E7FC
:101C700007101EA18280C207C18393F7F7EFC20746
:101C8000C183C5BF1E2189C593E707201EA182809D
:101C9000C207C18393F7F7DFC207C183C5BF1E2107
:101CA00089C593E707401EA18280C207C18393F7CD
:101CB000F7BFC207C183C5BF0EA982800A29137569
:101CC000F50F828093F7E50F19C293E71500C2075D
:101CD000C1831EA982805E290A2D42055D8D6D8D0E
:101CE000220521810D8D133515008280611102C0FE
:101CF00002C293D7C5012AC23EC08247A205A18174
:101D000099CB9247D1073EC29247884321016D8DFE
:101D10003335A00082809247C181E107EDB723AE41
:101D2000A1A082809387C1A19443182181E63C2120
:101D3000920721A894430546639FC6023C211031B7
:101D400092076314D60093E707F8B7E600E093F72D
:101D5000F70FBA962380F64085469357570033977E
:101D6000E6005441A5C2938707048A07B7E600E05E
:101D7000B69798C382808C4389466391D50214310B
:101D80003C216365D6008A06B6975DB79386E60365
:101D90008A06B69793F7F70F920775B790438D466B
:101DA000631CD60014313C216364D6008606E9BF6B
:101DB0009386C6078606F1BF94439147E39EF6F8E3
:101DC0001C31BDB7938707064DB7B7160240DC42FA
:101DD00041771307F77FF98F5D8DC8C28280EFE2EC
:101DE0002FAC371702405C4391462A84B18B638540
:101DF000D700A146638DD706B7376E01938707607A
:101E00001CC0B7160240DC42918313F7F700B707F6
:101E1000002093878702BA978C23DC42184093F501
:101E2000F50F93F707083355B70081E73A85EFE0E0
:101E30006FAA48C008C448C4B7170240DC43AD834A
:101E4000FD8B13D737008A07F18BD98F93F63701B3
:101E50000D476373D700D1173707002013074701D9
:101E6000BA978C23EFE00FA708C86FE00FA45C437C
:101E7000B777DC02938707C061B799C5371702406F
:101E80001C4F5D8D08CF8280B7170240984F1345D5
:101E9000F5FF798D88CF828099C5371702405C4F56
:101EA0005D8D48CF8280B7170240D84F1345F5FFAC
:101EB000798DC8CF828099C5371702405C475D8D08
:101EC00048C78280B7170240D8471345F5FF798D80
:101ED000C8C782801A218D6793870704B6217D8F3A
:101EE0009E21D58FD621D58FF621D58F9625D58FDA
:101EF000B625D58FD625D58FF625D58FD98F1EA19E
:101F00009E291EA982801E2189C593E707041EA170
:101F10008280C207C18393F7F7FBC207C183C5BFA5
:101F20004EA582804A2582800A256D8D3335A0001A
:101F300082801E2137370140130707C0C207C183C3
:101F40006306E500370700406316E500BA2193F702
:101F5000F7F8D98FFA2193F7F7CFC207C183D98F4A
:101F60001EA1DE215EB59E211EB5B73701409387C5
:101F700007C06314F5009C251EB985475EA98280C1
:101F80001E31922103D32500C207C183F99BC207EA
:101F9000C1831EB11E3156211A2DC207C1834207CB
:101FA00041831377C7F8518F9225F59BC20633669C
:101FB0006600D18F37360140130606C0C182631018
:101FC000C502B225DD9B03D3E500D18FD221ED9B65
:101FD00093F6F6CFD18FD22533666600D18E56A107
:101FE0001AADFA2158D91EB182801E3165771307C8
:101FF000F7CFC207C183BD9BC207C1831EB11E318B
:10200000562103D38500C20713960601162DC183FE
:1020100093F7F7FD758F96214182A206558FB62161
:1020200042074183B3E666009206D58FB73601407A
:10203000C207938606C0C183631ED502B62593F7F7
:10204000F7F703D3C5009206D58FD621C207C18307
:10205000920693F7F7FBD58FFD769386F63FF18EC8
:10206000F225C207C183336666000A06D18E139635
:102070000601418252A11AADFA2118DD1EB18280FB
:102080001A31FD77FD17F98F1EB1035305025A214E
:102090005E2DE5769386F6CFFD8E9E211316070101
:1020A000BA21A207DD8EF977FD17B3F7670003D3D6
:1020B0008500C2064182336767003207D98F373700
:1020C0000140C207130707C0C182C183631BE5003B
:1020D00071777D17718FD2251A06518F131607015C
:1020E0004182FA2152A156AD38C11EB182801E2113
:1020F00089C593E717001EA18280C207C183F99B9F
:10210000C207C183CDBF8357450491C52167D98FCD
:102110002312F5048280C607C583DDBF1E2189C551
:1021200093E707081EA18280C207C18393F7F7F7E0
:10213000C207C183C5BF1E2DC207C183DD9BDD8DD4
:102140000EAD82801A2DFD779387F77FF98FA20558
:10215000CD8FC207C1831EAD82805A2DFD77938734
:10216000F77FF98FA205CD8FC207C1835EAD828054
:102170004CD982800CDD82802CC18280EFD25FF24C
:102180001629F577FD17F58FF621DA252111D58F60
:102190001EA95625FD779387379FF58FD6212A8470
:1021A0002EC0D58F9625D58FB625D58F5EA55E29F5
:1021B000C207C18393F7F7CF5D8F5AA94800EFF0AC
:1021C0001FC2B74701409387078082456312F40618
:1021D000C2475A24139517003E9542070E054187C2
:1021E0003E958C41635807048605EFD0BFEE9305FA
:1021F00040062AC0EFD01FEE824793144500930596
:1022000040063E85EFD0DFEF5E24C207C18763D56D
:1022100007020E059305400613052503EFD09FEB3B
:102220001D89C98CC204C18006A461016FD0FFE77B
:10223000B24745B78A0555BF1205930540061305F9
:102240002503EFD03FE93D89E9BF91C55E250967C8
:10225000D98F5EA582805A25F977FD17F98FD5BFF2
:1022600013F7F50F85471583B395B7006319F7008A
:102270009307C500984301CED98D8CC382808946CF
:1022800093074501E318D7FE93070501E5B793C50A
:10229000F5FFF98DDDB793F5F51F4EA182804A2138
:1022A0001375F51F82800A216D8D3335A000828061
:1022B00013F7F50F85461583B397B6006311D70260
:1022C0005A25F98F1A2101454207418381CB0545E3
:1022D000A181B315B5006D8F3335E000828089464A
:1022E0006314D7001A29F1BF5A29E1BFEFD25FDB8F
:1022F000B707002003A50701B7157A0093850520CD
:10230000EFD05FDD1375F50F2381A1A29317550060
:10231000898F8A073E950E052390A1A26FD0FFD822
:10232000EFD21FD837F400E05C40AA85F99B5CC06F
:1023300003D501A2EFD01FD808C8232404001C40F5
:1023400093E717001CC0B7F700E0D843058B75DF93
:102350009843799B98C36FD05FD5AA87850703C739
:10236000F7FF6DFF3385A7407D15828000000000D8
:102370000000FF1C3E3E3E1414FF081C1C3E7F7FE5
:10238000FF600070007C00FF242A7F2A1200FF23D8
:102390001308646200FF08141422417FFF00050344
:1023A000000000FF001C22410000FF0041221C0031
:1023B00000FF14083E081400FF5C6202625C00FF2C
:1023C000503000000000FF080808080800FF006007
:1023D00060000000FF201008040200FF3E51494544
:1023E0003E00FF40427F404000FF426151494600AD
:1023F000FF2141454B3100FF1814127F1000FF27C9
:102400004545453900FF3C4A49493000FF01710903
:10241000050300FF364949493600FF064949291E90
:1024200000FF003636000000FF7E7949797E00FF0C
:10243000081422410000FF141414141400FF00417A
:1024400022140800FF787949797E00FF3E415D55EE
:102450001E00FF7E1111117E00FF7F4949493600A1
:10246000FF3E4141412200FF7F4141221C00FF7F8E
:102470004949494100FF7F0909090100FF3E4149DF
:10248000497A00FF7F0808087F00FF00417F410074
:1024900000FF2040413F0100FF7F0814224100FF60
:1024A0007F4040404000FF7F020C027F00FF7F041E
:1024B00008107F00FF3E4141413E00FF7F090909AE
:1024C0000600FF3E4151215E00FF7F0919294600A9
:1024D000FF264949493200FF01017F010100FF3F0A
:1024E0004040403F00FF1F2040201F00FF3F40387A
:1024F000403F00FF631408146300FF0708700807DB
:1025000000FF615149454300FF007F41410000FF4A
:10251000020408102000FF0041417F0000FF040278
:1025200001020400FF404040404000FF000003055E
:102530000000FF205454547800FF7F444444380086
:10254000FF384444444400FF384444447F00FF388B
:102550005454541800FF04047E050500FF08545429
:10256000543C00FF7F0804047800FF00447D4000D5
:1025700000FF2040443D0000FF7F1028440000FF82
:10258000417F40000000FF7C047C047800FF7C0851
:1025900004047800FF384444443800FF7C141414C9
:1025A0000800FF081414147C00FF7C0804040000D9
:1025B000FF485454542400FF04043F444400FF3CAB
:1025C0004040207C00FF1C2040201C00FF3C40308D
:1025D000403C00FF442810284400FF0C5050503C61
:1025E00000FF4464544C4400FF083641410000FFA2
:1025F000000077000000FF004141360800FF080896
:102600002A1C0800FF081C2A080800FFFFFFFFFF24
:10261000FF00FF005B494E464F5D3A005B4552525A
:102620004F525D3A000000005B414C4552545D3A08
:10263000000000000000000000000000000000009A
:10264000000000000000000000000000000000008A
:10265000000000000000000000000000000000007A
:10266000000000000000000000000000000000006A
:10267000000000000000000000000000000000005A
:10268000000000000000000000000000000000004A
:10269000000000000000000000000000000000003A
:1026A000000000000000000000000000000000002A
:1026B000000000000000000000000000000000001A
:1026C000000000000000000000000000000000000A
:1026D00000000000000000000000000000000000FA
:1026E00000000000000000000000000000000000EA
:1026F00000000000000000000000000000000000DA
:1027000000000000000000000000000000000000C9
:1027100000000000000000000000000000000000B9
:1027200000000000000000000000000000000000A9
:1027300000000000000000000000000060E0F0F871
:10274000F8F8FCFCFCFCFCFCF8F8F8F0F0E0C080C9
:10275000E0E0F0F8F8F8FCFC7C7CFCFCFCF8F8F01D
:10276000F0E0C0800000000000000000000080C019
:10277000E0E070707060E0400000000000C0E0E049
:10278000E0C00000000000E0E0E060606060E0E0C9
:10279000800000E0E0000000000000E0E0E0000059
:1027A000E0E0E06060606060600000000000000049
:1027B0000000000000000000000000000000010315
:1027C00003010000000000000101030FFFFFFFFFF5
:1027D000FFFFEFE7E1E1E0E0E0E0E0E0E0E1E3E798
:1027E000FFFFFFFFFFFCE00000000000000E3F7F46
:1027F000E1C0C0C0C0C0E0C00080E0FC7F7F63617A
:10280000677FFEF8C00000FFFFFF1C1C1C1C0F0FA1
:102810000700003FFFE0C0C0C0C0E0FF7F1F000016
:10282000FFFFFF0C0C0C0C0C0C0000000000000063
:10283000000000000000000000000080C0E0F0E0A8
:10284000C0C08080808080C0C0E0E0F0FFFFFFFF5C
:10285000FFFFFBE3C3C3838383838383D3F3F3F358
:10286000F3F3F3F373130100000000000000F0D055
:102870009090911101C1C04060C1C16160C0000071
:10288000F8406061C18000C1C16160C00000C0400B
:102890006040F0F00080C16141C1F80000C060609C
:1028A000C1C10180C0606040F8000000000000006D
:1028B0000000000000000000000000010307070FF7
:1028C0000F0F1F1F1F1F1F0F0F0F0707030100010F
:1028D000030307070F0F0F0F0F0F0F0F0F0F070740
:1028E0000F0F0300000000000000000000000705BB
:1028F00004040404000707000007000000070000AC
:1029000007040C0C07030007070D0D050100070461
:102910000C0407070003060C040607000107050D59
:1029200005050003070C0C04070000000000000070
:102930000000000000000000000000000000000097
:102940000000000000000000000000000000000087
:102950000000000000000000000000000000000077
:102960000000000000000000000000000000000067
:102970000000000000000000000000000000000057
:102980000000000000000000000000000000000047
:102990000000000000000000000000000000000037
:1029A0000000000000000000000000000000000027
:1029B0000000000000000000000000000000000017
:1029C0000000000000000000000000000000000007
:1029D00000000000000000000000000000000000F7
:1029E00000000000000000000000000000000000E7
:1029F00000000000000000000000000000000000D7
:102A000000000000000000000000000000000000C6
:102A100000000000000000000000000000000000B6
:102A200000000000000000000000000000000000A6
:102A3000000000000D0A0D0A000000004348333278
:102A40005630303320444556204B495420312E30E7
:102A50000D0A0000444556454C4F5045442042590C
:102A60003A20434150554620454D42454444454453
:102A70000D0A0000554152543A2031313532303080
:102A80002D312D6E0D0A0000504F574552205550E4
:102A900020424545500D0A004F4C454420434F4EBF
:102AA00046494720444F4E450D0A0000414443200B
:102AB000434F4E46494720444F4E450D0A00000003
:102AC000524742204C454420434F4E4649472044FC
:102AD0004F4E450D0A00000053595354454D2043B5
:102AE0004F4E46494720434F4D504C4554450D0AE3
:102AF0000000000020204348333256303033204459
:102B00004556204B4954000020202020444556457E
:102B10004C4F5045442042590000000020202043E3
:102B20004150554620454D4245444445440000002F
:102B3000202020205757572E43415055462E494EAE
:102B400000000000524742204C4544205445535455
:102B500020434F4C4F520D0A00000000464C415399
:102B6000482049442052454144205355434345534E
:102B7000530D0A00535049204441544120524541CD
:102B8000443E0000454E544552494E47205355504F
:102B900045524C4F4F500D0A00000000434833325D
:102BA0005630303320444556204B49540000000035
:102BB0004D454153555245205426480D0A0000000A
:102BC00048554D49444954593A2000002E00000010
:102BD000202552480D0A00002025524820202000C0
:102BE00054454D50455241545552453A200000003D
:102BF0002044656720430D0A0000000043000000E8
:102C0000504F5420564F4C544147453A2000000045
:102C10006D5600006D560D0A000000004C45442022
:102C2000424C494E4B0D0A005541525420444154E8
:102C300041205245434549564544203A290D0A0052
:102C4000464C415348204441544120575249544531
:082C500020444F4E450D0A001F
:102C58000102030405060708010203040506070824
:102C6800006CDC020204060804080C100810182086
:102C78001020304020406080010203040506070848
:082C8800010203040506070820
:00000001FF
