:100000006F10C03E00000000D0060000D4060000C3
:1000100000000000000000000000000000000000E0
:1000200000000000000000000000000000000000D0
:10003000BA13000000000000BC1300000000000024
:10004000BE130000C0130000C2130000C413000060
:10005000E60D0000C8130000CA130000CC13000016
:10006000CE130000D0130000D2130000D413000000
:10007000D613000002120000DA130000DC130000A7
:100080003C120000E0130000E2130000E413000043
:10009000E6130000E8130000EA130000000000006F
:1000A000511126C022C206C4828282441244A24058
:1000B000310182802A86014593F6150091C232955E
:1000C00085810606F5F9828000000000634E050276
:1000D00063C305042E86AA857D5515C285466378BF
:1000E000B6006356C00006068606E36CB6FE014500
:1000F00063E4C500918D558D85820582F5FA828075
:100100008682C93F2E8582823305A04063D70500D1
:10011000B305B040C1B7B305B0408682653F330533
:10012000A0408282868263C70500634905005D376F
:100130002E858282B305B040E35B05FE3305A04007
:10014000513F3305B040828200003D432A876373EC
:10015000C3029377F700BDEFADE5937606FF3D8AC6
:10016000BA960CC34CC30CC74CC74107E36BD7FE10
:1001700011E28280B306C3408A0697020000969679
:100180006780A6002307B700A306B7002306B700C1
:10019000A305B7002305B700A304B7002304B700E5
:1001A000A303B7002303B700A302B7002302B700DD
:1001B000A301B7002301B700A300B7002300B700D5
:1001C000828093F5F50F93968500D58D9396050162
:1001D000D58D61B793962700970200009696868288
:1001E000E78086FA9680C1171D8F3E96E374C3F8A8
:1001F000A5B7EFF2FFEA711102C0CC8009468A85EB
:10020000D92911015DB5EFF2BFE9011169468145B8
:100210004800253FB717B0C8938707023EC0C147C3
:10022000DC82E177938707147C83B7A7A6A893871E
:10023000F71F3EC4E9779387F7437C86930730FD29
:100240005C87B7F7D9229387570D3EC8B717DB20D5
:100250009387A72D3ECA85679387D748FC84930769
:10026000F0FA230DF1000144B30781008C2313053C
:10027000C0030504BD3FF147E318F4FE056135B541
:10028000EFF21FE2930505FB93F5F50F1305C0038D
:100290008D3721BDEFF2DFE02A849375F500130559
:1002A000C003813F93554400C1051305C003913736
:1002B000EDBBEFF2FFDE21119307000402C632C24C
:1002C00036C05C862EC402C8231A0100553FA245E1
:1002D0002E85C9371246824678009317360033863A
:1002E000C7408967938707F7B2970145BA858507A5
:1002F0000507130615006319D50042064182130550
:10030000C003D12E610155B303C5F7F108A31375DE
:10031000F60FF1BFEFF2DFD861112A87AE84B28702
:10032000368419E0210151B303860700A6853A857A
:1003300099463EC23AC0B53F924799047D1493F462
:10034000F40F85071374F40F0247E1BFEFF25FD596
:10035000130141F72EC22A84B28481451306200876
:10036000280036C0DD33924782465C84814763ECC7
:10037000D7008506139606012C0041822285A12E06
:100380001301C1081DB33386F400102278013E9793
:100390008507A30EC7F693F7F70FD1BFEFF25FD033
:1003A00019712A841306000881450A85793B814723
:1003B00013070008B306F10080A28507E39CE7FE5F
:1003C0001304000BA2851305C003253581451305D1
:1003D000C0030535C1451305C003213D9306000840
:1003E0000A86930500041305C0038D3705041374B2
:1003F000F40F9307800BE317F4FC09617DB1EFF272
:100400003FCA1305F00F593F13054006EF10703136
:100410003D4569371305A00FEF10B0301305000FED
:10042000B53F1305A00FEF10D02F0145853FB5B99B
:10043000EFF21FC761119307A0FB4C0002C20946EF
:10044000130580035C8202C0792413054006EF1077
:10045000502D8A85054613058003B126030501004A
:100460002101A1B1EFF2DFC3611185679387E78BAB
:100470004C000D46130580037C8202C0231301004B
:10048000992C13054006EF10D0298A8505461305DF
:100490008003112E0880210109B9EFF27FC061119C
:1004A0008D679387C73A4C000D46130580037C8205
:1004B00002C023130100052413054006EF10702627
:1004C0008A85054613058003F92C08802101F1BEB9
:1004D000EFF21FBD51112A84AE8405468A851305AB
:1004E000800302C002C223140100752C1C80A18B62
:1004F00099E33D3F853F5537058911E51D468A85BE
:10050000130580034D241C819880A207D98F13976F
:100510008700A183D98F9881C207C1839207935620
:100520004700DD8E93975600958F8A07B6978E0702
:10053000D1839CC01C823D8B22075D8F9C82220749
:100540005D8F93175700998F8A07BA979207D183C7
:100550009387C7E01CC0310189BEEFF27FB41165FB
:100560001301C1FD85451305050202C402C602C878
:1005700002CA02CC02CE02D002C002C2EF10E05585
:10058000930700027C84371401408D473EC62C003F
:10059000E147130504403EC8EF10801393070004A1
:1005A0007C842C009147130504403EC8EF10401294
:1005B000F16737440140938707203ECA4C08B707CC
:1005C0000C00130504803ECE02CC23100102EF1074
:1005D000007B05469305505213050480EF10700808
:1005E000930700127C8085475C810A8585473EC25F
:1005F000EF104039854513050480EF1030051301D5
:10060000410265B4EFF2DFA97111AA84EF10101551
:1006100093170501C1833EC00144824713170401AB
:100620004183637BF7023747014093060780368595
:1006300093050008EF105007B747014093860780E5
:10064000374701406DD5B38684008C22130507809F
:100650000504EF107004D1B7110181BCEFF25FA463
:1006600085472E84631AF500372500001305852180
:10067000513F2285413F15BC8D476317F500372553
:10068000000013050522EDB78947E314F5FE372571
:1006900000001305C522E9BFEFF29FA02A84B3042E
:1006A000B50063069402B7470140138707803A8577
:1006B00093050008EF10407FB7470140138707807C
:1006C0007DD50C203A850504EF10007DD9BFF1BA25
:1006D0007300203001A0EFF2BF9C7111B7570040AA
:1006E0002A84AE8432C0138707403A85B7050200DA
:1006F000EF10C025B7570040138707407DF58545AB
:100700003A85EF10801CB707030085073757004074
:10071000BE8513050740EF100022B70703003757C7
:100720000040850765D593151400014693F5E50F44
:100730001305074037040700EF10C01E13042408F8
:1007400037550040A28513050540EF10C01E6DD936
:1007500001448247636CF40037550040854513051A
:100760000540EF10201811016FF03F94B38784000B
:100770008C233755004013050540EF10E019B707EB
:1007800007009387470837550040BE85130505408D
:10079000EF10601AB7070700938747086DD5050467
:1007A0001374F40F7DB7EFF2BF8F71112AC0375564
:1007B0000040AE841305054085453284EF10E010FB
:1007C000B7070300850737570040BE85130507406C
:1007D000EF106016B707030037570040850765D54F
:1007E00082470546130507409395170093F5E50FDB
:1007F000EF104013B7070300890737570040BE8545
:1008000013050740EF102013B707030037570040C8
:10081000890765D5854513050740EF10400E19E897
:1008200037550040854513050540EF10A00B110119
:100830006FF0BF8785476319F40037550040814545
:1008400013050540EF10A00BB7570040B705001087
:100850001385074093850504EF10400FB7570040FC
:100860005DDD138507407D14EF10400B420488A026
:10087000418085046DB7EFF2BF82AA84056513013C
:1008800041FD2E8413050583854532C002C802CA86
:1008900002CC02CE02D002D202D402C202C423167B
:1008A0000100EF10802385450545EF10E024B14796
:1008B000FC8037150140E1473ECC0C088D471305FD
:1008C00005403ECAEF00D060C1470C083715014013
:1008D000FC80EF00F05F6082373401404C0013056C
:1008E00004C064842315010023130100EF10802449
:1008F0004C0037050040EF10E0230246C1679387A4
:1009000007076C08130504C03ECE2311C102231251
:100910000102EF1000276C08130504C0EF106036C9
:100920006C0837050040EF10602C130504C08545A6
:10093000EF10803D130504C08145EF10E03F130523
:1009400004C08145EF108041130504C08545EF10B8
:10095000003D130504C08545EF10803985453705F6
:100960000040EF10603A814537050040EF10A03D90
:10097000854537050040EF10803A85453705004032
:10098000EF1000371301C1026FF02FF2EFF24FF1B9
:100990009377F50F2A84139557001D8D0A053E9510
:1009A0009305F00F0E05EFF0EFF293150501C181ED
:1009B00037050040EF10203C135584009377F50F66
:1009C000139557001D8D0A053E959305F00F0E05F2
:1009D000EFF04FF0B734014093150501C181138545
:1009E00004C041801374F40FEF1020391315540024
:1009F000018D0A0522959305F00F0E05EFF08FED9E
:100A000093150501C181138504C0EF1080366FF086
:100A1000CFE9EFF2EFE837140140854513050440B4
:100A2000EF00705813052003EF10A04F8545130504
:100A30000440EF00905713052003EF10804E8545CA
:100A400013050440EF00305613052003EF10604DEE
:100A5000854513050440EF00505513052003EF10A2
:100A6000404C854513050440EF00F0531305401F2B
:100A7000EF10204B6FF06FE3EFF28FE285453715F3
:100A80000140EF0050521305A00FEF10804985453B
:100A900037150140EF0070511305A00FEF106048AB
:100AA000854537150140EF00105013052003EF1066
:100AB0004047854537150140EF00304F13052003AF
:100AC000EF102046854537150140EF00D04D130546
:100AD0002003EF100045854537150140EF00F04C2D
:100AE00013052003EF10E0436FF02FDCEFF24FDB34
:100AF000130141FD614681454808EFF00FE585454A
:100B00001305000202C402C602C802C002C2EF00FE
:100B1000D07C854513050020EF00307C3165EF0067
:100B2000D07037150140C1472C001305054037240C
:100B300001407C8402C8EF00B03913050440EF0087
:100B400030139D673ED04C088547130504402304AD
:100B5000F10202CA02CC02CE02D2EF00D0138545C8
:100B600013050440EF0010279D4605469D451305DB
:100B70000440EF00901E814513050440EF00301B38
:100B80009307D0217C800A8585473EC2230101005E
:100B9000EF00505FB705000213050440EF00F02896
:100BA00005469305004813050440EF00B014854541
:100BB00013050440EF00101313050440EF00F01478
:100BC000930404402685EF00F0146DFD13050440E6
:100BD00037240140EF009014130404402285EF00F5
:100BE00090146DFD1301C1026FF02FCCEFF24FCBCB
:100BF00041118545114502C202C402C6EF00F06DE5
:100C000085454145EF00706D854513050002EF00F5
:100C1000D06CB717014041448D4405471385074008
:100C20004C0078823AC022C626C4EF00702A0247E0
:100C30004C0037150140788222C626C4EF005029A7
:100C4000B71701401147138507404C00788222C630
:100C500026C4EF00F0274C0037150140608222C601
:100C600026C4EF00F026B717014021474C0013853A
:100C70000740788222C626C4EF00902541016FF01C
:100C8000CFC2EFF2EFC11301C1FD85451545B71481
:100C9000014002C402C602C802CA02CC02CE02D07F
:100CA00002C002C2EF007063114489472C00138513
:100CB00004807C8422C8EF00B0212C0013850480BE
:100CC000608422C8EF00D02085450145EF00302E1A
:100CD000894785443ECA4808B1473ECE26D002CC5B
:100CE000EF00F01589450145EF00702CB147480829
:100CF00022CA3ECE26D002CCEF007014D1470A851E
:100D00007C8026C223010100EF00D047130141027D
:100D10006FF0AFB9EFF2CFB81301C1FD2AC22EC0F8
:100D20004545854502C402C602C802CA02CC02CEAD
:100D300002D0EF00905A854537052000EF00D05BC8
:100D40009146F1440D442C0037150140748426C8A7
:100D500022C6EF00F01789462C0037150140748435
:100D600026C822C6EF00D0168247124737540040EB
:100D7000FC86930700403ACAFC873707FFBF91679C
:100D80004C08130504403ACC2310F102EF00502424
:100D9000130504408545EF00D03185451305044017
:100DA000EF00F035130141026FF02FB0EFF24FAFBB
:100DB0007111AA84AE873384C50063958700110141
:100DC0006FF0AFAEA94526853EC0EFF06FB31305B7
:100DD0000503A30FA4FEA9452685EFF0AFAFAA84B3
:100DE0007D148247D9BF0945EF00100C19C505478E
:100DF00009452383E190EF00100D1145EF00D00A63
:100E000019C505471145A383E190EF00D00B73008E
:100E10002030EFF2EFA80945EF0070363D23EF10C8
:100E2000000DE933B93DEFF04FF3616593054004E0
:100E30001305056AC535EFF00FBD4D393539B725B6
:100E40000000938585230145EFF05F81B725000001
:100E5000938505240545EFF07F80B7250000938535
:100E600085250545EFF08FFFB72500009385852781
:100E70000545EFF0AFFEB72500009385C528054571
:100E8000EFF0CFFD1305401FEF10A009EFF02FD7B3
:100E9000B72500009385C5290545EFF02FFC2945AE
:100EA000EF10200837250140854513050540EF0068
:100EB0004069B72500009385052B0545EFF00FFA33
:100EC00001469305F0021305703EEFF0DF9A3704F8
:100ED00000011305F4FFEFF07FABB7250000938509
:100EE000452C0545EFF08FF7B72500009385C52DFC
:100EF0000545EFF0AFF637260000C9461306862FEA
:100F000081450945EFF00FC137260000C1461306A1
:100F1000C63081450D45EFF0EFBF37260000C546CE
:100F20001306063281451145EFF0CFBE372600008B
:100F3000C1461306463381451545EFF0AFBD130595
:100F4000007DEF00107EB7250000938585340545B0
:100F5000EFF0CFF041657D15EFF05FA31305401F63
:100F6000EF00307C3705FF001305F50FEFF01FA2EF
:100F70001305401FEF00F07A130504F0EFF01FA1F6
:100F80001305401FEF00F0791305F4FFEFF01FA0E9
:100F90000145EFF0AFC0B725000093850536054544
:100FA000EFF0CFEBB7270000C146138687378145A6
:100FB0000145EFF02FB6B72500009385C5380545EC
:100FC000EFF0CFE9B7050020938585031385819065
:100FD000EFF00FD0B70700201387870308430D46B3
:100FE00093854191E133372600009305C6390545C5
:100FF000EFF0CFE6894513854191EFF0EFE9B72790
:1010000000009385873A014593844191EFF00FE505
:10101000890426858545EFF02FE8B72500009385E4
:10102000C53A0145EFF08FE337260000A9461306C5
:10103000C63981450945EFF0EFAD894613864191E8
:101040009305C0030945EFF0EFACB7270000138606
:10105000873A8546930580040945EFF0AFAB2686B5
:1010600085469305E0040945EFF0CFAA3726000036
:101070009D461306463B930540050945EFF08FA9B1
:101080009387819088430D46938541910533372698
:1010900000009305C63B0545EFF04FDC89451385FD
:1010A0004191EFF06FDFB72700009385873A014544
:1010B000EFF0CFDA26858545EFF00FDEB72500008B
:1010C0009385C53C0145EFF06FD937260000B54642
:1010D0001306C63B81451145EFF0CFA38946138621
:1010E00041919305E0041145EFF0CFA2B72700002E
:1010F0001386873A85469305A0051145EFF08FA129
:1011000026868546930500061145EFF0AFA03726E9
:10111000000085461306863D930560061145EFF0F5
:101120006F9F9387C1909423054793840191639D9A
:10113000E602B726014013850640D14575211317F5
:1011400025003A9513176500930540063A95EFE0A0
:101150007FF8B726014088C09387C19085451385E5
:10116000064023800700F12E884093854191114667
:101170003539B7240000B5461386C43D814519456D
:10118000EFF04F991386419191469305E00419457C
:10119000EFF04F983726000089461306C63E9305A8
:1011A00060061945EFF00F979385C43D0545EFF0B4
:1011B000EFCA138541919145EFF00FCEB72500009E
:1011C0009385053F0145EFF06FC913054006EF0019
:1011D0005055B72500009385853F0545EFF00FC8B2
:1011E00013845190EFF0FF821C20E38D07DAB725BE
:1011F0000000938545400545EFF04FC623000400ED
:1012000055B3711122C037240140930500481305DE
:101210000440CD2E8547631FF5002386A190D1455C
:1012200013050440D12623A8A19093050048130577
:101230000440FD260244110173002030711122C0C8
:10124000374401409305505213050480EF00704667
:101250001DC913050480EF00B0449387419090238B
:10126000370700201307C70393061600329793F63B
:10127000F60F08A394A311476377D70023800700D4
:101280000547A382E1900244110173002030B71793
:1012900002409843B706FFFC1367170098C3D84372
:1012A000758FD8C39843B706F7FEFD16758F98C3A0
:1012B0009843B706FCFFFD16758F98C3D843C176D7
:1012C000FD16758FD8C337079F0098C7984F1367CF
:1012D000070298CF371701400326074093050740C0
:1012E0001376F6F02320C74003260740136606084E
:1012F0002320C740094798C9372702401043719AF5
:1013000010C310431366160010C3D843D8C3D84384
:10131000F98ED4C3D843B7060001D8C39843558F7C
:1013200098C3984393166700E3DD06FED843B716CB
:101330000240719BD8C3D84313672700D8C3214705
:10134000DC42B18BE39EE7FE8280EFE27FD5371768
:1013500002405C43370400209146B18B1304040122
:101360006385D700A1466382D704B7376E019387A0
:1013700007601CC0B7160240DC420840918313F797
:10138000F700B707002093870700BA978C23DC4249
:1013900093F5F50F93F707083357B50081E7EFE0B2
:1013A0007FD32A8718C06FE05FD05C43B777DC0239
:1013B000938707C07DBF01A001A001A001A001A0EB
:1013C00001A001A001A001A001A001A001A001A015
:1013D00001A001A001A001A001A001A001A001A005
:1013E00001A001A001A001A001A001A097F1FF1F91
:1013F0009381C144138181FC171500001305450238
:1014000097F5FF1F938505C017F6FF1F130606C348
:1014100063FAC5008322050023A05500110591053C
:10142000E3EAC5FE17F5FF1F130545C19385019239
:101430006377B500232005001105E36DB5FE930227
:101440000008739002308D427390428097F2FFFF44
:10145000938242BB93E2320073905230EFF03FE34D
:10146000970200009382229B739012347300203005
:10147000B727014093870740631EF500EFE25FC284
:10148000854513050020412D814513050020612568
:101490006FE0BFC182805C413707F1FF1307F7EFB0
:1014A0007D8FDC419441A207D58FD98F5CC11C454B
:1014B00037F7F1FF1307D77FD4457D8F9C49D58F30
:1014C00094458606D58FD98F1CC55C55370710FF0C
:1014D0007D177D8FDC29FD1793F7F70FD207D98F82
:1014E0005CD582801C4589C593E717001CC58280A6
:1014F000F99BEDBF5C4193F5F50F01C6DD8D4CC145
:10150000828093C5F5FFFD8DDDBF1C4593E7870005
:101510001CC5828008450D81058982801C4593E7A2
:1015200047001CC5828008450981058982801C45C9
:1015300089C52167D98F1CC5828061777D17F98F96
:10154000DDBF1C4591C537872000D98F1CC582801F
:101550003787DFFF7D17F98FD5BFA54763FBB7043A
:10156000138765FF931717008322C500BA971D43A1
:101570003313F3001343F3FF33735300B397F600B1
:10158000B3E767005CC5185D0906935747018D8B6B
:101590001D8E1376F60F931726003E96FD47B397E0
:1015A000C70093C7F7FFF98FB395C500DD8D0CDD3C
:1015B00082809397150003230501AE971D473317CB
:1015C000F7001347F7FF33776700B397F6005D8F97
:1015D00018C955BF1C5D3707D0FF7D17FD15F98F62
:1015E000D205DD8D0CDD8280711102C02AC08247D8
:1015F00093878702BE952EC082478843110142051A
:10160000418182805841144193D78500F58F99C755
:1016100013F5F50F798D3335A00082800145828066
:10162000A18193C5F5FF0CC182805C41370700FAA8
:101630007D17F98F5CC15C41DD8D4CC182805841C2
:10164000032305004C4537060140930706403E97AB
:101650009346F3FFB1C583250640F58D2320B640A0
:10166000D043F18ED4C31443B3E6660014C31841CB
:1016700090479346F7FF758E90C7D047F18ED4C739
:10168000144541466399C6009447D98E94C7D44700
:10169000558FD8C78280B6979443558F98C3828060
:1016A0001C43F58F1CC38280B70701401387074096
:1016B00083A70740584B698F09C77D8D3335A0003C
:1016C000828001458280B707014023AAA74082801B
:1016D0009C45611122C226C013F7070113F3F700DE
:1016E00001C7D8413363E30092211377F60F29C76E
:1016F0008323050001471304800293048004854678
:10170000B395E600B376B6006392D5029312270034
:10171000BD46B396560093C6F6FFB3F37600B312F8
:101720005300B3E37200639787064CC90507A146CF
:10173000E317D7FC232075001307F00F6378C70465
:1017400083234500A14613048002930480040547C7
:10175000B312D700337756006394E2021397260042
:101760000117BD45B395E50093C5F5FFB3F37500CB
:101770003317E300B363770063928702232A55008F
:1017800085064147E395E6FC232275001244824416
:1017900021018280E39C97F80CC949BFE39297FE30
:1017A00023285500F1BF0CC982804CC982803707BD
:1017B0000140144786058D47B397B70093C7F7FFDD
:1017C000F58F1CC71C47B315B500DD8D0CC7828093
:1017D000EFE21F8D111146212A8428002EC0852496
:1017E000C246C204C18093F404FCB7450F00938540
:1017F00005243685C20436C2C180EFE0BF8D458D19
:10180000420541814AA01E209246C207C183F99B2E
:10181000C207C1831EA082479043E1679387076A8E
:101820009315160063E6C7043685EFE0BF8AAA87E2
:101830004205418191466373D50091471395070195
:1018400041814AAC1E20024793E717001EA01E20CC
:1018500056233227C207C183D18E93F757BFD58F46
:101860001EA016275E27D58F1EA471016FE0FF838F
:101870008247EA23B167FD176310F502B2953685FA
:10188000EFE05F85420541819317450199E31365B8
:101890001500A1675D8D75B7B387C5008E07B38549
:1018A000C7003685EFE01F834205418191675D8D5A
:1018B000E1BF1E2189C593E717001EA18280C207E0
:1018C000C183F99BC207C183CDBF1E2189C593E7A0
:1018D00007101EA18280C207C18393F7F7EFC207EA
:1018E000C183C5BF1E2189C593E707201EA1828041
:1018F000C207C18393F7F7DFC207C183C5BF1E21AB
:1019000089C593E707401EA18280C207C18393F770
:10191000F7BFC207C183C5BF0EA982800A2913750C
:10192000F50F828093F7E50F19C293E71500C20700
:10193000C1831EA982805E290A2D42055D8D6D8DB1
:10194000220521810D8D133515008280611102C0A1
:1019500002C293D7C5012AC23EC08247A205A18117
:1019600099CB9247D1073EC29247884321016D8DA2
:101970003335A00082809247C181E107EDB723ACE7
:10198000A1908280938781919443182181E63C2124
:10199000920721A894430546639FC6023C2110315B
:1019A00092076314D60093E707F8B7E600E093F7D1
:1019B000F70FBA962380F640854693575700339722
:1019C000E6005441A5C2938707048A07B7E600E002
:1019D000B69798C382808C4389466391D5021431AF
:1019E0003C216365D6008A06B6975DB79386E60309
:1019F0008A06B69793F7F70F920775B790438D460F
:101A0000631CD60014313C216364D6008606E9BF0E
:101A10009386C6078606F1BF94439147E39EF6F886
:101A20001C31BDB7938707064DB7B7160240DC429D
:101A300041771307F77FF98F5D8DC8C28280EFE28F
:101A40002FE6371702405C4391462A84B18B6385A9
:101A5000D700A146638DD706B7376E01938707601D
:101A60001CC0B7160240DC42918313F7F700B7079A
:101A7000002093878702BA978C23DC42184093F5A5
:101A8000F50F93F707083355B70081E73A85EFE084
:101A90006FE448C008C448C4B7170240DC43AD83B4
:101AA000FD8B13D737008A07F18BD98F93F6370157
:101AB0000D476373D700D11737070020130747017D
:101AC000BA978C23EFE00FE108C86FE00FDE5C43AC
:101AD000B777DC02938707C061B799C53717024013
:101AE0001C4F5D8D08CF8280B7170240984F134579
:101AF000F5FF798D88CF828099C5371702405C4FFA
:101B00005D8D48CF8280B7170240D84F1345F5FF4F
:101B1000798DC8CF828099C5371702405C475D8DAB
:101B200048C78280B7170240D8471345F5FF798D23
:101B3000C8C782801E2137370140130707C0C2077C
:101B4000C1836306E500370700406316E500BA214C
:101B500093F7F7F8D98FFA2193F7F7CFC207C1832C
:101B6000D98F1EA1DE215EB59E211EB5B73701407B
:101B7000938707C06314F5009C251EB985475EA9AD
:101B800082801E31922103D32500C207C183F99BB5
:101B9000C207C1831EB11E3156211A2DC207C1834F
:101BA000420741831377C7F8518F9225F59BC206F0
:101BB00033666600D18F37360140130606C0C182F6
:101BC0006310C502B225DD9B03D3E500D18FD2217E
:101BD000ED9B93F6F6CFD18FD22533666600D18E7A
:101BE00056A11AADFA2158D91EB182801E316577EF
:101BF0001307F7CFC207C183BD9BC207C1831EB1C4
:101C00001E31562103D38500C20713960601162DF7
:101C1000C18393F7F7FD758F96214182A206558FF8
:101C2000B62142074183B3E666009206D58FB736E8
:101C30000140C207938606C0C183631ED502B62544
:101C400093F7F7F703D3C5009206D58FD621C207C5
:101C5000C183920693F7F7FBD58FFD769386F63F07
:101C6000F18EF225C207C183336666000A06D18E63
:101C700013960601418252A11AADFA2118DD1EB158
:101C800082801A31FD77FD17F98F1EB103530502CB
:101C90005A215E2DE5769386F6CFFD8E9E21131692
:101CA0000701BA21A207DD8EF977FD17B3F76700A8
:101CB00003D38500C2064182336767003207D98F9C
:101CC00037370140C207130707C0C182C183631BB6
:101CD000E50071777D17718FD2251A06518F131683
:101CE00007014182FA2152A156AD38C11EB182804E
:101CF0001E2189C593E717001EA18280C207C183F8
:101D0000F99BC207C183CDBF8357450491C52167A5
:101D1000D98F2312F5048280C607C583DDBF1E213B
:101D200089C593E707081EA18280C207C18393F784
:101D3000F7F7C207C183C5BF1E2DC207C183DD9B54
:101D4000DD8D0EAD82801A2DFD779387F77FF98F99
:101D5000A205CD8FC207C1831EAD82805A2DFD77AB
:101D60009387F77FF98FA205CD8FC207C1835EAD40
:101D700082804CD982800CDD82802CC18280EFE28F
:101D80002FB21629F577FD17F58FF621DA252111E7
:101D9000D58F1EA95625FD779387379FF58FD621BE
:101DA0002A842EC0D58F9625D58FB625D58F5EA5D2
:101DB0005E29C207C18393F7F7CF5D8F5AA9480008
:101DC000EFF0FFC7B7470140938707808245631252
:101DD000F406C2475A24139517003E9542070E0594
:101DE00041873E958C41635807048605EFE08FAE2E
:101DF000930540062AC0EFE0EFAD824793144500FB
:101E0000930540063E85EFE0AFAF5E24C207C18771
:101E100063D507020E059305400613052503EFE081
:101E20006FAB1D89C98CC204C18006A461016FE03B
:101E3000CFA7B24745B78A0555BF1205930540069F
:101E400013052503EFE00FA93D89E9BF91C55E2584
:101E50000967D98F5EA582805A25F977FD17F98F1A
:101E6000D5BF13F7F50F85471583B395B7006319F1
:101E7000F7009307C500984301CED98D8CC38280AB
:101E8000894693074501E318D7FE93070501E5B797
:101E900093C5F5FFF98DDDB793F5F51F4EA182804F
:101EA0004A211375F51F82800A216D8D3335A000FC
:101EB000828013F7F50F85461583B397B60063113B
:101EC000D7025A25F98F1A2101454207418381CB58
:101ED0000545A181B315B5006D8F3335E0008280D3
:101EE00089466314D7001A29F1BF5A29E1BFEFE2EE
:101EF0002F9BB707002003A50701B7157A0093852C
:101F00000520EFE02F9D1375F50F238FA1909317F8
:101F10005500898F8A073E950E05239EA1906FE09C
:101F2000CF98EFE2EF9737F400E05C40AA85F99B89
:101F30005CC003D5C191EFE0EF9708C823240400EB
:101F40001C4093E717001CC0B7F700E0D843058B8F
:101F500075DF9843799B98C36FE02F95AA87850713
:101F600003C7F7FF6DFF3385A7407D158280000012
:101F7000000000000000FF1C3E3E3E1414FF081C41
:101F80001C3E7F7FFF600070007C00FF242A7F2AB8
:101F90001200FF231308646200FF08141422417F1B
:101FA000FF000503000000FF001C22410000FF00AD
:101FB00041221C0000FF14083E081400FF5C62026E
:101FC000625C00FF503000000000FF0808080808AD
:101FD00000FF006060000000FF201008040200FF06
:101FE0003E5149453E00FF40427F404000FF426174
:101FF00051494600FF2141454B3100FF1814127F23
:102000001000FF274545453900FF3C4A494930004B
:10201000FF017109050300FF364949493600FF06F3
:102020004949291E00FF003636000000FF7E79492D
:10203000797E00FF081422410000FF1414141414C8
:1020400000FF004122140800FF787949797E00FFE3
:102050003E415D551E00FF7E1111117E00FF7F493C
:1020600049493600FF3E4141412200FF7F41412264
:102070001C00FF7F4949494100FF7F090909010010
:10208000FF3E4149497A00FF7F0808087F00FF00B2
:10209000417F410000FF2040413F0100FF7F0814C5
:1020A000224100FF7F4040404000FF7F020C027F42
:1020B00000FF7F0408107F00FF3E4141413E00FFCA
:1020C0007F0909090600FF3E4151215E00FF7F099B
:1020D00019294600FF264949493200FF01017F01C5
:1020E0000100FF3F4040403F00FF1F2040201F00F5
:1020F000FF3F4038403F00FF631408146300FF07B0
:102100000870080700FF615149454300FF007F4107
:10211000410000FF020408102000FF0041417F0041
:1021200000FF040201020400FF404040404000FF65
:10213000000003050000FF205454547800FF7F4442
:1021400044443800FF384444444400FF3844444485
:102150007F00FF385454541800FF04047E05050026
:10216000FF085454543C00FF7F0804047800FF002B
:10217000447D400000FF2040443D0000FF7F1028C8
:10218000440000FF417F40000000FF7C047C047895
:1021900000FF7C0804047800FF384444443800FF02
:1021A0007C1414140800FF081414147C00FF7C082D
:1021B00004040000FF485454542400FF04043F4426
:1021C0004400FF3C4040207C00FF1C2040201C00BD
:1021D000FF3C4030403C00FF442810284400FF0CE6
:1021E0005050503C00FF4464544C4400FF083641BA
:1021F000410000FF000077000000FF004141360869
:1022000000FF08082A1C0800FF081C2A080800FF15
:10221000FFFFFFFFFF00FF005B494E464F5D3A00A6
:102220005B4552524F525D3A000000005B414C4505
:1022300052545D3A000000000D0A0D0A0000000033
:10224000434833325630303320444556204B4954AE
:1022500020312E300D0A0000444556454C4F504564
:10226000442042593A20434150554620454D42456D
:10227000444445440D0A0000554152543A2031313E
:10228000353230302D312D6E0D0A0000504F57453C
:102290005220555020424545500D0A004F4C4544B0
:1022A00020434F4E46494720444F4E450D0A0000FB
:1022B00041444320434F4E46494720444F4E450D2D
:1022C0000A000000524742204C454420434F4E46EE
:1022D000494720444F4E450D0A00000053595354BE
:1022E000454D20434F4E46494720434F4D504C45A6
:1022F00054450D0A00000000202043483332563078
:10230000303320444556204B4954000020202020E3
:10231000444556454C4F504544204259000000006A
:10232000202020434150554620454D4245444445D8
:1023300044000000202020205757572E434150557D
:10234000462E494E00000000524742204C45442092
:102350005445535420434F4C4F520D0A0000000087
:10236000454E544552494E472053555045524C4FC7
:102370004F500D0A000000004348333256303033CE
:1023800020444556204B4954000000004D45415320
:10239000555245205426480D0A00000048554D4925
:1023A000444954593A2000002E000000202552488C
:1023B0000D0A0000202552482020200054454D5091
:1023C000455241545552453A20000000204465676B
:1023D00020430D0A0000000043000000504F54202D
:1023E000564F4C544147453A200000006D560000BE
:1023F0006D560D0A000000004C454420424C494EE9
:102400004B0D0A005541525420444154412052453D
:0C241000434549564544203A290D0A0076
:10241C000102030405060708010203040506070868
:10242C00006CDC020204060804080C1008101820CA
:10243C00102030402040608001020304050607088C
:08244C00010203040506070864
:00000001FF
