:100000006F10A072000000005009000054090000A9
:1000100000000000000000000000000000000000E0
:1000200000000000000000000000000000000000D0
:10003000F816000000000000FA16000000000000A2
:10004000FC160000FE16000000170000021700005A
:100050009C10000006170000081700000A17000097
:100060000C1700000E1700001017000012170000F8
:100070001417000040150000181700001A170000A0
:100080007A1500001E17000020170000221700003C
:1000900024170000261700002817000000000000A9
:1000A000511126C022C206C4828282441244A24058
:1000B000310182802A86014593F6150091C232955E
:1000C00085810606F5F9828000000000634E050276
:1000D00063C305042E86AA857D5515C285466378BF
:1000E000B6006356C00006068606E36CB6FE014500
:1000F00063E4C500918D558D85820582F5FA828075
:100100008682C93F2E8582823305A04063D70500D1
:10011000B305B040C1B7B305B0408682653F330533
:10012000A0408282868263C70500634905005D376F
:100130002E858282B305B040E35B05FE3305A04007
:10014000513F3305B040828200003D432A876373EC
:10015000C3029377F700BDEFADE5937606FF3D8AC6
:10016000BA960CC34CC30CC74CC74107E36BD7FE10
:1001700011E28280B306C3408A0697020000969679
:100180006780A6002307B700A306B7002306B700C1
:10019000A305B7002305B700A304B7002304B700E5
:1001A000A303B7002303B700A302B7002302B700DD
:1001B000A301B7002301B700A300B7002300B700D5
:1001C000828093F5F50F93968500D58D9396050162
:1001D000D58D61B793962700970200009696868288
:1001E000E78086FA9680C1171D8F3E96E374C3F8A8
:1001F000A5B7EFF2FFEA711102C0CC8009468A85EB
:10020000EF006075110155B5EFF29FE901116946E4
:10021000814548001D3FB717B0C8938707023EC00D
:10022000C147DC82E177938707147C83B7A7A6A830
:100230009387F71F3EC4E9779387F7437C8693073C
:1002400030FD5C87B7F7D9229387570D3EC8B717A3
:10025000DB209387A72D3ECA85679387D748FC8408
:100260009307F0FA230DF1000144B30781008C23BA
:100270001305C0030504B53FF147E318F4FE05611B
:100280002DB5EFF2FFE1930505FB93F5F50F13058F
:10029000C003853719BDEFF2BFE02A849375F500DE
:1002A0001305C003B93793554400C1051305C003B6
:1002B0008937E5BBEFF2DFDE21119307000402C6A8
:1002C00032C236C05C862EC402C8231A0100553FD4
:1002D000A2452E85C937124682467800931736000C
:1002E0003386C74089679387C730B2970145BA857F
:1002F0008507050713061500631AD50042064182DB
:100300001305C003EF002065610145B303C5F7F194
:1003100008A31375F60FE9BFEFF29FD861112A8782
:10032000AE84B287368419E0210141B30386070009
:10033000A6853A8599463EC23AC0AD3F9247990498
:100340007D1493F4F40F85071374F40F0247E1BF93
:10035000EFF21FD5130141F72EC22A84B2848145E2
:1003600013062008280036C0CD33924782465C84AD
:10037000814763ECD7008506139606012C00418265
:100380002285D12B1301C1080DB33386F40010224E
:1003900078013E978507A30EC7F693F7F70FD1BFF5
:1003A000EFF21FD019712A841306000881450A85CF
:1003B000693B814713070008B306F10080A2850757
:1003C000E39CE7FE1304000BA2851305C00315355B
:1003D00081451305C003313DC1451305C003113DDF
:1003E000930600080A86930500041305C0038D37A1
:1003F00005041374F40F9307800BE317F4FC0961F1
:100400006DB1EFF2FFC91305F00F593F1305400618
:10041000EF10F06A3D4569371305A00FEF10306A01
:100420001305000FB53F1305A00FEF1050690145EC
:10043000853FA5B9EFF2DFC661119307A0FB4C0021
:1004400002C20946130580035C8202C029231305FA
:100450004006EF10D0668A85054613058003E12328
:1004600003050100210191B1EFF29FC3611185677E
:100470009387E78B4C000D46130580037C8202C0F6
:1004800023130100C92913054006EF1050638A8524
:10049000054613058003412B0880210139B1EFF295
:1004A0003FC061118D679387C73A4C000D46130515
:1004B00080037C8202C023130100712913054006CA
:1004C000EF10F05F8A85054613058003A92B08808D
:1004D0002101E1BEEFF2DFBC51112A84AE84054652
:1004E0008A851305800302C002C223140100252B54
:1004F0001C80A18B99E33D3F853F5537058911E568
:100500001D468A8513058003392B1C819880A2071C
:10051000D98F13978700A183D98F9881C207C18390
:10052000920793564700DD8E93975600958F8A0762
:10053000B6978E07D1839CC01C823D8B22075D8FAE
:100540009C8222075D8F93175700998F8A07BA976D
:100550009207D1839387C7E01CC03101B9B6EFF28F
:100560003FB411651301C1FD85451305050202C4A1
:1005700002C602C802CA02CC02CE02D002C002C227
:10058000EF109009930700027C84371401408D47D7
:100590003EC62C00E147130504403EC8EF1020473B
:1005A000930700047C842C009147130504403EC847
:1005B000EF10E045F16737440140938707203ECABA
:1005C0004C08B7070C00130504803ECE02CC231064
:1005D0000102EF1090340546930550521305048034
:1005E000EF10F041930700127C8085475C810A85FB
:1005F00085473EC2EF10E06C854513050480EF107F
:10060000B03E1301410255B4EFF29FA97111AA84C3
:10061000EF10904E93170501C1833EC001448247FD
:10062000131704014183637BF702374701409306A8
:100630000780368593050008EF10D040B74701408A
:1006400093860780374701406DD5B38684008C229E
:10065000130507800504EF10F03DD1B71101B1B4C7
:10066000EFF21FA485472E84631AF500372500009A
:100670001305455B513F2285413F05BC8D476317FC
:10068000F500372500001305C55BEDB78947E31476
:10069000F5FE372500001305855CE9BFEFF25FA08A
:1006A0002A84B304B50063069402B7470140138758
:1006B00007803A8593050008EF10D038B74701400E
:1006C000138707807DD50C203A850504EF109036FE
:1006D000D9BFE1BAEFF2DF9C711102C09307F0F9C4
:1006E000AA84A145371501405C800144EF10C03F4A
:1006F000894537350140EF10007D7DD9B307810072
:100700008C2337350140EF10807B8545373501401C
:10071000EF10607B7DD937350140EF10807AB387C9
:10072000840088A305049147E314F4FCA145371520
:100730000140EF10203B11016FF03F97EFF25F9601
:100740002A84A14537150140EF10003A8945373515
:100750000140EF1040777DD9A28537350140EF1079
:100760000076854537350140EF10E0757DD9373586
:100770000140EF100075A14537150140EF1080369C
:100780006FF0BF92EFF2DF917111930700025C806E
:1007900093570501DC809317850042054181218133
:1007A0005D8D68811945593FA14537150140EF100E
:1007B000A0330144894537350140EF10C0707DD921
:1007C000B30781008C2337350140EF10406F85451A
:1007D00037350140EF10206F7DD937350140EF10DC
:1007E000406E05049147E317F4FCA145371501401D
:1007F000EF10402F1145993713052003EF10302CCF
:1008000011016FF09F8AEFF2BF89611102C28D471B
:10081000AE8437150140A14532C05C820144EF101F
:10082000A02C894537350140EF10E0697DD95C0087
:10083000A2978C2337350140EF1060688545373526
:100840000140EF1040687DD937350140EF106067F7
:1008500005049147E317F4FC01448247636AF400FE
:10086000A14537150140EF10E02721016FF0FF830C
:10087000894537350140EF1000657DD98145373511
:100880000140EF10C063854537350140EF10A0638C
:100890007DD937350140EF10C062B387840005046D
:1008A00088A31374F40F55BFEFF28FFF61118947CE
:1008B00002C21945AE8432C05C824935A145371564
:1008C0000140EF1060220144894537350140EF10A7
:1008D000805F7DD95C00A2978C2337350140EF10F3
:1008E000005E854537350140EF10E05D7DD9373535
:1008F0000140EF10005D05049147E317F4FC01444B
:100900008247636CF400A14537150140EF10801D4C
:1009100011452D3521016FF04FF9894537350140DB
:10092000EF10605A7DD9B38784008C23373501409E
:10093000EF10E058854537350140EF10C0587DD99C
:10094000373501400504EF10C0571374F40F4DBF45
:100950007300203001A0EFF2AFF47111B7570040DF
:100960002A84AE8432C0138707403A85B705020057
:10097000EF10A031B7570040138707407DF585453C
:100980003A85EF106028B707030085073757004006
:10099000BE8513050740EF10E02DB707030037575A
:1009A0000040850765D593151400014693F5E50FC2
:1009B0001305074037040700EF10A02A130424088A
:1009C00037550040A28513050540EF10A02A6DD9C8
:1009D00001448247636CF400375500408545130598
:1009E0000540EF10002411016FF02FECB387840055
:1009F0008C233755004013050540EF10C025B7077D
:100A000007009387470837550040BE85130505400A
:100A1000EF104026B7070700938747086DD50504F8
:100A20001374F40F7DB7EFF2AFE771112AC0375599
:100A30000040AE841305054085453284EF10C01C8C
:100A4000B7070300850737570040BE8513050740E9
:100A5000EF104022B707030037570040850765D5E0
:100A600082470546130507409395170093F5E50F58
:100A7000EF10201FB7070300890737570040BE85D6
:100A800013050740EF10001FB7070300375700405A
:100A9000890765D5854513050740EF10201A19E829
:100AA00037550040854513050540EF1080171101AB
:100AB0006FF0AFDF85476319F4003755004081457B
:100AC00013050540EF108017B7570040B705001019
:100AD0001385074093850504EF10201BB75700408E
:100AE0005DDD138507407D14EF102017420488A0B8
:100AF000418085046DB7EFF2AFDA056501118545D8
:100B0000410502C002C202C402C602C802CA02CC27
:100B1000231E0100EF104030A1470D447C808A85E0
:100B2000C147371501403EC422C2EF00506E930703
:100B30000002E1448A85371501407C8026C422C228
:100B4000EF00F06C930700087C808A859147371589
:100B500001403EC4EF00B06B930700048A8537154F
:100B600001407C8026C422C2EF00706AB7070401EE
:100B70003EC6B707000285073ECA930780033ECCF6
:100B80006C009D4737350140FC8602C8EF10602E8F
:100B9000854537350140EF10E03005616FF0EFD04B
:100BA000EFF20FD0AA840565130141FD2E841305D1
:100BB0000583854532C002C802CA02CC02CE02D0EB
:100BC00002D202D402C202C423160100EF10C024D4
:100BD00085450545EF102026B147FC8037150140BB
:100BE000E1473ECC0C088D47130505403ECAEF0097
:100BF0001062C1470C0837150140FC80EF003061DE
:100C00006082373401404C00130504C0648423150E
:100C1000010023130100EF10A02B4C00370500400A
:100C2000EF10002B0246C167938707076C08130576
:100C300004C03ECE2311C10223120102EF10202E68
:100C40006C08130504C0EF10803D6C0837050040A8
:100C5000EF108033130504C08545EF10A044130541
:100C600004C08145EF100047130504C08145EF1013
:100C7000A048130504C08545EF102044130504C0A7
:100C80008545EF10A040854537050040EF108041B5
:100C9000814537050040EF10C044854537050040C9
:100CA000EF10A041854537050040EF10203E1301AD
:100CB000C1026FF08FBFEFF2AFBE9377F50F2A84BA
:100CC000139557001D8D0A053E959305F00F0E05EF
:100CD000EFF04FC093150501C18137050040EF10BB
:100CE0004043135584009377F50F139557001D8DDE
:100CF0000A053E959305F00F0E05EFF0AFBDB73432
:100D0000014093150501C181138504C0418013740E
:100D1000F40FEF10404013155400018D0A05229581
:100D20009305F00F0E05EFF0EFBA93150501C181A1
:100D3000138504C0EF10A03D6FF02FB7EFF24FB650
:100D400037140140854513050440EF00B0591305E1
:100D50002003EF10C056854513050440EF00D0581E
:100D600013052003EF10A055854513050440EF003F
:100D7000705713052003EF10805485451305044078
:100D8000EF00905613052003EF10605385451305BF
:100D90000440EF0030551305401FEF1040526FF034
:100DA000CFB0EFF2EFAF130141FD61468145480836
:100DB000EFF0AFB985451305000202C402C602C8B0
:100DC00002C002C2EF104005854513050020EF1058
:100DD000A0043165EF00507937150140C1472C0060
:100DE00013050540372401407C8402C8EF003042DF
:100DF00013050440EF00B01B9D673ED04C088547AB
:100E0000130504402304F10202CA02CC02CE02D22E
:100E1000EF00501C854513050440EF00902F9D46C0
:100E200005469D4513050440EF0010278145130535
:100E30000440EF00B0239307D0217C800A858547CA
:100E40003EC223010100EF00D067B7050002130581
:100E50000440EF0070310546930500481305044037
:100E6000EF00301D854513050440EF00901B13056E
:100E70000440EF00701D930404402685EF00701DB0
:100E80006DFD1305044037240140EF00101D1304CD
:100E900004402285EF00101D6DFD1301C1026FF0AB
:100EA000CFA0EFF2EF9F41118545114502C202C468
:100EB00002C6EF00707685454145EF00F075854527
:100EC00013050002EF005075B717014041448D44EF
:100ED0000547138507404C0078823AC022C626C4D5
:100EE000EF00F03202474C0037150140788222C6ED
:100EF00026C4EF00D031B7170140114713850740D2
:100F00004C00788222C626C4EF0070304C003715A2
:100F10000140608222C626C4EF00702FB71701403F
:100F200021474C0013850740788222C626C4EF0073
:100F3000102E41016FF06F97EFF28F961301C1FDF4
:100F400085451545B714014002C402C602C802CA4D
:100F500002CC02CE02D002C002C2EF00F06B1144FC
:100F600089472C00138504807C8422C8EF00302A36
:100F70002C0013850480608422C8EF005029854529
:100F80000145EF00B036894785443ECA4808B1475D
:100F90003ECE26D002CCEF00701E89450145EF0001
:100FA000F034B147480822CA3ECE26D002CCEF002A
:100FB000F01CD1470A857C8026C223010100EF0086
:100FC0005050130141026FF04F8EEFF26F8D1301FD
:100FD000C1FD2AC22EC04545854502C402C602C8CD
:100FE00002CA02CC02CE02D0EF001063854537055D
:100FF0002000EF0050649146F1440D442C00371559
:101000000140748426C822C6EF00702089462C0057
:1010100037150140748426C822C6EF00501F82474E
:10102000124737540040FC86930700403ACAFC87B9
:101030003707FFBF91674C08130504403ACC2310D3
:10104000F102EF00D02C130504408545EF00503A23
:10105000854513050440EF00703E130141026FF017
:10106000CF84EFF2EF837111AA84AE873384C50079
:101070006395870011016FF04F83A94526853EC017
:10108000EFF00F8813050503A30FA4FEA9452685DD
:10109000EFF04F84AA847D148247D9BF0945EF0041
:1010A000901419C5054709452383E190EF00901579
:1010B0001145EF00501319C505471145A383E19071
:1010C000EF00501473002030EFE29FFD0945EF0060
:1010D000F03E5D2BEF10601BE933EFF0DFA1A1457F
:1010E00037150140EF001020813DEFF04FC76165DB
:1010F000930540041305056AC93DEFF0EF905531A3
:10110000B72500009385455D0145EFF06FD5B72504
:1011100000009385C55D0545EFF08FD4B72500002D
:101120009385455F0545EFF0AFD3B7250000938564
:1011300045610545EFF0CFD2B72500009385856264
:101140000545EFF0EFD11305401FEF104017EFF00A
:101150004FABB7250000938585630545EFF04FD071
:101160002945EF10C0153725014085451305054079
:10117000EF000071B72500009385C5640545EFF0C9
:101180002FCE01469305F0021305703EEFF05FA1EC
:10119000370400011305F4FFEFF0FFB1B72500009D
:1011A000938505660545EFF0AFCBB7250000938525
:1011B00085670545EFF0CFCA37260000C9461306FC
:1011C000466981450945EFF02F9537260000C14655
:1011D0001306866A81450D45EFF00F94372600000F
:1011E000C5461306C66B81451145EFF0EF923726D1
:1011F0000000C1461306066D81451545EFF0CF91FD
:101200001305007DEF10A00BB72500009385456EF8
:101210000545EFF0EFC441657D15EFF0DFA913053B
:10122000401FEF10C0093705FF001305F50FEFF061
:101230009FA81305401FEF108008130504F0EFF07E
:101240009FA71305401FEF1080071305F4FFEFF071
:101250009FA60145EFF0CF94138481A1138581A14E
:10126000EFF04FC718309307F00E6319F700B7255A
:1012700000009385C56F0545EFF08FBE2946938525
:1012800081910145EFF02FD8B72500009385457176
:101290000545EFF0EFBCA94513858191EFF00FC034
:1012A0003725000089451305055FEFF02FBFB725EF
:1012B0000000938545720545EFF08FBAB72700000F
:1012C000C1461386C77381450145EFF0EF84B7250A
:1012D0000000938505750545EFF08FB8B705002030
:1012E0009385850313858190EFF0CF9EB70700208B
:1012F0001387870308430D46938541919D33372615
:101300000000930506760545EFF08FB589451385F6
:101310004191EFF0AFB8B72700009385C77601453C
:1013200093844191EFF0CFB3890426858545EFF092
:10133000EFB6B7250000938505770145EFF04FB272
:1013400037260000A9461306067681450945EFE0D9
:10135000BFFC8946138641919305C0030945EFE020
:10136000BFFBB72700001386C77685469305800428
:101370000945EFE07FFA268685469305E004094596
:10138000EFE09FF9372600009D4613068677930508
:1013900040050945EFE05FF89387819088430D464B
:1013A000938541917D3937260000930506780545E0
:1013B000EFF00FAB894513854191EFF02FAEB727C2
:1013C00000009385C7760145EFF08FA926858545F6
:1013D000EFF0CFACB7250000938505790145EFF01C
:1013E0002FA837260000B54613060678814511451B
:1013F000EFE09FF28946138641919305E004114581
:10140000EFE09FF1B72700001386C7768546930566
:10141000A0051145EFE05FF026868546930500069E
:101420001145EFE07FEF3726000085461306C679A9
:10143000930560061145EFE03FEE9387C19094233A
:10144000054793840191639DE602B7260140138509
:101450000640D145C929131725003A951317650091
:10146000930540063A95EFE0FFC6B726014088C0D5
:101470009387C19085451385064023800700092185
:101480008840938541911146EFF0BFBDB72400001D
:10149000B5461386047A81451945EFE0FFE71386C8
:1014A000419191469305E0041945EFE0FFE63726A8
:1014B000000089461306067B930560061945EFE098
:1014C000BFE59385047A0545EFF08F991385419127
:1014D0009145EFF0AF9CB72500009385457B014512
:1014E000EFF00F9813054006EF00705DB725000080
:1014F0009385C57B0545EFF0AF9613845190EFF0CF
:10150000FF831C20E38C07DAB72500009385857CD8
:101510000545EFF0EF94B72500009385057E05455E
:10152000EFF00F940145EFF0EFA5B7050020294635
:101530009385C5030145EFF02FB723000400BDBB21
:10154000711122C03724014093050048130504405F
:10155000CD2E8547631FF5002386A190D145130545
:101560000440D12623A8A190930500481305044008
:10157000FD260244110173002030711122C037444E
:1015800001409305505213050480EF00504C1DC9D3
:1015900013050480EF00904A93874190902337070A
:1015A00000201307C70393061600329793F6F60F31
:1015B00008A394A325476377D70023800700054736
:1015C000A382E1900244110173002030B71702405A
:1015D0009843B706FFFC1367170098C3D843758F6D
:1015E000D8C39843B706F7FEFD16758F98C3984386
:1015F000B706FCFFFD16758F98C3D843C176FD165C
:10160000758FD8C337079F0098C7984F1367070295
:1016100098CF3717014003260740930507401376FC
:10162000F6F02320C7400326074013660608232050
:10163000C740094798C9372702401043719A10C321
:1016400010431366160010C3D843D8C3D843F98E8D
:10165000D4C3D843B7060001D8C39843558F98C365
:10166000984393166700E3DD06FED843B7160240A1
:10167000719BD8C3D84313672700D8C32147DC42E6
:10168000B18BE39EE7FE8280EFE29FA13717024015
:101690005C43370400209146B18B13040401638539
:1016A000D700A1466382D704B7376E0193870760DE
:1016B0001CC0B7160240DC420840918313F7F700C4
:1016C000B707002093870700BA978C23DC4293F575
:1016D000F50F93F707083357B50081E7EFE09F9FB9
:1016E0002A8718C06FE07F9C5C43B777DC02938742
:1016F00007C07DBF01A001A001A001A001A001A021
:1017000001A001A001A001A001A001A001A001A0D1
:1017100001A001A001A001A001A001A001A001A0C1
:1017200001A001A001A001A001A097F1FF1F9381DA
:10173000E110138181FC171500001305250C97F5A6
:10174000FF1F9385258C17F6FF1F1306268F63FA5C
:10175000C5008322050023A0550011059105E3EA89
:10176000C5FE17F5FF1F1305658D938541A26377AD
:10177000B500232005001105E36DB5FE93020008B6
:10178000739002308D427390428097F2FFFF9382F4
:10179000628793E2320073905230EFF03FE397029A
:1017A00000009382A2927390123473002030B72706
:1017B000014093870740631EF500EFE27F8E854569
:1017C00013050020412D81451305002061256FE0A0
:1017D000DF8D82805C413707F1FF1307F7EF7D8FC4
:1017E000DC419441A207D58FD98F5CC11C4537F7E6
:1017F000F1FF1307D77FD4457D8F9C49D58F944542
:101800008606D58FD98F1CC55C55370710FF7D170D
:101810007D8FDC29FD1793F7F70FD207D98F5CD5A1
:1018200082801C4589C593E717001CC58280F99BFF
:10183000EDBF5C4193F5F50F01C6DD8D4CC1828093
:1018400093C5F5FFFD8DDDBF1C4593E787001CC5E3
:10185000828008450D81058982801C4593E74700F9
:101860001CC5828008450981058982801C4589C57F
:101870002167D98F1CC5828061777D17F98FDDBF05
:101880001C4591C537872000D98F1CC582803787BA
:10189000DFFF7D17F98FD5BFA54763FBB70413871B
:1018A00065FF931717008322C500BA971D433313B2
:1018B000F3001343F3FF33735300B397F600B3E71A
:1018C00067005CC5185D0906935747018D8B1D8E17
:1018D0001376F60F931726003E96FD47B397C70081
:1018E00093C7F7FFF98FB395C500DD8D0CDD8280BE
:1018F0009397150003230501AE971D473317F70093
:101900001347F7FF33776700B397F6005D8F18C969
:1019100055BF1C5D3707D0FF7D17FD15F98FD20528
:10192000DD8D0CDD8280711102C02AC08247938751
:101930008702BE952EC0824788431101420541812E
:1019400082805841144193D78500F58F99C713F5CC
:10195000F50F798D3335A000828001458280A18109
:1019600093C5F5FF0CC182805C41370700FA7D17F3
:10197000F98F5CC15C41DD8D4CC1828058410323ED
:1019800005004C4537060140930706403E979346B5
:10199000F3FFB1C583250640F58D2320B640D04323
:1019A000F18ED4C31443B3E6660014C318419047C4
:1019B0009346F7FF758E90C7D047F18ED4C7144574
:1019C00041466399C6009447D98E94C7D447558F32
:1019D000D8C78280B6979443558F98C382801C43A2
:1019E000F58F1CC38280B70701401387074083A788
:1019F0000740584B698F09C77D8D3335A000828021
:101A000001458280B707014023AAA74082809C45F8
:101A1000611122C226C013F7070113F3F70001C7B3
:101A2000D8413363E30092211377F60F29C783234C
:101A30000500014713048002930480048546B39592
:101A4000E600B376B6006392D50293122700BD4636
:101A5000B396560093C6F6FFB3F37600B312530065
:101A6000B3E37200639787064CC90507A146E317E5
:101A7000D7FC232075001307F00F6378C704832376
:101A80004500A14613048002930480040547B31265
:101A9000D700337756006394E202139726000117AC
:101AA000BD45B395E50093C5F5FFB3F37500331756
:101AB000E300B363770063928702232A550085060B
:101AC0004147E395E6FC232275001244824421013C
:101AD0008280E39C97F80CC949BFE39297FE2328C4
:101AE0005500F1BF0CC982804CC982803707014084
:101AF000144786058D47B397B70093C7F7FFF58F57
:101B00001CC71C47B315B500DD8D0CC78280EFE202
:101B10002FD9111146212A8428002EC08524C246BF
:101B2000C204C18093F404FCB7450F0093850524DB
:101B30003685C20436C2C180EFE0CFD9458D42055B
:101B400041814AA01E209246C207C183F99BC20769
:101B5000C1831EA082479043E1679387076A93156C
:101B6000160063E6C7043685EFE0CFD6AA874205A4
:101B7000418191466373D5009147139507014181D7
:101B80004AAC1E20024793E717001EA01E205623D2
:101B90003227C207C183D18E93F757BFD58F1EA0BE
:101BA00016275E27D58F1EA471016FE00FD08247E4
:101BB000EA23B167FD176310F502B2953685EFE0B1
:101BC0006FD1420541819317450199E313651500D3
:101BD000A1675D8D75B7B387C5008E07B385C70054
:101BE0003685EFE02FCF4205418191675D8DE1BFE2
:101BF0001E2189C593E717001EA18280C207C183F9
:101C0000F99BC207C183CDBF1E2189C593E7071089
:101C10001EA18280C207C18393F7F7EFC207C18379
:101C2000C5BF1E2189C593E707201EA18280C20778
:101C3000C18393F7F7DFC207C183C5BF1E2189C5E2
:101C400093E707401EA18280C207C18393F7F7BFC5
:101C5000C207C183C5BF0EA982800A291375F50F7B
:101C6000828093F7E50F19C293E71500C207C1837D
:101C70001EA982805E290A2D42055D8D6D8D22058B
:101C800021810D8D133515008280611102C002C2C1
:101C900093D7C5012AC23EC08247A205A18199CB34
:101CA0009247D1073EC29247884321016D8D33355B
:101CB000A00082809247C181E107EDB723AEA1A0C9
:101CC00082809387C1A19443182181E63C21920729
:101CD00021A894430546639FC6023C211031920718
:101CE0006314D60093E707F8B7E600E093F7F70F21
:101CF000BA962380F6408546935757003397E600FF
:101D00005441A5C2938707048A07B7E600E0B69757
:101D100098C382808C4389466391D50214313C215B
:101D20006365D6008A06B6975DB79386E6038A0692
:101D3000B69793F7F70F920775B790438D46631CDC
:101D4000D60014313C216364D6008606E9BF938631
:101D5000C6078606F1BF94439147E39EF6F81C310F
:101D6000BDB7938707064DB7B7160240DC424177EF
:101D70001307F77FF98F5D8DC8C28280EFE24FB203
:101D8000371702405C4391462A84B18B6385D700A4
:101D9000A146638DD706B7376E01938707601CC0D5
:101DA000B7160240DC42918313F7F700B707002013
:101DB00093878702BA978C23DC42184093F5F50F7E
:101DC00093F707083355B70081E73A85EFE08FB006
:101DD00048C008C448C4B7170240DC43AD83FD8B3C
:101DE00013D737008A07F18BD98F93F637010D4748
:101DF0006373D700D1173707002013074701BA973D
:101E00008C23EFE02FAD08C86FE02FAA5C43B777B3
:101E1000DC02938707C061B799C5371702401C4F92
:101E20005D8D08CF8280B7170240984F1345F5FFAC
:101E3000798D88CF828099C5371702405C4F5D8DC0
:101E400048CF8280B7170240D84F1345F5FF798DF0
:101E5000C8CF828099C5371702405C475D8D48C75F
:101E60008280B7170240D8471345F5FF798DC8C760
:101E700082801A218D6793870704B6217D8F9E216A
:101E8000D58FD621D58FF621D58F9625D58FB6251E
:101E9000D58FD625D58FF625D58FD98F1EA19E2912
:101EA0001EA982801E2189C593E707041EA1828096
:101EB000C207C18393F7F7FBC207C183C5BF4EA515
:101EC00082804A2582800A256D8D3335A00082806C
:101ED0001E2137370140130707C0C207C1836306BD
:101EE000E500370700406316E500BA2193F7F7F8DD
:101EF000D98FFA2193F7F7CFC207C183D98F1EA1DB
:101F0000DE215EB59E211EB5B7370140938707C01D
:101F10006314F5009C251EB985475EA982801E3199
:101F2000922103D32500C207C183F99BC207C18355
:101F30001EB11E3156211A2DC207C18342074183AB
:101F40001377C7F8518F9225F59BC206336666005A
:101F5000D18F37360140130606C0C1826310C50217
:101F6000B225DD9B03D3E500D18FD221ED9B93F603
:101F7000F6CFD18FD22533666600D18E56A11AAD29
:101F8000FA2158D91EB182801E3165771307F7CF29
:101F9000C207C183BD9BC207C1831EB11E3156213A
:101FA00003D38500C20713960601162DC18393F74C
:101FB000F7FD758F96214182A206558FB621420703
:101FC0004183B3E666009206D58FB7360140C2075B
:101FD000938606C0C183631ED502B62593F7F7F733
:101FE00003D3C5009206D58FD621C207C1839206BE
:101FF00093F7F7FBD58FFD769386F63FF18EF225AA
:10200000C207C183336666000A06D18E13960601A5
:10201000418252A11AADFA2118DD1EB182801A3117
:10202000FD77FD17F98F1EB1035305025A215E2D6E
:10203000E5769386F6CFFD8E9E2113160701BA2111
:10204000A207DD8EF977FD17B3F7670003D385008C
:10205000C2064182336767003207D98F37370140A4
:10206000C207130707C0C182C183631BE5007177F4
:102070007D17718FD2251A06518F131607014182E1
:10208000FA2152A156AD38C11EB182801E2189C5E8
:1020900093E717001EA18280C207C183F99BC20784
:1020A000C183CDBF8357450491C52167D98F2312C2
:1020B000F5048280C607C583DDBF1E2189C593E76D
:1020C00007081EA18280C207C18393F7F7F7C207F2
:1020D000C183C5BF1E2DC207C183DD9BDD8D0EAD43
:1020E00082801A2DFD779387F77FF98FA205CD8F18
:1020F000C207C1831EAD82805A2DFD779387F77F7B
:10210000F98FA205CD8FC207C1835EAD82804CD905
:1021100082800CDD82802CC18280EFD27FF816296C
:10212000F577FD17F58FF621DA252111D58F1EA938
:102130005625FD779387379FF58FD6212A842EC0A9
:10214000D58F9625D58FB625D58F5EA55E29C2077A
:10215000C18393F7F7CF5D8F5AA94800EFF01FC2F4
:10216000B74701409387078082456312F406C24750
:102170005A24139517003E9542070E0541873E9558
:102180008C41635807048605EFD0DFF493054006C1
:102190002AC0EFD03FF482479314450093054006D0
:1021A0003E85EFD0FFF55E24C207C18763D50702E5
:1021B0000E059305400613052503EFD0BFF11D89D9
:1021C000C98CC204C18006A461016FD01FEEB24762
:1021D00045B78A0555BF120593054006130525032B
:1021E000EFD05FEF3D89E9BF91C55E250967D98FC3
:1021F0005EA582805A25F977FD17F98FD5BF13F7B1
:10220000F50F85471583B395B7006319F70093075A
:10221000C500984301CED98D8CC38280894693072F
:102220004501E318D7FE93070501E5B793C5F5FF10
:10223000F98DDDB793F5F51F4EA182804A21137504
:10224000F51F82800A216D8D3335A000828013F73F
:10225000F50F85461583B397B6006311D7025A254B
:10226000F98F1A2101454207418381CB0545A181A0
:10227000B315B5006D8F3335E00082808946631455
:10228000D7001A29F1BF5A29E1BFEFD27FE1B70782
:10229000002003A50701B7157A0093850520EFD02C
:1022A0007FE31375F50F2381A1A293175500898F42
:1022B0008A073E950E052390A1A26FD01FDFEFD2B3
:1022C0003FDE37F400E05C40AA85F99B5CC003D593
:1022D00001A2EFD03FDE08C8232404001C4093E78E
:1022E00017001CC0B7F700E0D843058B75DF984393
:1022F000799B98C36FD07FDBAA87850703C7F7FF59
:102300006DFF3385A7407D1582800000000000002E
:102310000000FF1C3E3E3E1414FF081C1C3E7F7F45
:10232000FF600070007C00FF242A7F2A1200FF2338
:102330001308646200FF08141422417FFF000503A4
:10234000000000FF001C22410000FF0041221C0091
:1023500000FF14083E081400FF5C6202625C00FF8C
:10236000503000000000FF080808080800FF006067
:1023700060000000FF201008040200FF3E514945A4
:102380003E00FF40427F404000FF4261514946000D
:10239000FF2141454B3100FF1814127F1000FF2729
:1023A0004545453900FF3C4A49493000FF01710964
:1023B000050300FF364949493600FF064949291EF1
:1023C00000FF003636000000FF7E7949797E00FF6D
:1023D000081422410000FF141414141400FF0041DB
:1023E00022140800FF787949797E00FF3E415D554F
:1023F0001E00FF7E1111117E00FF7F494949360002
:10240000FF3E4141412200FF7F4141221C00FF7FEE
:102410004949494100FF7F0909090100FF3E41493F
:10242000497A00FF7F0808087F00FF00417F4100D4
:1024300000FF2040413F0100FF7F0814224100FFC0
:102440007F4040404000FF7F020C027F00FF7F047E
:1024500008107F00FF3E4141413E00FF7F0909090E
:102460000600FF3E4151215E00FF7F091929460009
:10247000FF264949493200FF01017F010100FF3F6A
:102480004040403F00FF1F2040201F00FF3F4038DA
:10249000403F00FF631408146300FF07087008073B
:1024A00000FF615149454300FF007F41410000FFAB
:1024B000020408102000FF0041417F0000FF0402D9
:1024C00001020400FF404040404000FF00000305BF
:1024D0000000FF205454547800FF7F4444443800E7
:1024E000FF384444444400FF384444447F00FF38EC
:1024F0005454541800FF04047E050500FF0854548A
:10250000543C00FF7F0804047800FF00447D400035
:1025100000FF2040443D0000FF7F1028440000FFE2
:10252000417F40000000FF7C047C047800FF7C08B1
:1025300004047800FF384444443800FF7C14141429
:102540000800FF081414147C00FF7C080404000039
:10255000FF485454542400FF04043F444400FF3C0B
:102560004040207C00FF1C2040201C00FF3C4030ED
:10257000403C00FF442810284400FF0C5050503CC1
:1025800000FF4464544C4400FF083641410000FF02
:10259000000077000000FF004141360800FF0808F6
:1025A0002A1C0800FF081C2A080800FFFFFFFFFF85
:1025B000FF00FF005B494E464F5D3A005B455252BB
:1025C0004F525D3A000000005B414C4552545D3A69
:1025D000000000000D0A0D0A0000000043483332DD
:1025E0005630303320444556204B495420312E304C
:1025F0000D0A0000444556454C4F50454420425971
:102600003A20434150554620454D424544444544B7
:102610000D0A0000554152543A20313135323030E4
:102620002D312D6E0D0A0000504F57455220555048
:1026300020424545500D0A004F4C454420434F4E23
:1026400046494720444F4E450D0A0000414443206F
:10265000434F4E46494720444F4E450D0A00000067
:10266000524742204C454420434F4E464947204460
:102670004F4E450D0A00000053595354454D204319
:102680004F4E46494720434F4D504C4554450D0A47
:1026900000000000202043483332563030332044BD
:1026A0004556204B495400002020202044455645E3
:1026B0004C4F504544204259000000002020204348
:1026C0004150554620454D42454444454400000094
:1026D000202020205757572E43415055462E494E13
:1026E00000000000524742204C45442054455354BA
:1026F00020434F4C4F520D0A00000000464C4153FE
:1027000048204944205245414420535543434553B2
:10271000530D0A0053504920444154412052454131
:10272000443E0000454E544552494E4720535550B3
:1027300045524C4F4F500D0A0000000043483332C1
:102740005630303320444556204B49540000000099
:102750004D454153555245205426480D0A0000006E
:1027600048554D49444954593A2000002E00000074
:10277000202552480D0A0000202552482020200024
:1027800054454D50455241545552453A20000000A1
:102790002044656720430D0A00000000430000004C
:1027A000504F5420564F4C544147453A20000000AA
:1027B0006D5600006D560D0A000000004C45442087
:1027C000424C494E4B0D0A0055415254204441544D
:1027D00041205245434549564544203A290D0A00B7
:1027E000464C415348204441544120575249544596
:0827F00020444F4E450D0A0084
:1027F8000102030405060708010203040506070889
:10280800006CDC020204060804080C1008101820EA
:1028180010203040204060800102030405060708AC
:08282800010203040506070884
:00000001FF
